:020000040000FA
:0600000040EF3CF012008D
:06000800A6EF24F0120037
:060018000BEF25F01200C1
:10100000010CB6C0F3FFB7C0F4FF1200B2C01BF072
:10101000B3C01CF0B4C01DF0B5C01EF01200928623
:10102000828C949C92861200B7EC0CF0828C000C9F
:10103000EDEC0FF0110EE126829C64EC0FF071ECE8
:101040000FF0FDE150EC0FF008000A0E5FEC10F01D
:10105000060EEECFDBFF070EEECFDBFF4FEC10F0FE
:1010600064EC0FF071EC0FF0FDE1E5EC10F0050E13
:10107000F5CFDBFF0A0EDB8C07EC10F0090E07EC56
:1010800010F0080E07EC10F0070E07EC10F0060E3B
:1010900007EC10F0050E07EC10F0FE0EDB50050813
:1010A00002E1C7EC0CF0140EF36E0B0EF3CFDBFF76
:1010B0000C0EDB6AC7EC0CF0DF6E0B0EDB060C0EC1
:1010C00001E2DB06FF0EDF5C05E1D9500B0F7AEC85
:1010D00010F0F0E164EC0FF071EC0FF0FDE1BBEC0F
:1010E00010F0020807E1010EDFCFDBFFC7EC0CF0C8
:1010F000DF6E4BD064EC0FF071EC0FF0FDE1BBEC58
:1011000010F001082AE10D0EDB6A0E0EDB6A0A0EF2
:10111000F36E0F0EF3CFDBFF100EDB6AC7EC0CF0A3
:10112000DF6ED9500D0FECEC10F0EE06000EEE5A0B
:10113000EE5AEE5ADF500FE10D0EDBCF00F00E0E2F
:10114000DBCF01F00F0EDBCF02F0100EDBCF03F090
:1011500083EC10F0E3E1DF6A18D064EC0FF071EC7F
:101160000FF0FDE1BBEC10F004080FE1C7EC0CF050
:10117000E76E040E7EEC10F0030E7EEC10F0020E13
:101180007EEC10F0010EE7CFDBFFFBEC0FF064EC20
:101190000FF071EC0FF0FDE150EC0FF0030ED2EC0C
:1011A0000FF001E1828CE2EC10F0EECF03F0EFCF14
:1011B00004F0F2EC0FF03DEC10F0110EE15C02E2F5
:1011C000E16AE552E16EF7EF0FF0EDEC0FF00E0E75
:1011D000E126829C64EC0FF071EC0FF0FDE150EC25
:1011E0000FF008000B0E5FEC10F0070EEECFDBFFE8
:1011F0004FEC10F00A0EEECFDBFF64EC0FF071EC59
:101200000FF0FDE1E5EC10F0060EF5CFDBFF0B0E65
:10121000DB8C0CEC10F00A0E0CEC10F0090E0CEC50
:1012200010F0080E0CEC10F0070E0CEC10F0060E8F
:101230000CEC10F0FE0EDB50050801E1EBDB140EA8
:10124000F36E0C0EF3CFDBFF0D0EDB6A56EC10F0E5
:1012500001E2DB06010EDB50FF0805E1D9500C0F5F
:101260007AEC10F0F3E164EC0FF071EC0FF0FDE1BB
:10127000BBEC10F0020808E1010EDB50E76E020E35
:101280004AEC10F0010E31D064EC0FF071EC0FF06D
:10129000FDE1BBEC10F0010813E10C0EDB680D0E54
:1012A000DB6856EC10F001E2DB06010EDB5005E1D5
:1012B000D9500C0F7AEC10F0F4E1010EDB6A17D074
:1012C00064EC0FF071EC0FF0FDE1BBEC10F00408E2
:1012D0000EE1A0DBE76E050E4AEC10F0040E4AECBE
:1012E00010F0030E4AEC10F0020EE7CFDBFF88ECA3
:1012F00010F064EC0FF071EC0FF0FDE150EC0FF02A
:10130000030ED2EC0FF001E1828C010EDBCF00F076
:10131000020EDBCF01F0030EDBCF02F0040EDBCFB9
:1013200003F0050EDBCF04F0F2EC0FF03DEC10F013
:101330000E0EE15C02E2E16AE552E16EF7EF0FF0BA
:10134000EDEC0FF00E0EE126DE6A020EDD6EDB6ABA
:10135000F36E030EF3CFDBFF040EDB6A050EDB6AD0
:10136000F90EDBCF1DF0FA0EDBCF1EF0060E1DC00E
:10137000DBFF070E1EC0DBFFD950FB0FE96EFF0E2F
:10138000DA20EA6E4FEC10F00A0EEECFDBFF0B0E08
:10139000EECFDBFF010EF36E0C0EF3CFDBFFD9CFE8
:1013A000E6FFDACFE6FF19D8E552E552E76E0D0EFB
:1013B000E7CFDBFFDB5002E1010E05D00D0EDB5065
:1013C000FF08EDE1000E006E0E0EE15C02E2E16A44
:1013D000E552E16E0050F7EF0FF0EDEC0FF0060E66
:1013E000E1265EEC0FF0EF50FF0A01E187D0010A21
:1013F00001E17CD0FC0A4FE0010A32E0020A05E07C
:10140000010A01E07BD0000E7DD00001CB6B020E03
:10141000CC6F8CEC0FF0B85104E1090E97EC10F092
:10142000FDE1D880000E00018FEC10F006E3010E04
:10143000D16F21EC10F0080E04D0D16B21EC10F02C
:10144000090EA8EC0FF0010EDB5020E10001CD6B7E
:10145000CE6B040ECF6FD06B5EEC0FF0030E19D085
:101460000001CD51CE11CF11D01110E0CD07000EEB
:10147000CE5BCF5BD05B8BDADF6EFF0EDF5C28E0EC
:10148000FE0EDF5C03E1FBEC10F03CD05EEC0FF0F5
:10149000FE0EEF6E1DD00001ACEC10F01DE0BCECB8
:1014A0000FF068EC10F0CB5FBF51CC5B35D800017A
:1014B000CB51CC110FE16BDA6ADA0001ACEC10F021
:1014C00004E05EEC0FF0030EEF6ECB6B020ECC6F00
:1014D000010E18D0020E16D0D15105E1D9EC0FF053
:1014E000050EFFEC0FF0F0EC10F00CD05EEC0FF0FE
:1014F000EF68D9EC0FF0050EA8EC0FF0828CFBEC36
:101500000FF0FF0E006E060EE15C02E2E16AE552AA
:10151000E16E0050F7EF0FF00001BE51BF1101E185
:101520002ED0E9CFD2F0EACFD3F0F3CFD4F0F4CF7E
:10153000D5F0BEC0F3FFBFC0F4FFC4C0E9FFC5C013
:10154000EAFF7550E86EA49E756806D0A4AEFED77B
:10155000A49E75507568EE6E000EF306F45AF350B3
:10156000F410F4E1A4AEFED775CFEEFFA49ED4C074
:10157000F3FFD5C0F4FFD2C0E9FFD3C0EAFF1200E9
:10158000EDEC0FF0090EE1265EEC0FF0EF50FE0AD5
:1015900001E1DED0FA0A01E1C8D0070A01E198D0E2
:1015A000010A62E0030A05E0010A01E0DBD0000E57
:1015B000DCD00001D76B020ED86F8CEC0FF0D88016
:1015C000000E8FEC10F003E30A0EDD6F3BD00B0E24
:1015D000DD6FC0C000F0C1C001F0C2C002F0C3C0E6
:1015E00003F0090E9EEC10F0FDE100C0DFFF010EDC
:1015F00001C0DBFF020E02C0DBFF030E03C0DBFFF6
:10160000E2EC10F0EFCF03F083EC10F007E1F2EC26
:101610000FF0EE2A000EEE22EE22EE22D9EC0FF0B1
:101620000F0EE66E77EC0FF00DE1F2EC0FF0EECF5F
:10163000E6FFEECFE6FFEECFE6FFEFCFE6FF130EBD
:10164000FFEC0FF00001B85104E1090E97EC10F027
:10165000FDE121EC10F0DDC0E6FF77EC0FF001E0DA
:101660007FD0FBEC10F032D00001D7510CE1020E1C
:10167000D81909E10B0EDD5D02E1FC0E01D0FE0E72
:10168000E66E77D9E552BCEC0FF0000168EC10F083
:10169000D75FBF51D85B73D80001D751D81116E17D
:1016A000D76B020ED86FFBEC0FF0FBEC0FF06FD98D
:1016B0001F0B050836E15EEC0FF0030EEF6E000124
:1016C000D96BDA6B0A0EDB6FDC6B4ED0020E4DD09D
:1016D0000001D951DA11DB11DC1123E0D907000E2A
:1016E000DA5BDB5BDC5BFBEC0FF051D90001D66F02
:1016F000E8503AE0ACEC10F011E1D96BDA6B0A0E6D
:10170000DB6FDC6B0B0EDD5D20E1FD0EE66E31D98B
:10171000E552FBEC0FF0D2DB040E05D0FBEC10F031
:1017200024D0CCDBFE0EEF6E1FD00001D951DA11B0
:10173000DB11DC110DE0D907000EDA5BDB5BDC5B53
:1017400026D90001D66FE8500FE0F0EC10F00DD074
:10175000D9EC0FF0050EFFEC0FF0828CFBEC0FF0D4
:10176000ADDBEF68FF0E01D0030E006E090EE15CE9
:1017700002E2E16AE552E16E0050F7EF0FF000017E
:10178000BE51BF1101E12AD0E9CFDFF0EACFE0F08E
:10179000F3CFE1F0F4CFE2F0BEC0F3FFBFC0F4FF3F
:1017A000C4C0E9FFC5C0EAFFEE5003D0EE50A4AEBE
:1017B000FED7A49E756E000EF306F45AF350F41093
:1017C000F5E1A4AEFED775CFDEF0A49EE1C0F3FF35
:1017D000E2C0F4FFDFC0E9FFE0C0EAFF1200EDEC79
:1017E0000FF0E652F80EDB500FE1FB0EDBCF00F0FE
:1017F000FC0EDBCF01F0FD0EDBCF02F0FE0EDBCFE7
:1018000003F083EC10F02BE00001E36B020EE46FB9
:10181000E56BE66FE76BE86BF90EDBCFE9F0FA0EEC
:10182000DBCFEAF0FB0EDBCFEBF0FC0EDBCFECF016
:10183000FD0EDBCFEDF0FE0EDBCFEEF0010EEF6F15
:10184000E30EE66E000EE66E9BDEE552E552DF6EBD
:10185000DF5002E1010E04D0FF0EDF5CF1E1000E6B
:10186000E552C5D3000CD9CFE6FFE1CFD9FF050E75
:10187000E126FE0EDB50DF6EDF50DF0600096BE075
:101880000801005107E0006A120E016E7A0E026E26
:10189000036A07D0006A6C0E016EDC0E026E020E47
:1018A000036E080E206E216A226A236A00C01BF0B4
:1018B00001C01CF002C01DF003C01EF066EC34F045
:1018C0001BC000F01CC001F01DC002F01EC003F0E0
:1018D000E80E206E030E216E226A236A00C01BF000
:1018E00001C01CF002C01DF003C01EF066EC34F015
:1018F0001BC000F01CC001F01DC002F01EC003F0B0
:10190000050E005E000E015A000E025A000E035A28
:10191000010E00C0DBFF020E01C0DBFF030EDB6A1D
:10192000040EDB6AD950010FE96EDACFEAFFEFCF80
:1019300000F0EE06000EEFCF01F0EE5AEFCF02F00E
:10194000EE5AEFCF03F0EF5A0050011002100310CF
:1019500001E0E8D791D7000000D0050EE15C02E27B
:10196000E16AE552E16EE552E7CFD9FF1200729AC3
:101970001200F5EC10F0FE0EDB50756E72AE02D068
:10198000FF0E03D0A4AEFED7000EE55230D3F5EC27
:1019900010F07568A4AEFED77550E55228D31DDB54
:1019A000736A726AFE0EDB507212738C9494939673
:1019B000958C728A1CD311DB020EE1268B948A86E9
:1019C00094949396DF6A080EDF5C19E28B94FE0E06
:1019D000DBAE02D08A8601D08A96DB50020DFE0E65
:1019E000F3CFDBFFDE52010EDD6E34DBFEE18B84D4
:1019F000DE52010EDD6E2EDBFEE1DF2AE4D78B9492
:101A0000000E006E020EE15C02E2E16AE552E16E58
:101A10000050EDD2E2DA030EE126020EDB6A8A867E
:101A20009396958C8B949494DF6A080EDF5C16E293
:101A30008B94DE52010EDD6E0DDBFEE18B84DE52F7
:101A4000010EDD6E07DBFEE1020EDB50020D020E21
:101A5000F3CFDBFF83BCDB2ADF2AE7D78B94020EB0
:101A6000DB50006E030EE15C02E2E16AE552E16EDA
:101A70000050BDD2726A8B948A8694949396120019
:101A8000ACDA230EE1260001B96BBA6BB26BB36B13
:101A9000B46BB56BB86B828CEDDF1E0EE66EE3DEC9
:101AA000E552828CDE6ADD6ADECF00F0DDCF01F028
:101AB0000A0E005C000E015806E22ADBDF2A010E46
:101AC000F3E3DB2AF1D7640EDE6EDD6A828C20DB65
:101AD000829CDF06010E01E2DB066CDB02E063DBC9
:101AE000F5E161DB0CE1828C13DB829C62DA050E8E
:101AF0005EDB60DB04E00001020EB96FB2D1AA0E1A
:101B0000E66E010EE66EE66AE66A020E50DB0068DB
:101B10000F0E016E026A036AA4DAAA0E001841E1F0
:101B2000010E01183EE102503CE103503AE1D95068
:101B3000020F52DBEF50040B34E13BDA100E37DBBF
:101B4000DE6ADD6ACEDA16E234DA0F0EE5DA006E0E
:101B5000050EE15E0050E66AE66AE66A400EE66E51
:101B6000120E25DB020EDB5005E0DF2A010EEAE350
:101B7000DB2AE8D7B6DA03E30001020EB96F19DAFF
:101B8000100E15DB006A016A026A400E036E69DA04
:101B9000BADA04E00001010EB86F20D00001B86B82
:101BA0001DD0828C010EE66E5EDEE552829C000145
:101BB000B86BDE681F0EDD6EFCD9010EF8DADF06A9
:101BC000010E01E2DB06020EDB5002E0ECDAF4E18A
:101BD000EADA04E10001020EB96F828C828CE66AB7
:101BE000DEDEE552829C140EDE6EDD6AE2D9030E63
:101BF000E66E18EC08F043D9DF06010E01E2DB06C1
:101C0000020EDB5002E0CFDAF1E1CDDA04E10001AF
:101C1000020EB96F25D11C0EDB6A1B0EDB6A140E97
:101C2000F36E1B0EDBCFF4FFF350F45C20E2AFDE6B
:101C3000E66ED950070F006EDACF01F01C0EDB50B4
:101C40000F010024E96E000EDA20EA6EE552E7503B
:101C5000EF6E1C0EDB2A1B0EDB5006E1070EDB507D
:101C6000FE0802E11C0EDB6A1B0EDB2AD8D700013E
:101C7000B66B020EB76FBB6BBC6FBA81070EDB5041
:101C8000C00B2FE00E0EDBCF00F0016A026A036A80
:101C90003F0E0016016A026A036A100E1F0B02E073
:101CA00054DAFEE10F0EBDD9100E88D91D0EDBCF20
:101CB000B2F01E0EDBCFB3F01F0EDBCFB4F0200E60
:101CC000DBCFB5F00001B22B000EB323B423B52354
:101CD0000A0ED890B237B337B437B537E806F9E112
:101CE000A0D00D0EDBCF00F0016A026A036A100E6D
:101CF0001F0B02E02ADAFEE10E0E93D90F0E5ED919
:101D0000D9501D0F69DAC00EEE16EE52030EEE1614
:101D1000EE6A1D0EDBCF00F01E0EDBCF01F01F0EB2
:101D2000DBCF02F0200EDBCF03F0060E07DAFEE178
:101D30002DDA100EDB50030BE824006E110EDB5081
:101D4000800BE844010B0010E76E210EE7CFDBFFAC
:101D50000C0EDB500F0BE76E220EE7CFDBFFDB50E4
:101D6000F70F006E010E005204E0E846FE0B00067D
:101D7000FCE1E76E220EE7CFDBFFDBCF0CF00D6A54
:101D80000E6A0F6A210EDB50020FEFEC7FF0F3CFEB
:101D900008F0F4CF09F00A6A0B6A010E046E056AB6
:101DA000066A076AD9501D0F17DAEE500426EE5066
:101DB0000522EE500622EE50072204C01BF005C09B
:101DC0001CF006C01DF007C01EF0F3CF20F0F4CFCA
:101DD00021F00AC022F00BC023F032EC3AF017C019
:101DE00000F018C001F019C002F01AC003F017C0CB
:101DF0001BF018C01CF019C01DF01AC01EF00CC05A
:101E000020F00DC021F00EC022F00FC023F032EC04
:101E10003AF017C0B2F018C0B3F019C0B4F01AC04D
:101E2000B5F00001B207000EB35BB45BB55BC1D87F
:101E3000110EE5D8B6C000F0B7C001F0026A036A1F
:101E4000B6C0E6FFB7C0E6FF02C0E6FF03C0E6FF8C
:101E5000070EE66E18EC08F0046E050EE15E045005
:101E6000828CB90E006E000E016E00C0F3FFF46E9E
:101E7000230EE15C02E2E16AE552E16EB8D071D96D
:101E8000020E00C0DBFF030E01C0DBFF040E02C028
:101E9000DBFF050E03C0DBFF060E04C0DBFF1200F4
:101EA00000500324F36E01500420F46E025005200C
:101EB000F86EF4CFF7FFF3CFF6FF120060D90C0EE7
:101EC000E926000EEA221200F90E006E750E016E70
:101ED000000E026EFE0EDBCF03F0046A056A020EEE
:101EE0001200D890033604360536E806120018ECC6
:101EF00008F037D9040E00C0DBFF050E01C0DBFF80
:101F0000060E02C0DBFF070E03C0DBFF080E04C095
:101F1000DBFF040EDB50120032D9EECFBEF0EECF65
:101F2000BFF0EECFC0F0EECFC1F0EECFC2F0EECFFB
:101F3000C3F0EECFC4F0EECFC5F0EECFC6F0EECFDB
:101F4000C7F0EECFC8F0EECFC9F0EFCFCAF0120065
:101F5000E66E18EC08F005D9010E00C0DBFF020E9A
:101F600001C0DBFF030E02C0DBFF040E03C0DBFF7A
:101F7000050E04C0DBFF120002D9EECFBEF0EDCF9C
:101F8000BFF0FDD8060EE926000EEA22EECFC4F01F
:101F9000EDCFC5F0BEC000F0BFC001F0026A036A19
:101FA00000501200F626000EF722F8220800F55025
:101FB0001200E66AE66AE66AE66A1200DBCF08F01B
:101FC000096A0A6A0B6A08500012095001120A5085
:101FD00002120B500312C6EF10F0D9CFE6FFE1CF8B
:101FE000D9FF1200D9CFE9FFDACFEAFF1200E5529C
:101FF000E7CFD9FF1200E668BCDCE5521200E66EBE
:1020000018EC08F0006E050EE15E00501200DBCF08
:10201000E6FFAFDCE5521200DBCFE6FFCCDCE55299
:102020001200DBCF04F004C005F0046A066A076AF8
:1020300004500012055001120650021207500312FC
:102040001200C6C0E6FFC7C0E6FFC8C0E6FFC9C0B1
:10205000E6FF1200010EDBCFF3FFDB06F3500009B1
:102060001200D950030FB8D8EE500016EE500116EA
:10207000EE500216EE5003161200ED50ED5004C063
:10208000EDFF03C0EDFF02C0EDFF01C0EDFF00C09A
:10209000EFFF1200E7CFDBFFBDDCE76E1200080E9A
:1020A000EECFDBFF090EEECFDBFF1200B3DCE76EF5
:1020B000010EE7CFDBFF0C0EDB060D0E1200F5CF95
:1020C000DBFFD950FA0FE96EFF0EDA20EA6E12003C
:1020D000C05F0150C15B0250C25B0350C35BBE5185
:1020E0001200DECF00F0DDCF01F0FF0E005CFF0E2E
:1020F0000158120071D8EE50ED101200E7CFDBFF4F
:1021000046DCE76E120000500110021003101200AE
:10211000E66851DCE5521200E66EE5EF08F0C055C6
:10212000020EC155000EC255000EC3551200D890C4
:10213000C637C737C837C937E8061200D890033208
:10214000023201320032E8061200D8900036013621
:1021500002360336E8061200C051C111C211C31184
:1021600012004DD8EECF03F0EECF04F0056E050E51
:10217000E15E0550120094DE020ED2EF0FF0FD0E6C
:10218000DBCFE9FFFE0EDBCFEAFF12001D0E00C021
:10219000DBFF1E0E01C0DBFF1F0E02C0DBFF200EA7
:1021A00003C0DBFF12001EDFEE50ED101200B4DFA3
:1021B0003FEF0FF0FEDEE66AE5EC08F060DE020EAF
:1021C000DB0412000FDFFFEF10F06ADEF62A000ECC
:1021D000F722F82208001200E96EDACFEAFF1200B7
:1021E000828C09DF6BDEEF6A1200F7DEE652755073
:1021F000DF6EA49E120062DE020EEF6E1200EECFC2
:0C22000000F0EECF01F0EECF02F0120073
:04220C0094EC17F047
:10221000A098636A626A0F01266BF4EC16F00F0156
:102220003AEC17F0DF6A2AEC17F003E2DAEC16F06A
:10223000FAD7658C0F01386B6598659C62A607D04C
:10224000629601015A6B5F6B606B616BF7D701019E
:10225000010E766F776F786B796B686BDF6A040EAF
:10226000DF5C11E2EA6ADF3497EC17F0EA22EE6AEB
:10227000ED6AEA6ADF349EEC17F0EA22EE6AED6A54
:10228000EAEC16F0ECD70101080E4D6F040E4E6F0C
:102290000F01160E266F0401400E026F040E036F2D
:1022A000080E016F840E006F01013F6B3E6BE5521B
:1022B000B4EF16F094EC17F001013E0509E165BAA0
:1022C00007D0626A0F01368136890101020E3E6F26
:1022D0006250040B06E00F013651040B02E06294D9
:1022E00059DB65B243D06250010B0AE00F01365151
:1022F000010B06E08BDFA0880101040E3E6F6290A7
:102300006250100B06E00F013651100B02E037DB74
:10231000629862AC09D00F0136AD05D041EC17F0E0
:10232000730E78EC16F0629C6250200B05E00F01F2
:102330003651200B01E012DB6250020B0CE00F0162
:102340003651020B08E041EC17F0E6687F0EE66EAE
:10235000A5EC17F0636A040E0101E76E3E19E8AEC2
:1023600002D0E73402D0E7503E5D02E2A1982FD0C0
:102370000F0136A72BD0DF6A040EDF5C27E262A6CE
:1023800025D064CF69F101016951780BE842E84238
:10239000E8426A6F629669B504D06A51B3EC17F0EF
:1023A00003D06A51B8EC17F0EA22EF706A5102E1EB
:1023B000FEDA0AD0000EE66EE66A690EE66E010EDF
:1023C000E66E720E78EC16F0DF2AD6D7A198E552A9
:1023D000B4EF16F066EC17F0FD0EDBA403D0E66A4E
:1023E00032EC17F0FD0EDBA204D0010EE66E32ECEB
:1023F00017F0FE0EDB50016A260F006E0F0E24EC64
:1024000017F0A5EC16F0FD0EDBCFEFFF020EE15C3E
:1024100002E2E16AE552E16EB4EF16F066EC17F005
:10242000FD0EDB5003E073EC16F002D0CBEC16F09F
:1024300010EC17F0D9CFE9FFDACFEAFFEE50ED103C
:1024400003E1F36AF46A28D0A5EC16F0C7EC17F0A4
:10245000FB0EDBCFEEFFFC0EDBCFEDFFA5EC16F0A5
:10246000EE52FA0EDBCFEFFF400EBDEC17F0880EF8
:10247000CCEC17F0FD0EDB5003E073EC16F002D04D
:10248000CBEC16F0EA22EF74DECF00F0DDCF01F0E6
:1024900000C0F3FF01C0F4FF020EE15C02E2E16A5A
:1024A000E552E16EB4EF16F066EC17F0FE0EDB506D
:1024B00003E174EC17F009D0D0EC16F054EC17F0EF
:1024C000D0EC16F0010F54EC17F0020EE15C02E2C2
:1024D000E16AE552E16EB4EF16F0AFEC16F065A8D4
:1024E00017D085EC17F0400EEE16EE6AEE6AEE6A33
:1024F00085EC17F0EE7C73EC16F0EA22EF74400ED8
:10250000006E85EC17F00050EF1685EC17F0EF7CAD
:10251000B4EF16F0656A0F01366B01013E6B1200D5
:1025200001013E5110E1656A0F01366B3AEC17F07C
:10253000D08EA288A088F28E65B602D06586FCD7C0
:102540000101010E3E6F12000101765127E1010EDB
:10255000766F775123E1010E776F020E565D09E128
:10256000AAEC16F0EE52EF6AAAEC16F0C80EEF6E67
:102570001200560513E16B6BC0EC16F0EE52080E1C
:10258000EF6EC0EC16F060EC17F0C0EC16F0840EA5
:10259000EF6E010E6B6FA3DB800EEF6E1200010178
:1025A000786B796B020E565D07E1C1EC17F0C5EC54
:1025B00016F04FEC17F010D05B510401465D01019D
:1025C0005C510401475904E246C45BF147C45CF125
:1025D00061D8C0DBDADBBEDBC80EEF6E120066EC42
:1025E00017F0000EDE6E040EDD6EDADB040DF4CFA4
:1025F00001F0D9CFE9FFDACFEAFFF350EE26015020
:10260000ED22A3DBEF9EFD0EDB5002E1C4DB01D027
:102610006ADBEA22DECFEEFFDDCFEDFF96DBEF9C3B
:1026200094DB040EE926000EEA22EF8C020EE15C38
:1026300002E2E16AE552E16E97D3659801015ABF63
:102640000DD05FAF09D0020E566F795101E1A7DFBF
:102650000101776B766B120074EF17F0040140AF45
:102660000DD00101010E566F785101E198DF010193
:10267000776B766B75510DE1A4EF12F00101020E3C
:10268000566F2DDB840EEF6E776B766B755101E123
:102690005BDF120094EC17F0080EDF6E01015B5D4A
:1026A000000E5C590AE25BC1DFFF555102E1010EE9
:1026B00003D0550502E1020E556FDF50016AE85064
:1026C0005B5D5B6F01505C595C6F44DBEE52DFCFAA
:1026D000EFFF480E656F040E666F5AB110D0DF50E1
:1026E0001AE057C1F6FF572B58C1F7FF000E5823C9
:1026F00059C1F8FF59230800F55085DBF0D7DF50AA
:102700000AE057C1E9FF58C1EAFF572B000E5823D2
:10271000EF5079DBF4D7E55227D3D8DB31DBEE522B
:10272000EFCFDFFFDFCF00F000500101605D000E52
:10273000615902E260C1DFFFDF50006E016AE850BC
:10274000605D606F01506159616F010EDB6ADF509F
:10275000F36E010EDBCFF4FFF350F45C16E2010ED2
:10276000DB50EA6A480FE96E040EEA22EF50E66E8B
:102770005DC1E9FF5EC1EAFF5D2B000E5E23E552FD
:10278000E750EF6E010EDB2AE2D7000ED8806055CD
:10279000000E61550EE2C1EC17F0F7DAF1DAEF50F6
:1027A000400B03E17CDBC80E02D079DB880EEF6EB4
:1027B00015D095DA840EEF6E62516311641109E051
:1027C00007D064C1FBFF63C1FAFF01016251F96EDA
:1027D000F8DF01015F9F755101E1B6DE020EE15C99
:1027E00002E2E16AE552E16EBFD29EDB01015A8F3F
:1027F000FBDADF6A2FDB02E2DDDAFCD7658CDF6A09
:10280000040EDF5C02E2E6DAFBD7010EE66EE66A52
:10281000E66A400EE66E010E7FDB659C0101080E44
:102820004D6F040E4E6F000E416F040E426F41C19A
:1028300043F1446F42C43FF13F5102E1100E0BD00F
:10284000010EE66EE66A3F0EE66E010EE66E010EC2
:102850004FDA0101200E3E6FE55286D2800E040150
:10286000405D40E10101C00E5A6F04014351030A6B
:1028700025E0010A0BE0030A33E10101260E576F40
:10288000FF0E586F000E596F120E24D0D20E006E3C
:10289000FF0E016E000E30DA020EF626000EF72251
:1028A000F8220800F5CF5BF157DB030EF626000E89
:1028B000F722F8220800F5CF5CF11200030E425D0A
:1028C0000CE2D50E006EFF0E016E000E15DA080048
:1028D000F55001015B6F5C6B120001015A6B120035
:1028E00001015A6B1200F2DA0401486B496B405146
:1028F0001F0B020A11E0030A0CE0010A1EE10101AC
:102900005A8F040148810101670517E104014883DA
:1029100014D001015A8F11D001015A8F040144BF14
:1029200002D0E9DA01D0ECDA7BDAF2DA06E00DDA8D
:10293000EF50040B02E0010E486F01015AAF07D0BF
:10294000480E576F040E586F5A81020E5B6F020ECD
:10295000E15C02E2E16AE552E16E06D20F0126A1D6
:102960000CD00EDAEF50800807E1F4D9EF5084085C
:1029700003E106DA8C0EEF6E2691629A12000F01C7
:102980003685629865820101010E686F4FDA750E17
:1029900078EF16F00101686B49DA740EA9D96592D7
:1029A0000F01369562A402D06294FCD71200BCDA03
:1029B000FD0E0101691539E17E0E6915E8407F0BB6
:1029C000040DF3CF41F1F4CF42F1000E4127040E84
:1029D000422341C143F142C144F14375D1D9EF5083
:1029E0003C0BE842E8420D081EE1DF6A080EDF5C9E
:1029F00016E2C6D9020EE926000EFFD9EF50E66EA8
:102A0000DF50EA6A400FE96E040EEA22E552E75011
:102A1000EF6EB6D9BCDAEE2AEF22DF2AE7D7B0D9BB
:102A20004FDA0AD807D023D805D0FD0E691504085F
:102A300001E12CD8E55298D10101556B756B786B8B
:102A4000796B6B6B566B86D9EF9E4D7583D9EF9E74
:102A50004D7525DAEF9E5A6B5B6B5C6B5F6B606B41
:102A6000616B54D8E3D9030E43D91DEF13F0020E66
:102A70000101565D02E18DEF13F0566B6B5104E1DD
:102A80002ED98C0EEF6E12006B6B12004DDA62D9EC
:102A9000EF50400B01E0010EDF6E01014D75080E95
:102AA0003E5D0BE142C438FF0F01385103E00101E4
:102AB000100E02D00101040E3E6F560513E14AD9F3
:102AC00064D9E8DD020E0101555D03E143D9840EAE
:102AD00007D0DF5003E13ED9C80E02D03BD9880EA3
:102AE000EF6E12D05FAF0FD062516311641109E035
:102AF00007D064C1FBFF63C1FAFF01016251F96EA7
:102B0000F8DF01015F9F566BE5522ED10401405161
:102B1000600BE842E842E842E842E842000901E08E
:102B2000120041510C0A45E00B0A3FE00C0A31E06B
:102B3000010A22E00B0A1EE0020A1CE0030A18E068
:102B4000080A10E0010A0CE00F0A08E0030A01E09D
:102B5000120001015A8F080E3E6F12002EEF14F082
:102B6000F5EF13F001013F0E576F010E586F0CD0B7
:102B700073EF14F0DAEF15F044510101576F586B01
:102B8000400E5727010E58235A81010E5B6F5A8F52
:102B9000120001015A8F04014451EA6A400FE96EA4
:102BA000010EEA2242C4EFFF120040D9020E78EF74
:102BB00016F01200D4D8050EE1260401420510E1FA
:102BC00040511F0B00090CE101015A8F030E040153
:102BD000415D04E10101010E676F02D00101676BE5
:102BE0000401425101E074D040511F0B020870E112
:102BF00044510F0B00096CE044510F0B030868E3CC
:102C0000200E01013E5D64E15A8F040144BF04D0EF
:102C100072D906D911D903D073D902D911D9EA22B0
:102C2000020EEFCFDBFF34D9010B03E1000EDF947E
:102C300001D0DF8444BF02D05ED901D061D9EA223D
:102C4000DECFEEFFDDCFEDFF030E415D0CE160D97D
:102C500007E044BF02D0F0D801D0F2D8EA22EF82D8
:102C6000840E9AD935D0DF7453D906E06ED8EF9E22
:102C70006CD8EF8C2FD902D068D8EF8CDF7408D9CC
:102C8000020B02E145D90DE0040144BF02D0D4D8C3
:102C900001D0D6D8EA22EF923B0E006E6ED91AD937
:102CA00002D03B0E6AD9040144510F0B016A260F72
:102CB000006E0F0E0122030E00C0DBFF040E01C0E8
:102CC000DBFF030EDBCFE9FF040EDBCFEAFFEF9063
:102CD000050EE15C02E2E16AE552E16E45D051D9B0
:102CE000EFD84FEF17F0FE0EEA6ADB3497EF17F0DC
:102CF000E66EE66AA5EF17F0026E42C403F0046ABE
:102D0000056A030E216E226A236A03C01CF004C008
:102D10001DF005C01EF0B8EC34F000501924F36E1D
:102D200001501A20F46E02501B20F86EF4CFF7FF0A
:102D3000F3CFF6FF0900F5CF57F10900F5CF58F1B1
:102D40000800F5CF59F1ACEF17F0DECFE9FFDDCF8A
:102D5000EAFF12004DC1E9FF4EC1EAFF1200D9CFD0
:102D6000E6FFE1CFD9FF1200E552E7CFD9FF12000D
:102D700044510F0BE96EEA6AD890E936EA36120040
:102D800041C1E9FF42C1EAFF120001D9480EEE6ECF
:102D9000040EED6E1200FE0EEA6ADB349EEF17F0B1
:102DA000FD0EDB50E824026EFE0EDB50040DF350E6
:102DB00002241200DF50040DF3CFE9FFF4CFEAFF45
:102DC000000EE926040EEA22EE6AEE6AEE6AEE6A68
:102DD000DF2A1200DF50CCD8EA22EF6ADF50C3D8D6
:102DE000EA22EF6ADF2A1200030EE66EE66AE66A5E
:102DF000270EE66E0F0E8CEF17F0EA22EE50EFCFA3
:102E0000EAFFE96E1200E66E65C1E9FF66C1EAFFFE
:102E1000652B000E6623E552E750EF6EDF061200C9
:102E2000EA22EECFDEFFEDCFDDFF1200000EE66EF0
:102E3000E66AE66EE66A120044510F0BB3EF17F034
:102E400044510F0BB8EF17F0012200C0DEFF01C0A4
:102E5000DDFF1200DF50006E016A100E005C000EF4
:102E600001581200FE0EDBCFE6FFEFEC12F0E55248
:102E7000E5521200160E396F9F0E376F7B0E366FBC
:102E80001200010EE66EE66A000EE66EE66A1200B9
:102E9000D950020FE96EDACFEAFFEF50120043C1BA
:102EA000E9FF44C1EAFF1200040DF3CF00F0F4CFB4
:102EB00001F0000E0026040EC7DF840ECCEF17F0E1
:102EC00066D8400EEE6E040EED6E120048DF020E64
:102ED000E1261200020EE66EE66ADECFE6FFDDCFE7
:102EE000E6FF050E78EF16F0FADE8C0EEF6E32DF9D
:102EF000840EEF6E12003CDF450EE926010E120033
:102F000037DF4D0EE926010E1200EDDEFDEF16F063
:102F10001CDFEF50800B1200E66EB3EC37F0006E52
:102F2000050EE15E005012001ADFE6521200FE0BA1
:102F3000EA36E96E4D0EE926010E1200FE0BEA3666
:102F4000E96E450EE926010E120046EC24F0006EF3
:102F5000060EE15E0050120057C1F6FF58C1F7FFA0
:102F600059C1F8FF1200EA6A700FE96E010E1200F3
:102F7000EA6A6C0FE96E010E1200E7DEE850EF1608
:102F800012008DDFEE52080EEF6E4FEF17F0020EBB
:102F9000E926000EEA221200D8DEE850EF121200F5
:102FA000D0EC1DF0EDEC1DF074EC1DF04FC19BF06A
:102FB00050C19CF00001606B6169626B636BA26B36
:102FC000AA6BAB6BAC6BAD6BAE6BAF6BB06BB16B3D
:102FD000010EA36F9F6BA06B726B010E725D11E20D
:102FE00089EC1DF0EF6A00EC08F0000905E065ECE3
:102FF0001DF002E05BEC1DF018EC1CF00001722BE0
:10300000ECD71200040140511F0B010801E012002F
:10301000445101E012004151FE0A29E0010A01E099
:1030200012004251431138E14651471101E01200AC
:103030000001606B6169626B636B010EA36F01013C
:103040004751481102E1000E08D047C1E9FF48C1CD
:10305000EAFFEF50800B01E0010E000904E1D0EC23
:103060001DF0FAEC1DF00101800E5A6F1200425162
:10307000431112E1010E461901E1475101E012002E
:103080000401486B0101480E576F040E586F010E82
:103090005B6F5C6BC10E5A6F120052EC1DF0E65272
:1030A000200E01013E5D02E0000ED8D0A098000184
:1030B0006051030A01E19ED0010A01E18AD0030AAE
:1030C00001E183D0010A01E0C0D099519A1102E1D7
:1030D000000E04D02EEC1DF001E0010E000901E00D
:1030E000BAD0DF6A1F0EDF5C13E2DF50EA6A500FCE
:1030F000E96E040EEA22EF50E66EDF50EA6A650FD1
:10310000E96E000EEA22E552E750EF6EDF2AEAD7B9
:10311000FDEC1DF0EE52EF501F0850E1550E00017E
:1031200065194CE1530E661949E1420E671946E1F3
:10313000430E681943E1010EA36F725100083BE38F
:103140007351100838E3010E735D35E33F0E7115BE
:1031500032E10401550E6F6F530E706F420E716FA6
:10316000530E726F69C073F46AC074F46BC075F467
:103170006CC076F4C1EC1DF07B6B00016169626B81
:10318000636B646B030E745D06E08791879387958C
:103190008797916B926B71AF02D0010E01D0020E36
:1031A000606FC6EC1DF002E0A26B02D0010EA26FB0
:1031B00074C061F050D002EC1EF04BD002EC1EF057
:1031C000DEEC1DF00001A36B46D04BD8FF0843E1B5
:1031D0000DD047D8FF083FE104017B5107E177514B
:1031E000781179117A1102E0020E7B6F0001030E53
:1031F000606F31D001014F51501102E1000E08D033
:103200004FC1E9FF50C1EAFFEF50800B01E0010E12
:10321000000921E10D0EE66E6F0EE66E040EE66EFD
:10322000D9EC1DF0000199519A1102E1000E04D071
:103230002EEC1DF001E0010E000904E1D0EC1DF0C0
:10324000FAEC1DF00001606B06D0606B0401020E09
:103250007B6FDEEC1DF0A08800016051E55257EF56
:103260001DF000EC08F0000905E0000189EC1DF0FC
:10327000EF040EE100017251EFEC7FF006EC1EF05E
:10328000001E011E005000019F170150A0171CD006
:103290007251EFEC7FF000019F51F314006EA051CA
:1032A000F414016E0050011011E165EC1DF00CE00A
:1032B0005BEC1DF08791878387858797280E916F38
:1032C000926BE9EC1DF002D005D801D025D80001A1
:1032D0006151120000016151FD0A17E0EF0A15E08B
:1032E0000C0A0EE01E0A0CE0030A11E1A1DA00014B
:1032F00087918783879587973A0E916F926B05D058
:10330000E9EC1DF00001616912008CEF19F07F0EED
:10331000E66E2FDBE5521200C5DB0A0EE126000146
:103320006151FE0A01E11FD1030A01E1CDD0D20AA9
:1033300001E1C6D0340A01E1C3D01B0A01E1B1D0DA
:103340001E0A01E1ABD0040A01E191D0190A71E033
:10335000260A39E0370A0FE0380A08E0020A01E0DD
:1033600002D145D9000901E002D1ACD0B5D900099C
:1033700001E0FDD0A7D0A20501E1F3D077C0A5F010
:1033800078C0A4F078C000F077C001F0026A036A48
:1033900078C0E6FF77C0E6FF47DB01E0E8D0240E07
:1033A0007BDB240EE66EE66A890EE66E770EE66E2D
:1033B000000EE66E0BEC1EF090EC37F0006E070E80
:1033C000E15E005067D006EC08F0060E1BC0DBFF84
:1033D000070E1CC0DBFF080E1DC0DBFF090E1EC060
:1033E000DBFF01EC08F006EC1EF0020EF3CFDBFF72
:1033F000030EF4CFDBFF040EDB6A050EDB6A090E59
:10340000DBCF00F6080EDBCF01F6070EDBCF02F6AE
:10341000060EDBCF03F6050EDBCF04F6040EDBCF82
:1034200005F6030EDBCF06F6020EDBCF07F6080E1D
:103430002DD0A20501E195D0120EA46FA56B2CDB57
:10344000DF6ADF50006E016A120E005C000E015848
:1034500021E2DF50EA6A850FE96E000EEA22EF50A2
:10346000E66E5EDBE552E750EF6EDF2AEAD7060133
:10347000030E006F016B32EC0CF0000902E0800ECD
:1034800001D0000E0601026F036B040E0001A46F51
:10349000A56B02DB0001FD0E616F69D02ADB99DBB1
:1034A00010D0E66AE66AE66AE66A8CDB60E1000153
:1034B00087510F0B060803E104017B0503E0B8D92F
:1034C00004015FDB00014DD09B519C1102E1000E15
:1034D00003D0C8DA01E0010E000949E1400E6D5D3C
:1034E000000E6E59000E6F59000E705909E3DE523E
:1034F000400EDD6E6D5F000E6E5B6F5B705B07D024
:10350000010E6DC0DBFF6D6B6E6B6F6B706B010E30
:10351000DB50006E016AE850A45D0150A55909E333
:10352000010EDB50006E016AE850A45F0150A55BFC
:1035300010D0DF6A010EDB50DF5C0BE2A451A51155
:1035400004E0A407000EA55B02D0EADAEF6ADF2AE6
:10355000F1D7010EDBCFE6FF5EDB2BDB000116DBD4
:1035600006E1616904D07F0EE66E03DAE5520A0EC9
:10357000E15C02E2E16AE552E16E99D293DAD7DAD0
:10358000026A036A005000016D5D01506E590250DD
:103590006F590350705907E20401F3DA6DC0A4F0CB
:1035A0006EC0A5F023D0C3DAA451005CA551015828
:1035B00006E2FD0EDBCFA4F0FE0EDBCFA5F0A4C02B
:1035C00000F0A5C001F0026A036A6D0EE96E000EFC
:1035D000EA6E0050EE5C0401776F0150EE58786F90
:1035E0000250EE58796F0350EE587A6F60D20001A6
:1035F0006251040A4BE0070A3CE0010A14E0030AA6
:103600000AE0010A60E116DA99DAFEE1EDDA61E139
:103610000001010E626FA451A5115AE0A407000E2B
:10362000A55B020E626F9B519C1102E1000E03D05C
:1036300019DA01E0010E00094CE11BDAA0EC09F0F7
:10364000006E060EE15E005001080AE0640E000103
:10365000645D02E2642B3DD00401020E3CDA36D0F8
:103660007BDA73DA0001000E976F060E986F030E77
:10367000626F04017751781179117A1104E1000128
:10368000010E626F26D00001040E626F9B519C11E7
:1036900002E1000E03D0E6D901E0010E000919E1B4
:1036A00062DA87DA0001030E626F400E6D5F000E72
:1036B0006E5B6F5B705B400E0401775F000E785BA2
:1036C000795B58DA06D00401020E7B6F9BDA0001A9
:1036D000626B00016251120000016351020A01E1B4
:1036E00079D0060A5AE0070A2AE0020A1DE0010A18
:1036F00001E095D09FD922DAFEE176DA01E095D09B
:1037000032EC0CF000090DE064DA00018781878358
:1037100087858797270E916F926B50DA0001636B54
:1037200085D00001010E606FA451A51101E17CD08C
:10373000030E636F000E976F060E986F06DAD8803F
:10374000000E04017755000E7855000E7955000ED5
:103750007A5513E2000199519A1102E1000E03D04B
:103760007DD901E0010E000960E1FDD9E66A010E94
:1037700041DA0001040E636F10D032EC0CF0000946
:1037800009E027DA00018791878387958797270EBD
:10379000916F926B0001020E40D099519A1102E193
:1037A000000E03D05BD901E0010E00093EE16BD9A8
:1037B0006D5F01506E5B02506F5B0350705B63D9AD
:1037C0000401775F0150785B0250795B0350D2D9D6
:1037D000030E23D004017B511CE10001A651A71167
:1037E000A811A91102E1010E01D0000EE66E41D927
:1037F000EFEC0BF0006E070EE15E0050010809E0EF
:10380000640E0001645D02E2642B0FD00401010E1E
:1038100062D9A2D9A407A55B010E636F06D004018B
:10382000020E7B6FCBD90001636B00016351120064
:10383000000185918593859585978589858B858DF3
:10384000859F866B8791879387958797879B879DB1
:10385000879F886B896B8A6B8B6B0A0E8C6F8D6B65
:103860008E6B8F6B906B916B926B936B946B956B74
:10387000966B120017D9030EE126FB0EDBCF00F08A
:10388000FC0EDBCF01F0FD0EDBCF02F0FE0EDBCF36
:1038900003F0005001100210031006E1010EF36E58
:1038A000020EF3CFDBFF02D0020EDB6A0001A2059D
:1038B00003E1020EDB0416E024D9EE1815E16E5187
:1038C000EE1812E16F51EE180FE17051EE180CE195
:1038D0000BE1600504E12A0E615D06E003D02A0ECB
:1038E000615D02E1000E3CD00CD9EE5C6E51EE58E9
:1038F0006F51EE587051EE5804E2DE52010EDD6E4B
:1039000002D0010EDB6A020E605D12E12A0E615DDB
:1039100003E0020EDB500AE0A20511E0020EDB0418
:1039200003E0010EDB0402E1040E14D0050E12D0F8
:103930002A0E615D02E1030E0DD0A20502E1010E27
:1039400009D0020EDB0403E0010EDB0402E1020EEB
:1039500001D0030EDF6EDFCFE6FF0BD8E552DF505C
:10396000006E030EE15C02E2E16AE552E16E005096
:103970009ED098D8E65200019B519C1102E1000EA6
:1039800003D070D801E0010E000943E199519A116A
:1039900002E1000E03D062D801E0010E000939E116
:1039A00060C0DFFF6169626B636B6DC077F46EC0EE
:1039B00078F46FC079F470C07AF40BD90001030E6B
:1039C000606FFE0EDB507F0A16E07A0A10E0010AF3
:1039D0001AE0070A08E0010A19E0030A1AE10401E3
:1039E000020E7B6F16D00401020E7B6F0FD0040114
:1039F000020E7B6F08D01CDF00017BD8020EDF5C5B
:103A000005E1C4D803E0E66A010E02D0010EE66EBD
:103A100005D8E5524CD0E1D800501200E66E54ECC7
:103A200012F0E552E552120002C0E6FF03C0E6FFC5
:103A3000E2EF1DF076C0A9F077C0A8F078C0A7F03B
:103A400079C0A6F07BC0A5F07CC0A4F07CC000F0DB
:103A50007BC001F0026A036A090E1200CED8EF5053
:103A6000800B12009BC0E9FF9CC0EAFFEF50800B67
:103A70001200D1D8A6C0E6FFA7C0E6FFA8C0E6FFA7
:103A8000A9C0E6FF1200B9D8EE52EFCF00F0016AEC
:103A9000026A036A00501200E66EE66A6FDDE552C4
:103AA000E5521200D9CFE6FFE1CFD9FF1200E5526F
:103AB000E7CFD9FF120000017251EFEC7FF0F35015
:103AC00000019F13F450A013120040EC0DF09ED89B
:103AD000F350F41012007B6F000187818783879574
:103AE0008797916B926B1200F3CF99F0F4CF9AF015
:103AF00012008781879387858797200E916F926B3D
:103B00001200D950FB0FE96EFF0EDA20EA6E6D51FC
:103B100012007251EA6AA10FE96E000EEA22120049
:103B2000DF50EA6A000FE96E060EEA221200FD0E6F
:103B3000DBCF00F0FE0EDBCF01F01200D890003694
:103B4000013602360336E80612000401776B020ED6
:103B5000786F796B7A6B12000001A62B000EA723F9
:103B6000A823A9231200400EE66E97C0E6FF98C076
:103B7000E6FF12007A5B400E00019727000E9823A3
:103B80001200776B786B796B7A6B12006D516E1146
:103B90006F1170111200F3CF9BF0F4CF9CF0120064
:103BA000400EE66E500EE66E040EE66EE66A010EFC
:103BB0001200010EE66E2FDFCBEF1DF0E66A010E5C
:103BC0000EEF1DF057DEE552E552E552E5520009D1
:103BD00012000401010E7B6F1200E66E0EEC12F073
:103BE000006E050EE15E120000C0E6FF01C0E6FFB8
:103BF00014EF1DF010DF74EF1DF099C0E9FF9AC0BB
:103C0000EAFF1200010EE66E0EEF1DF0F3CF00F09A
:103C1000F4CF01F01200000EE66E060EE66E120002
:103C20004CEC23F0FB0EDBCFF3FFDB06F350000977
:103C30000AE09AEC23F0FA0E05EC24F0F3E1011C03
:103C4000F1E1010E01D0000E7BEF23F04CEC23F0EC
:103C50003B0EE12402E3E168E652E16E010EDB6A0D
:103C6000020EDB6AF90EDBCFF6FFFA0EDBCFF7FFB1
:103C7000FB0EDBCFF8FF0800F550DF6EDF5002E1EE
:103C80009FEF22F0250EDF5C02E092EF22F0030EA0
:103C9000DB6A040EDB6A050EDB6A060EDB6A070EC2
:103CA000DB6AB4EC22F02D0EDF5C0CE02B0EDF5C47
:103CB00009E0200EDF5C06E0230EDF5C03E0300E3F
:103CC000DF5C1AE1DF50300A14E0130A0FE0030A48
:103CD0000AE00B0A05E0060AE4E1030EDB80E1D707
:103CE000030EDB82DED7030EDB84DBD7030EDB861D
:103CF000D8D7030EDB88D5D72A0EDF5C1BE1B0ECEA
:103D000022F0FEEC22F010E0030EDB801D681E683E
:103D1000130EDBCF22F0140EDBCF23F001EC35F0D5
:103D2000040E1BC0DBFF03D0130EE7EC22F0B4EC53
:103D300022F00BD0090EDB6A55EC23F003E0C9EC4E
:103D400023F0FAD7090EE7EC22F0030EDBB0DB9884
:103D50002E0EDF5C1BE1B4EC22F02A0EDF5C0BE1DF
:103D6000B0EC22F0FEEC22F003E1130E39EC23F06C
:103D7000B4EC22F00BD0090EDB6A55EC23F003E023
:103D8000C9EC23F0FAD7090E39EC23F0680EDF5C9A
:103D900007E1B4EC22F0680EDF5C1DE1030E18D0E1
:103DA000740EDF5C17E07A0EDF5C14E0480EDF5C17
:103DB00006E0540EDF5C03E05A0EDF5C02E1020E07
:103DC00007D06C0EDF5C03E06A0EDF5C04E1010EDD
:103DD0008CEC23F0C9DBDF506E0A01E17FD31E0AB1
:103DE00001E192D1200A01E18FD13F0A01E149D1DD
:103DF0001A0A01E146D10D0A01E143D1200A01E18D
:103E000040D13A0A01E13DD1200A01E13AD1260A26
:103E100001E135D10D0A01E132D11A0A01E1D9D00F
:103E2000200A4AE0300A1FE0460A0EE0250A01E0B7
:103E300083D3D950F90FE96EFF0EDA20EA6E010E36
:103E4000EE5E000EEE5AEE5A9AEC23F0250EE66E68
:103E500095DB03E1011C01E169D396EC23F001E25B
:103E60006BD3DB2A69D3080EDB6A040EDB50010832
:103E700006E2040EDB045EEC23F0DB508BDB080E65
:103E8000DB5009E0030EDB50010B05E172DB01E0C2
:103E90004DD3080EDB6A64DBEFCFDFFF0EEC24F0BE
:103EA00003E1011C01E142D396EC23F001E3DB2A9C
:103EB00060DB01E141D33AD3070EDB5002080FE18A
:103EC000DAEC23F0030EA1EC23F00E0EEECFDBFFB5
:103ED0000F0EEECFDBFF100EEECFDBFF20D0F70E84
:103EE000DBCF03F0F80EDBCF04F0020E035E000E12
:103EF000045AF70E03C0DBFFF80E04C0DBFF03C05B
:103F0000E9FF04C0EAFF91EC23F0026A0E0E00C044
:103F1000DBFF0F0E01C0DBFF100E02C0DBFF0E0E39
:103F2000DBCFE6FF0F0EDBCFE6FF100EDBCFE6FFA9
:103F3000DBEC37F0E552E552E552130E1CC0DBFF17
:103F4000140E1DC0DBFF060EDB5005E0130ED5EC92
:103F500023F001E26ADBF9EC23F002E2130E37DB17
:103F6000BCEC23F006E0040ED5EC23F002E2050ED3
:103F70002EDB030EDBB005D0FCDA01E0D7D2080E51
:103F8000DB6A090EDB6A0E0EDBCFF6FF0F0EDBCF0E
:103F9000F7FF100EDBCFF8FF0800F550DF6EDF50A3
:103FA00014E0FFEC23F011E20EEC24F003E1011C1D
:103FB00001E1BCD2BBDB01E3DB2A090EDB2AD950CD
:103FC0000E0FE96E000ECBDBE7D7D3DA01E1B4D2F6
:103FD000ADD2C6DA110EEECFDBFF120EEDCFDBFF56
:103FE000110EDBCFE6FF120EDBCFE6FFCDEC37F094
:103FF000E552E552130EF3CFDBFF140EF4CFDBFFD7
:10400000060EDB5004E0130ED0DB01E20EDBF9EC10
:1040100023F002E2130EDBDAAFDB05E0040EC5DBB2
:1040200002E2050ED4DA030EDBB005D0A2DA01E01D
:104030007DD2080EDB6A090EDB6A110EDBCFE9FFC9
:10404000120EDBCFEAFFEFCFDFFFDF5014E0D7DB4C
:1040500012E2E4DB03E1011C01E168D267DB01E36A
:10406000DB2A090EDB2A110EDB2ADBCFE9FF120E59
:10407000E8E3DB2AE6D77DDA01E15ED257D2030E10
:10408000DB8E070EDB0410E195DB040E5ADB0A0E13
:10409000EECFDBFF0B0EEECFDBFF0C0EEECFDBFF28
:1040A0000D0EEECFDBFF6CD0070EDB5003082CE1CA
:1040B000030EDBAE0DD0B2DA020E76DAEFCF00F0EF
:1040C000016A026A036A00AE39D00168026835D01D
:1040D000F70EDBCF01F0F80EDBCF02F0020E015E2F
:1040E000000E025AF70E01C0DBFFF80E02C0DBFF24
:1040F00001C0E9FF02C0EAFFEFCF00F00A0E00C0E6
:10410000DBFF0B0EDB6A38D0070EDB50020809E13B
:10411000030EDBAE04D059DB02AE10D00ED055DB5F
:104120000DD0030EDBAE12D079DA020E3DDAF9DAE9
:10413000026A036A01AE02D002680368E2DA0C0E7A
:1041400002C0DBFF0D0E03C0DBFF1AD0F70EDBCF82
:1041500002F0F80EDBCF03F0020E025E000E035AEF
:10416000F70E02C0DBFFF80E03C0DBFF02C0E9FF61
:1041700003C0EAFFD6DAC5DA0C0EDB6A0D0EDB6A85
:10418000060EDB5005E1010EF36E050EF3CFDBFFEB
:10419000150EDB6A160EDB6AD950370F006E000E63
:1041A000DA20016E390E00C0DBFF3A0E01C0DBFFE2
:1041B000380EDB6A080EDB6A0A0EAEDADF50780AC8
:1041C00012E0200A10E0280A0CE0200A0AE03F0A68
:1041D00006E00D0A02E0200A08E1020E05D0080EF2
:1041E00003D0080EDF26100E97DA030EDBBE02D0D6
:1041F000DB92DB94DB50800B24E08ADAD890030E4C
:10420000EB50000A08E6000EEE5C000EEE58000EC1
:10421000EE58000EEE5815E213DA20682168226885
:10422000236832EC3AF00A0E17C0DBFF0B0E18C001
:10423000DBFF0C0E19C0DBFF0D0E1AC0DBFF2D0ECD
:1042400008D0030EDBA202D02B0E03D0DBA408D0D3
:10425000200EF36E170EF3CFDBFF150EDB2A02D014
:10426000170EDB6A050EDB5003E1B7D901E189D0F7
:10427000F00E006E780E016E000E026E070EDBCFA0
:1042800003F0046A056A066A03C020F004C021F046
:1042900005C022F006C023F0D3D998EC3BF00050C3
:1042A0001724F36E01501820F46E02501920F86E96
:1042B000F4CFF7FFF3CFF6FF0800090EF5CFDBFFD1
:1042C000580EDF5C0FE1610EF36E090E7BD90AE335
:1042D000200E006E090EDBCFE7FF0050E75E090EEF
:1042E000E7CFDBFF070EDBCF00F0016A026A036A4B
:1042F0000FDA00C020F001C021F002C022F003C09C
:1043000023F0EECF1BF0EECF1CF0EECF1DF0EFCF81
:104310001EF098EC3BF01EC0EDFF1DC0EDFF1CC071
:10432000EDFF1BC0EFFF390EDBCFE9FFDB063A0ED6
:10433000DBCFEAFF01E2DB06090EDBCFEFFF150E54
:10434000DB2A4BD995E1030EDBA61DD06F0EDF5C97
:1043500006E1C1D918E3150EDB285BDA14D0780E1C
:10436000DF5C09E0580EDF5C06E0620EDF5C03E014
:10437000420EDF5C08E1020EF36E160EF3CFDBFF98
:1043800002D0150EDB6A030EDB50100B0EE0040E9C
:10439000DBCF00F0050EDB50D880005406E2060E9D
:1043A000DB5003E1040EDB5034DA95D90AE2050E46
:1043B000DBCFE7FF150EDB50E75E050EE7CFDBFF37
:1043C00002D0050EDB6A040EDBCF00F0160E45D9D5
:1043D000D880005414E2160EDBCFE6FF150EDBCFBB
:1043E000E6FF040EDBCFE6FF050EDB50E552E75C8F
:1043F000E552D880E754E552D880E7545FD9030EE0
:10440000DB50010B0BE1080EDB5008E0B2D801E0F5
:104410008DD0080EDB50BED8080EDB6A170EDB50BD
:1044200007E088D9170EF1D903E1011C01E17ED024
:10443000160EDB5016E07ED9300EE66E9FD802E1F4
:10444000011C74E077D9DFCFE6FFF0EC39F0E552DC
:10445000E552E552F4CF01F00001F31C02E1011C2A
:1044600065E0050EDBCF00F0160EDB50D88000545F
:1044700009E2050EDBCFE7FF160EDB50E75E050E07
:10448000E7CFDBFF300EE66E050ECBD94FE1390EDC
:10449000DB2ADBCFE9FF3A0E01E3DB2ADBCFEAFFC1
:1044A000090EEFCFDBFFDB500EE044D9090EADD98A
:1044B00002E1011C3BE0390EDB2ADBCFE9FF3A0EBB
:1044C000EDE3DB2AEBD755D831E1160EDBCFE6FF63
:1044D000080EC3D8E552E7245DD82ED0070EDB5076
:1044E000030A1CE0010A14E0030A07E07BD9DBCFD2
:1044F000EEFF020EDBCFEDFF1FD0F5D8056A03AE4D
:1045000002D0046805682CD8BCD805C0EEFF14D0D2
:10451000EAD803BE046824D8B4D80ED063D9DBCF60
:10452000EFFF0AD07BD905E1011C03E1F368F468D1
:1045300010D0FCD801E3DB2A79D93BEF1EF0010E45
:10454000DBCF00F0020EDBCF01F000C0F3FF01C0B3
:10455000F4FF3B0EE15C02E2E16AE552E16ECBD092
:1045600029D9020EA1EF23F061D90800F550DF6EC2
:104570001200200EE66E080E11EF24F0F0EC39F078
:10458000E552E552E552F3CF00F0F4CF01F000011F
:10459000F31C1200006E016AD950010F4DD9005072
:1045A000EE260150ED221200045E000E055AF70EB1
:1045B00004C0DBFFF80E05C0DBFF04C0E9FF05C047
:1045C000EAFF1200DBCFF4FFF350F45C1200DB5083
:1045D000E76E040EE7CFDBFF12000A0EDBCF00F020
:1045E0000B0EDBCF01F00C0EDBCF02F00D0EDBCF9C
:1045F00003F000500110021003101200130EEECF52
:10460000DBFF140EEDCFDBFF130EDBCF00F0140E3B
:10461000DBCF01F00001800E01141200F70EDBCF9A
:1046200004F0F80EDBCF05F01200050EDB50E66E4D
:10463000D950130F01D9E552E750EE6EED6A120022
:104640000A0EDBCF1BF00B0EDBCF1CF00C0EDBCF0A
:104650001DF00D0EDBCF1EF01200DBCFE6FF150EB6
:10466000DBCFE6FF050EDB50E552E724E552E724F9
:104670001200DB50CED8010EF36E060EF3CFDBFF37
:104680001200EE50EFCFEAFFE96E02C0EEFF03C06A
:10469000EEFF04C0EEFF1200D9CFE6FFDACFE6FF4F
:1046A000E1CFD9FFE2CFDAFF1200DFCFE6FFE66A03
:1046B0001EEC3CF0E552E552F3501200E76E080E96
:1046C000E7CFDBFF1200EECF00F0EECF01F0EFCF2F
:1046D00002F0036A1200050EDBCF00F0150EDB506E
:1046E000D88000541200010EDBCF02F0020EDBCFA7
:1046F00003F0046A1200E552E5CFDAFFE7CFD9FFF5
:1047000012000A0E00C0DBFF0B0E01C0DBFF12001F
:10471000D9500A0F1CEF24F0F36E070EF3CFDBFF26
:104720001200EECF00F0EFCF01F01200010EDB2AF5
:10473000020E1200FC0EDBCFE6FFFD0EDBCFE6FF24
:104740001200005E000E015AF70E00C0DBFFF80EEB
:1047500001C0DBFF00C0E9FF01C0EAFF1200DA2060
:10476000EA6EEF2AEECFF6FF000EEF22EECFF7FF54
:10477000EF22EECFF8FF1200040EDBCFE6FF130EA0
:10478000DB50E552E75C9ADFDB5004DF060EDB50BE
:104790001200090EDB500A0DF350DF24D00FE76E34
:1047A000090EE7CFDBFFB4EF22F0DB50F36E050E0E
:1047B000E2EF22F0F70EDBCF00F0F80EDBCF01F0D6
:1047C0001200DFCFE6FFBEEF22F028DF030EECDEA3
:1047D00063EF23F010EC1EF0E552E552E552E5528E
:1047E00000091200BDDEEE50EFCFEAFFE96E010EC8
:1047F0001200130EDB50F36E040EE2EF22F0040EF3
:10480000DB50F36E090EE2EF22F0DBCFE6FFBEEFE6
:1048100022F0E76E050EE7CFDBFF12008BDFE1EF42
:1048200023F0DBCFE6FF86DFEAEF23F0D950F90F64
:10483000E96EFF0EAFEF23F0E96E000EDA20EA6EAC
:02484000120064
:0E4842000300120018EF39F01200120002EC11
:1048500018F018EF2BF012001E0EE66E010EE66E39
:10486000EAEC11F0E552E552D0EC17F06AEF2BF0CC
:1048700065840A01080E4B6F070E4C6F4B07000E44
:104880004C5B4B514C11FAE165941200D9CFE6FF15
:10489000E1CFD9FFFD0EDBCF1DF0FE0EDBCF1EF00A
:1048A000720E1D1801E11E5033E0E8681D1802E188
:1048B0007F0E1E182BE0740E1D1801E11E5024E01F
:1048C000750E1D1801E11E501DE0730E1D1801E14B
:1048D0001E5016E0030E1D1801E11E500FE0020EDF
:1048E0001D1801E11E5008E0010E1D1801E11E50C7
:1048F00001E010D0B1DF0FD0AEDF0DD0A8DF0BD0BC
:10490000A4DF09D09EDF07D09EDF05D09FDF03D054
:10491000000001D000D0010E00D0E552E7CFD9FF52
:104920001200D880000E0E010055C20E0155010E76
:104930000255000E035501E2120000CE88FE01CEA2
:1049400089FE02CE8AFE03CE8BFE1200DACFE4FF90
:10495000E2CFDAFFE9CFE4FFEACFE4FFF6CFE4FFEE
:10496000F7CFE4FFF8CFE4FFF5CFE4FFF3CFE4FFA8
:10497000F4CFE4FFFACFE4FFFBCFE4FF00EE15F045
:10498000140EE80403E3EECFE4FFFBD700EE00F0E3
:10499000150EE80403E3EECFE4FFFBD7E6529D508B
:1049A000010B07E09E50010B04E09D909E90CD907E
:1049B0000AD0F050080B05E0F050010B02E0F09631
:1049C00002D05AEC11F0E55200EE14F0150EE80496
:1049D00003E3E5CFEDFFFBD700EE28F0140EE8046B
:1049E00003E3E5CFEDFFFBD7E5CFFBFFE5CFFAFF14
:1049F000E5CFF4FFE5CFF3FFE5CFF5FFE5CFF8FF17
:104A0000E5CFF7FFE5CFF6FFE5CFEAFFE5CFE9FF1A
:104A1000E5CFDAFF1100D8CFE4FFE0CFE4FFE46E8A
:104A2000DACFE4FFE652E552E5CFDAFFE550E5CF15
:104A3000E0FFE5CFD8FF100004D890EC12F034D896
:104A4000FED718EC39F00F01496949CF48FF956A44
:104A50009368D08EF28EF29C550EA76EAA0EA76EAA
:104A60000E01FF91090ECC6F0A0ED36F170EFB6F6C
:104A7000050EE76F550EA76EAA0EA76EFF8106EC16
:104A800011F027EC33F045EF25F00801006BA0DAB8
:104A90009FDA9EDA9DDA90DA90EC30F0DEDAF9DA1D
:104AA000D7DAF2DAEDEF2EF01AD80801005102E061
:104AB00070EF25F0200E0101E76E3E19E8AE02D03E
:104AC000E73402D0E7503E5D09E36550020B01E098
:104AD000120067EC2CF04DEC18F0AAD8120012006E
:104AE0000101AD5115E174DA11EC39F00101010E4B
:104AF000AD6F000E956E946E936E819427EC33F03B
:104B00005BDA300E0A010E5D0101AC6F44EF28F054
:104B100051EC32F0000940E08A909FDA9CEC30F0D2
:104B2000E552E5529ADA2AEC31F0E552E5521BC023
:104B300006F81CC007F81DC008F81EC009F867DA9F
:104B4000F3CF00F0F4CF01F0030ED8900132003221
:104B5000E804FBE100C001F0006A0101A95108016D
:104B600000100A6F01C00BF80C6B0D6B31EC32F0CA
:104B7000060EE96E080EEA6EEE500A012E5DEE504A
:104B80002F59EE503059EE50315951E281EC2AF054
:104B900014EC08F059EF39F044EC32F0000941E030
:104BA000310E0A01145D24E1390EE66ED1EC28F0D5
:104BB000E5521F0B000819E205DA75EC32F0000926
:104BC00004E10CDA02E068EC32F044EC32F0000967
:104BD00001E028DA5AEC32F0000902E068EC32F029
:104BE0003CEC32F00009E0E0120054EC39F019D04E
:104BF000E9D975EC32F0000904E1F0D902E068EC83
:104C000032F044EC32F0000906E00CDA240EE66ED5
:104C10003AEC39F0E5525AEC32F0000902E068EC67
:104C200032F03CEC32F0000902E032EC33F01200DA
:104C3000D9CFE6FFE1CFD9FF050EE126E66AFFEC0A
:104C40002EF0E55200090FE0810EE66E770EE66E5B
:104C5000000EE66E780EE66E770EE66E000EE66EDD
:104C600009EC2FF06AD0690E9CD923E00A0E0101ED
:104C7000AA1901E1AB5101E175D0320EAA1901E187
:104C8000AB5111E0500EAA1901E1AB510AE0640EDC
:104C9000AA1901E062D1AB5101E05FD190EC30F094
:104CA0005CD167D94AD0C4D997EC2FF0E552E552D0
:104CB0000DD1740E76D908E09BD901E14ED19DD972
:104CC000E8D9006E060E45D1540E6BD911E090D98B
:104CD00001E143D192D92AEC31F0E552E5521BC0F3
:104CE0002EFA1CC02FFA1DC030FA1EC031FA33D183
:104CF000720E57D93AE00A0E0101AA1901E1AB512F
:104D000031E0320EAA1901E1AB511AE0460EAA19A0
:104D100001E1AB5111E0500EAA1901E1AB510AE0DB
:104D2000640EAA1901E019D1AB5101E016D14AD99C
:104D30008A9013D16CD911D123D9006E060EBCD044
:104D400091D9A9C1E6FF32CAE6FF33CAE6FF36CAE7
:104D5000E6FF35CAE6FF34CAE6FFAEEC2FF0006E80
:104D60000A0EAAD0DFEC2FF0F8D0730E1AD91FE08C
:104D7000010E0101AA1901E1AB5110E0050EAA19BB
:104D800001E1AB5101E1E9D00A0EAA1901E0E5D039
:104D9000AB5101E0E2D0EBEC2FF0DFD0656A0F0100
:104DA000366B01013E6B0801010E006FD6D0660E16
:104DB000F8D801E184D00101460ED880AA55000E32
:104DC000AB552BE2AA0EAA5D000EAB5926E2DCD849
:104DD00019C000F01AC001F019501A101EE15FD975
:104DE000080E005E000E015A00C0E6FF01C0E6FF9B
:104DF000DED827D9E66ADBD852D9026A036A1DC019
:104E0000E6FF1EC0E6FF02C0E6FF03C0E6FFEFECD0
:104E10000BF0046E070EE15E0450010E0101AA19A9
:104E200001E1AB5101E197D00A0EAA1901E1AB51A2
:104E300038E00F0EAA1901E1AB512AE0C80EAA19F9
:104E400001E1AB511EE0D20EAA1901E1AB5115E010
:104E5000DC0EAA1901E1AB510BE0E60EAA1901E044
:104E60007CD0AB5101E079D0A2D832EC2DF02ED01D
:104E7000010EE66E9CD8E66A18D099D871EC2DF038
:104E800025D0E66A94D8E00EE66E010EE66E0ED0EE
:104E9000090EE66EE66A8BD8D4D889D858EC2EF085
:104EA00015D0E66A84D8110EE66EE66AE66AE66A0E
:104EB000EFEC0BF0006E070EE15E00504ED0750E69
:104EC00070D807E079D8F8D8F1EC2FF0E552E55228
:104ED00044D0770E66D841E0140EE66EEDD8E5D8E2
:104EE0003CE00A011A6B06CAE6FF07CAE6FF08CAD9
:104EF000E6FF09CAE6FF0ACAE6FF0BCAE6FF0CCACC
:104F0000E6FF0DCAE6FF94D8B6D816CAE6FF17CA60
:104F1000E6FF18CAE6FF19CAE6FF1ACAE6FF1BCA6F
:104F2000E6FF1CCAE6FF1DCAE6FF1ECAE6FF1FCA4F
:104F3000E6FF20CAE6FF21CAE6FF22CAE6FF23CA2F
:104F4000E6FF24CAE6FF25CAE6FFA9EC39F0006EA9
:104F5000200EE15E0050D9EC2FF0F4EC2EF0050E9F
:104F6000E15C02E2E16AE552E16EE552E7CFD9FF8A
:104F700012000E0EE66E0A0EE66E7DD89CEF29F04A
:104F800071D86BD8E8EF30F0AAC100F0ABC101F0E6
:104F90000A0E226E236AAAC11DF0ABC11EF008EFF3
:104FA0003CF0E66EFFEC2EF0E55200091200060E12
:104FB000E66E080EE66E12007FD8CAEC39F0E552B4
:104FC000E55212007ED8ECEC28F0E552E5521200D2
:104FD000FA0EE66EF1EC3BF0E5521200ACC1E6FFD2
:104FE00070D89BEC32F0E552E552E5520009120010
:104FF000060EE66E32D855EF28F02ACA2DFA2BCAD3
:105000002CFA29CA2AFA27CA29FA2DEF28F082ECAD
:105010003AF0F3CF32FAF4CF33FA0101640EA96FFC
:105020008A8012004ED87DEC32F0E552E552120033
:105030000ECAE6FF0FCAE6FF10CAE6FF11CAE6FF76
:1050400012001FEC2EF0E552E552E552E552120037
:10505000006E060EE15E00501200260EE66E0A0E8D
:10506000E66E1200A00EE66E010EE66E950EE66E7E
:10507000010EE66E120012CAE6FF13CAE6FF14CA5A
:10508000E6FF15CAE6FF12006AEC3AF072DF28EF7D
:1050900028F0BDEC30F0E552E552C0EF27F074DFA8
:1050A0001DC000F01EC001F0120000EC30F0E5520F
:1050B000E552E55200091200060EE66E0A0EE66E93
:0C50C0001200340EE66E0A0EE66E1200BE
:0450CC00D9CFE6FF53
:1050D000E1CFD9FF0A0EE66E2C0EE66E48D8E552F7
:1050E000E5520000E66A380EE66E41D8E552E55218
:1050F0000000FE0EDBCFE6FF240EE66E38D8E55248
:10510000E552F00EE66E270EE66E31D8E552E55216
:10511000100EE66E2E0EE66E2AD8E552E552E552E6
:10512000E7CFD9FF120053DAFE0EDBCFE6FF2A0EDF
:105130000DDAFD0EDBCFE6FF1D0E08DAFC0EDBCF2D
:10514000E6FF210E03DAFB0EDBCFE6FF220EFED9CF
:10515000FA0EDBCFE6FF230EF9D9200EE66E2E0EF7
:10516000F5D93AD2300EE66E1CD8E5521200D9CFEE
:10517000E6FFE1CFD9FF8B9E828C0000000000008B
:10518000A49EFE0EDB50756EA4AEFED7A49EFD0E4F
:10519000DB50756EA4AEFED78B8EE552E7CFD9FFFC
:1051A0001200D9CFE6FFE1CFD9FF8B9E828C0000A1
:1051B00000000000A49EFE0EDB508009756EA4AEB8
:1051C000FED7A49E756AA4AEFED78B8E755000D014
:1051D000E552E7CFD9FF1200D9CFE6FFE1CFD9FFE3
:1051E0008B9E828C000000000000A49EF20E756E63
:1051F000A4AEFED7A49E756AA4AEFED7A49E756A1F
:10520000A4AEFED7FD0EDBCFE9FFFE0EDBCFEAFF3B
:1052100075CFEFFFFD0EDBCFE9FFFE0EDBCFEAFF20
:10522000EF7EA49E756AA4AEFED7A49E756AA4AE56
:10523000FED7FD0EDBCFE9FFFE0EDBCFEAFFEE521D
:1052400075CFEFFFFD0EDBCFE9FFFE0EDBCFEAFFF0
:10525000EE52EF7EA49E756AA4AEFED7A49E756A38
:10526000A4AEFED7FD0EDBCFE9FFFE0EDBCFEAFFDB
:10527000020EE926000EEA2275CFEFFFFD0EDBCF0E
:10528000E9FFFE0EDBCFEAFF020EE926000EEA225E
:10529000EF7E8B8EE552E7CFD9FF120098D9FD0E35
:1052A000DBCFE6FFFE0EDBCFE6FF96DFE552E552F1
:1052B00045D9640E036E236E00C01EF07CD9ACD9B4
:1052C0005AD901C01EF047D905C01EF06CD9010E95
:1052D00087D900C01EF075D9020EA5D9030E94D946
:1052E00001C01EF068D9040E22D945D902C01EF0B3
:1052F00032D906C01EF057D9050E72D901C01EF072
:1053000060D9060E90D9070E7FD902C01EF053D97E
:10531000080E0DD930D903C01EF01DD907C01EF0EC
:1053200042D9090E5DD902C01EF04BD90A0E7BD9B5
:105330000B0EFDD8EF6A50D14AD9050EE126828CBA
:10534000736A728E729C729A72987296729472924A
:105350007290739C94949396958C949E7288728AA2
:10536000E66A2E0EF3D8E66A380EF0D8040EE66E22
:105370002D0EECD8FB0EDB50330A0CE0010A08E0DE
:10538000030A04E0010A08E1DF6A08D0010E05D033
:10539000020E03D0030E01D0010EDF6EFC0EDB50B7
:1053A000390A2AE0010A25E00F0A20E0010A1BE081
:1053B000030A25E0010A14E0070A0FE0010A0AE0E7
:1053C000030A05E0010A1BE1010EDB6A1BD0DE5275
:1053D000060E17D0DE52070E14D0DE52080E11D082
:1053E000DE52090E0ED0DE520B0E0BD0DE520C0E2A
:1053F00008D0DE520D0E05D0DE520E0E02D0DE5267
:105400000A0EDD6EFD0EDB50330A0BE0010A07E0E9
:10541000030A03E0010A0BE10AD05F0E03D09F0EDE
:1054200001D0DF0EF36E020EF3CFDBFF02D0020ECF
:10543000DB6AFE0EDB50330A11E0010A0CE0030ABE
:1054400003E0010A16E115D0100EF36E030EF3CF40
:10545000DBFF040E11D0030EDB6A05D0100EF36ED5
:10546000030EF3CFDBFF100EF36E040EF3CFDBFF62
:1054700004D0040EDB6A030EDB6A040EDF10E66E56
:10548000310E64D8030EDBCFE6FF010EDB50E55290
:10549000E710E66E2C0E5AD8020EDBCFE6FF380E70
:1054A00055D8FD0EDB5031080CE19384F18AF08C65
:1054B000F090F086020EE66E2E0E48D8E66A2F0EA9
:1054C00045D8040EDB502809E66E2D0E3FD82D0E70
:1054D000E66E5FD8E552E750EF6E310EE66E59D8B2
:1054E000010E84D8E66A55D8020E80D8E66A51D8F3
:1054F000030E7CD8050EE15C02E2E16AE552E16E42
:105500006BD0F096E66A2E0EE66E31DEE552E5527D
:10551000E66A380EE66E2BDEE552E552040EE66EC4
:105520002D0EE66E24DEE552E55200001200E76E15
:1055300073D8E750E926000EEA2212005ED8EECFBB
:1055400000F0EECF01F0EFCF02F01200E66E0FDEBA
:10555000E552E55212005CEC3CF01E50300F006E3C
:105560004CD8EECF05F0EECF06F0EFCF07F0640E8B
:10557000086E236E1200E552E750EF6E3ED8EECF74
:1055800001F0EECF02F0EFCF03F00A0E046E236EAF
:10559000120007DEE552E66EF90EDBCFE9FFFA0EE8
:1055A000DBCFEAFF12005CEC3CF01E500A0DF3501A
:1055B000005CE66E12005CEC3CF01E50300FE66EB4
:1055C00012005CEC3CF01A50300FE66E1200D9CF9E
:1055D000E6FFE1CFD9FF1200E552E7CFD9FF120075
:1055E00022D8ACDF0A0E036E236E1200E926000EED
:1055F000EA22E552E750EF6E1200FD0EDBCFE9FF25
:10560000FE0EDBCFEAFF120092DF2C0EEF6E96DF6C
:10561000640E036E236E1200FB0EDBCFE9FFFC0E5F
:10562000DBCFEAFF120083DFE552E750EF6E120096
:10563000040140511F0B010801E012004051600BB2
:10564000E842E842E842E842E842010801E012008C
:10565000440503E0440501E012004151220A35E00F
:10566000030A28E0010A15E0210A0DE0010A01E021
:1056700012000101A20E576F0E0E586F080E5B6FDD
:105680005C6B5A8125D00101A20E576F0E0E586F28
:105690001FD046C460F147C461F10101000E5D6F87
:1056A0000E0E5E6F220E626F490E636F000E646F06
:1056B0005F8F12000101880E576F0E0E586F070E94
:1056C0005B6F5C6BC10E5A6F120042C49DFE0101FC
:1056D0005A8F12000E01886B4B0E896F8A6B8B6B91
:1056E0008C6B8D6B080E8E6F8F6B1A0EE66E020E32
:1056F000E66EEAEC11F0E552E5521E0EE66E030E80
:10570000E66EEAEC11F0E552E55259D90E019B6BB9
:105710009C6B906B120068D97BD9050E1D1801E1B6
:105720001E5002E0000E14D07AD90E0199510018D3
:1057300004E19A51011801E142D971D90E019B513E
:10574000001805E19C51011802E1906B976B010E66
:1057500050D14AD90E018F6B99519A1102E1000E76
:1057600005D072D9EF50800B01E0010E00092DE148
:10577000FC0EDBCF00F068D9EE52EF50D880005419
:1057800005E262D9EE52FC0EEFCFDBFF8F6BFC0E11
:10579000DB508F5D19E28F51EA6A080FE96E0E0E39
:1057A000EA22EF50E66E8F51E76EFD0EDBCFE9FF88
:1057B000FE0EDBCFEAFFE750E926000EEA22E552B3
:1057C000E750EF6E8F2BE3D7FAD80E018F5111D12E
:1057D0000BD9A0980E01905107E128D9FC0EDBCF20
:1057E00097FE010E986F906FA08803D1FDD8030E2D
:1057F000E126A0980E0190511EE1DF6A09D9DE5220
:105800001DC0DEFF1EC0DDFFDD5217D902E10150D1
:105810000BE0010EDBCFE9FFDB2A020EDBCFEAFF54
:1058200001E3DB2AEF50F1E101D9DFCF97FE0E0152
:10583000010E986F906FA088030EE15C02E2E16AAE
:10584000E552E16ED6D0D0D8040EE126A0980E0124
:10585000905135E1DF6AD950FC0FE96EFF0EDA2076
:10586000EA6E010EEECFDBFF020EEECFDBFF030E82
:10587000EECFDBFFE2D802E1015012E0D950010F78
:10588000E96EDACFEAFFEFCFF6FFEE2AEFCFF7FFB0
:10589000000EEE22EFCFF8FFEE220800F550EAE10D
:1058A000FC0EDBCF91FEFD0EDBCF92FEFE0EDBCFBA
:1058B00093FEDFCF97FE0E01986B010E906FA088CC
:1058C000040EE15C02E2E16AE552E16E92D08CD80E
:1058D000020EE126A0980E019B519C1102E1000EE0
:1058E00008D09BCEE9FF9CCEEAFFEF50800B01E091
:1058F000010E000906E1030E905D01E1906B9051ED
:1059000002E1A08855D0020E905D09E1E66A000E22
:10591000E66EE66A61D80E01030E906F48D09005DE
:1059200046E1400E006E016A9751005C000E01587E
:1059300003E2400EDF6E02D097CEDFFFDF50975DAF
:10594000976F480E946F0E0E956F010EDFCFDBFF41
:10595000985110E1010EDB5019E091CEF6FF92CE86
:10596000F7FF93CEF8FF0800F55047D89323010EB8
:10597000DB06F0D7010EDB5009E091CEE9FF92CEB5
:10598000EAFFEF503AD8010EDB06F4D70E0197512B
:1059900007E1400EDF5C02E1020E01D0030E906FC2
:1059A000DFCFE6FF480EE66E0E0EE66E15D8A08835
:1059B000020EE15C02E2E16AE552E16E1AD0400EAD
:1059C000E66E080EE66E0E0EE66EE66A42D8F3CF7D
:1059D00099FEF4CF9AFE1200010EE66E3AD8F3CF8C
:1059E0009BFEF4CF9CFE1200D9CFE6FFE1CFD9FF9A
:1059F0001200E552E7CFD9FF120094CEE9FF95CE11
:105A0000EAFFEF6E942B000E9523912B9223120048
:105A1000FD0EDBCF1DF0FE0EDBCF1EF01200FB0EE5
:105A2000DBCF00F0FC0EDBCF01F01200FD0EDBCF70
:105A300091FEFE0EDBCF92FE1200DF2ADF50006ED9
:105A4000016AFF0E0018120099CEE9FF9ACEEAFF14
:105A50001200030EE66E0EEC12F0006E050EE15E13
:045A600000501200E0
:0C5A640079D9020EE126DE6ADD6ADE6AF6
:105A7000DD6ADECF00F0DDCF01F03E0E005C000EEF
:105A800001580AE284D9DE50E924E96EDD50EA20AB
:105A90006CD9EFE3DB2AEDD73E0EDE6EDD6ADECF9A
:105AA00000F0DDCF01F0400E005C000E015812E264
:105AB0006ED9DECF02F0DDCF03F0C00E0226010E5C
:105AC0000322E9500224E96EEA5003204ED9E7E3AD
:105AD000DB2AE5D7020EE15C02E2E16AE552E16E03
:105AE00040D13AD9040EE126DE6ADD6A020EDB6A95
:105AF000030EDB6A0401FE6BFF6B400EFE5D000EC1
:105B0000FF590DE27C0EFE25E96E040EFF21EA6EC0
:105B1000EF50E66ED6D815D9000EFF23EED7020E51
:105B2000DE6EDD6A010EF36E020EF3CFDBFF030EB5
:105B3000DB6A020EDBCF00F0030EDBCF01F00F0EAD
:105B4000005C000E015872E2E0D81BC0FEF41CC0DD
:105B5000FFF4200E0401FE27000EFF23010EE76E66
:105B6000020EDBCF02F0030EDBCF03F0E75002267C
:105B7000000E0322200E1D6E1E6A02C022F003C01A
:105B800023F09AEC34F01BC000F01CC001F0200E92
:105B90000026000E012204010050FE5D0150FF5955
:105BA00011E2B3D804011B50FE5DE96E1C50FF5991
:105BB000EA6E7C0EE926040EEA22EF50E66E07D963
:105BC000C0D8CAD7ADD81DC004F01EC005F0D4D8C7
:105BD000240EE9D8A5D819C004F01AC005F0CCD815
:105BE000250EE1D8320EDE26000EDD22DECF06F0D5
:105BF000DDCF07F007C006F0076A63D869D8050E45
:105C0000025E000E035A96D806C0EFFF5AD860D83D
:105C1000060E025E000E035A8DD8DFCFEFFF020E94
:105C2000DB2A030E01E285D7DB2A83D7C3D8EF6EC8
:105C3000040EE15C02E2E16AE552E16E92D08CD89A
:105C40000401FE6BFF6B000EFE5D010EFF592FE29B
:105C50001D6A010E1E6EFB0EDBCF22F0FC0EDBCFA9
:105C600023F09AEC34F00401FE511B24026EFF5124
:105C70001C20036E010E0226000E0322A8D8020E7D
:105C80001D6E1E6AFEC422F0FFC423F09AEC34F0AD
:105C900000501B24E96E01501C20EA6E02C0EEFF8A
:105CA00003C0EDFF0401FE2B000EFF23CCD759D01B
:105CB00053D807D8E926010EEA22EF687BD8EF68AF
:105CC00050D0FD0EDBCFE9FFFE0EDBCFEAFF120066
:105CD000E9CF00F0EACF01F0010EE76E71D8E7508E
:105CE0000426000E0522200E1D6E1E6A04C022F03E
:105CF00005C023F09AEC34F01BC002F01CC003F086
:105D0000200E0226000E03221200200E1D6E1E6AB7
:105D1000020EDBCF22F0030EDBCF23F09AEF34F03C
:105D20004FD80A0E226E236A04C01DF005C01EF073
:105D300008EF3CF000500224E96E01500320EA6EA7
:105D40001200E950FE25E96EEA50FF21EA6EE552A5
:105D5000E750EF6EFE2B1200D9CFE6FFE1CFD9FF5F
:105D60001200E552E7CFD9FF1200EA6EE552E75084
:105D7000EF6EDF2A010E1200300E0426000E0522FF
:105D800026D8C3DF1BC002F01CC003F01200DECF18
:105D9000E9FFDDCFEAFFBC0EE926040EEA22EF5050
:105DA000E66E61EF2EF00226000E0322C3DF04C070
:105DB000EFFF120086DFFF0EE926010EEA22120035
:105DC000020EDBCF04F0030EDBCF05F0120079DF0B
:0A5DD000E9CF00F0EACF01F0120065
:065DDA00000E0001FE6F47
:105DE0000101AA6FAB6B12000101AA51AB1104E0D3
:105DF000AA07000EAB5B12000001FE6B120064D913
:105E0000FE0EDB500001FE5D02E1010E01D0000E2E
:105E100083D15AD9E6520E0190513FE15AD93DE063
:105E2000DF50770A34E0020A30E01C0A2CE00F0A47
:105E300028E0590A24E0490A0AE0050A26E0010A96
:105E400022E0260A02E0200A28E1070E21D0F90EFE
:105E5000DBCFE6FFFA0EDBCFE6FFFB0EDBCFE6FF84
:105E6000FC0EDBCFE6FFFD0EDBCFE6FFFE0EDBCF49
:105E7000E6FF15D8006E060EE15E00500ED051D838
:105E80000CD0FA0E05D0690E03D0370E01D0150ED6
:105E90000101AA6FAB6BDFCFFEF0E5523DD114D903
:105EA000E652DF6ADFCF00F0080EE76E0018E8AEBA
:105EB00002D0E73402D0E750005C0FE2DFCF00F001
:105EC000016A026A00AE02D001680268D950FC0F74
:105ED000D0D8E9BEEA680AD9E5D70101200E086FDB
:105EE000090EDF6EDFCF00F0100EE76E0018E8AE8F
:105EF00002D0E73402D0E750005C10E2090EDF5C0C
:105F0000006E016A026A00AE02D001680268D950D0
:105F1000F90FAFD8E9BEEA68E9D8E4D7100EC8D8BF
:105F2000FBD0A80EE66E750EE66E000EBAD0CCD889
:105F3000FD0EEED8FC0EECD8FB0EEAD81B0EE66E7A
:105F4000770EE66E000EDBD80B0EE15E005001010D
:105F50000E6B0F0EADD8E7CFD9FF1200B5D8F50EF6
:105F6000DBCFE6FFF60EDBCFE6FFF70EDBCFE6FF7B
:105F7000F80EDBCFE6FFF90ECBD8FA0EDBCFE6FF4B
:105F8000FB0EDBCFE6FFFC0EC3D8FD0EC1D8FE0E24
:105F9000BFD8E80EE66E760EE66E000EB0D8130E91
:105FA000E15E005001013D6B3E0E82D8E7CFD9FF84
:105FB0001200A20EE66E750EE66E000E72D0A50EF1
:105FC000E66E750EE66E000E6CD0D20EE66E750EA5
:105FD000E66E000E66D0E30EE66E750EE66E000EFF
:105FE00060D072D8FD0EDBCFE6FFFE0EDBCFE6FF02
:105FF000F6EC2BF0E552E5520101AA6BAB6B8CD0AD
:1060000063D8E6520E0190512EE163D82CE00101D5
:10601000000ED880AA55000EAB551DE2FC0EDB50D9
:10602000006E016AAA51005CAB51015814E3FC0EEA
:10603000DB50026E036AAA51025C006EAB5103583A
:10604000016EFD0EDB500024E96EFE0EDB500120D8
:10605000EA6EDFCFEFFFAA07000EAB5BAA51AB11D0
:1060600002E1010E04D00101AA2B000EAB23E55280
:1060700053D0E96EFF0EDA20EA6EEE500024F36E84
:10608000EE500120F46EEE500220F86EF4CFF7FFD0
:10609000F3CFF6FF0800F550E66EDFCFE9FFEA6ABE
:1060A0001200E66E23EC2CF0E552E552E5521200A8
:1060B000E66E000EE66E010EE66EE8EC2BF0E552A1
:1060C000E552E552E5521200D9CFE6FFE1CFD9FF04
:1060D0001200010EE66ED9CFE6FFDACFE6FFA9EC9B
:1060E0002BF0E552E552E55200091200000EE926B8
:1060F000010EEA22E552E750EF6EDF2A1200E66E4B
:10610000000EE66E010EE66E6CEC38F0006E1200CA
:10611000DBCFE6FFE66A1200E552E7CFD9FF1200B7
:10612000CD86A490010EE66EE2D8E5520F013F8FB6
:10613000E66ADDD8E55212003AD9030E0F013F138B
:1061400066D9E552E750EF6EFFD8EE5299CFEFFFD8
:106150005ED9020E4ED965D9030E4BD958D9040E1B
:1061600048D9F2D8050E72D999CFEFFF50D9060E53
:1061700040D957D9070E3DD91FD119D9010EE66E66
:10618000B6D8E552030E0F013F13DED8EF50E66E8E
:10619000CED8E552986ED8D8EE52EF50996ED4D83A
:1061A000020E46D9030EEAD8996ECED8040E40D915
:1061B000050E4CD9EF50996EC7D8060E39D9070E87
:1061C000DDD8996EE66A93D8E552F6D0D2EF31F079
:1061D000EED8FD0EDBCFE6FFFE0EDBCFE6FFACDF39
:1061E000E552E552B1D8040E16D9F90EDBCFE9FF1E
:1061F000FA0E25D9040E12D9010EF0D8070E0BD9CC
:10620000030EECD8070E0AD9040EE8D8060E03D9FF
:10621000060EE4D8060E02D9070EE0D8020EFBD80F
:10622000FB0EDBCFE9FFFC0E0AD9020EF7D8010EF8
:10623000DDD8030EF0D8030ED9D8030EEFD8040E24
:10624000D5D8DCD8BDD8080ED1D8D8D8BDD8090E3D
:1062500001D9B2D0ACD8040EE12676D8060EF6D815
:10626000EFCF00F000C0DFFF010EDB6A020EDB6A39
:10627000030EDB6A69D8070E87D8060E1F0B02E0F3
:106280008AD8FEE1D9D8040E7FD80C0E1F0B02E08D
:1062900082D8FEE1D1D8020E77D8110E1F0B02E092
:1062A0007AD8FEE1C9D8030E6FD8160E1F0B02E094
:1062B00072D8FEE1C1D8EFCF00F0016A026A036A2A
:1062C0001A0E1F0B02E067D8FEE14DD8DECF1BF09F
:1062D000DECF1CF0DECF1DF0DDCF1EF0DD52DD5233
:1062E000040EE15C02E2E16AE552E16E65D0D9CFCD
:1062F000E6FFE1CFD9FFFE0EDB5003E10F013F9B2C
:1063000006D00F01550EA76EAA0EA76E3F8BE55261
:10631000E7CFD9FF12004BD8FE0EDB500F0B006EFB
:10632000FE0EDB380F0B0A0DF350002445D03FD88A
:106330000A0E026E4DD81AC001F00A0E006E48D83F
:106340001E38F00B011038D0FD0EDBCFE9FFFE0E3A
:10635000DBCFEAFF12007AD8FEEF31F0DBCFEAFFA5
:10636000E750F9EF31F00050DE120150DE1202501A
:10637000DE120350DD12DD52DD52120067D8EF50FD
:10638000E66ED5DFE552120061D8EFCF00F0016A6A
:10639000026A036A1200D8900036013602360336CC
:1063A000E80612009850E66EB6DFE5521200D9CF2B
:1063B000E6FFE1CFD9FF1200E552E7CFD9FF120087
:1063C0001E50300FE66E12001A50300FE66E1200AB
:1063D000236EFE0EDBCF1EF05CEF3CF0E76EF90E95
:1063E000DBCFE9FFFA0EBADFA4EF31F033D8A4EF28
:1063F00031F02CD8E552E750EF6E1200EFCF00F0ED
:106400000A0E016E236E00C01EF05CEF3CF0CADF86
:10641000E66EA4EF31F09FDFE0EF31F09CDFE4EFB8
:1064200031F09950E66E77DFE552E66EA4EF31F079
:10643000A5DF986EA4EF31F096DFA4EF31F0DBCF4B
:10644000EAFFE552E750EF6EA4EF31F0E926000EC7
:10645000EA221200E76EFB0EDBCFE9FFFC0EAEEF87
:0264600031F019
:0E6462000001FC6BFD6B08010E6B12007E0E3C
:106470000001FC6FFD6B120000017E0EFC1901E1B2
:10648000FD5101E0000C010C00017E0EFC5D000ED0
:10649000FD5901E3000C010C0001FC690F0EFD6FBA
:1064A0001200FF0E0001FC1902E10F0EFD1901E0C0
:1064B000000C010CFAD806D9FEE109D9EF50006EA4
:1064C000016AFF0E001801E1015001E0000C010C0F
:1064D0000001FC2B000EFD23D7DF000905E0E5D805
:1064E000F1D8FEE1F4D8EF6A1200DFD8EBD8FEE174
:1064F000EED8EF5001E0000C010CD9CFE6FFE1CF60
:10650000D9FFD3D8DFD8FEE1E2D8EF2AD4D8EECF36
:1065100000F0EECF01F0EFCF02F0C7D8D3D8FEE104
:10652000E0D800C0EEFF01C0EEFF02C0EEFFE55272
:10653000E7CFD9FF1200D9CFE6FFE1CFD9FFBBD813
:10654000EFCF01F0B2D8BED8FEE1CBD8EF50D88063
:1065500001540AE2B0D8EFCF02F0A7D8B3D8FEE1D9
:10656000C0D8EF50025C66D0A6D8EE52EFCF08F04C
:106570009CD8A8D8FEE1B5D8EE52EF50D880085488
:1065800002E3000E01D0010E076E8FD89BD8FEE10A
:106590009ED8EECF03F0EECF04F0EECF05F08BD80F
:1065A000EF50045C07240CE086D8EE52EFCF09F0E0
:1065B0007CD888D8FEE195D8EE52EF50095C3AD0ED
:1065C00093D8EFCF0FF071D87DD8FEE18AD884D868
:1065D000EF50D8800F5402E3000E01D0010E0E6E72
:1065E00064D870D8FEE173D8EECF0AF0EECF0BF08E
:1065F000EECF0CF060D8EE52EF500C5C0E240BE0A6
:1066000073D8EFCF10F051D85DD8FEE16AD864D8C6
:10661000EF50105C0FD049D855D8FEE158D8EECFD6
:1066200011F0EECF12F0EECF13F0EFCF14F05CD8F4
:10663000EF50145C006EFC0EDB50D880005402E377
:10664000000E01D0010EE552E7CFD9FF1200000184
:10665000FA6B020EFB6FFC690F0EFD6F0FEC08F07A
:1066600040EF0DF0E66A060EE66E080EE66EFAC022
:1066700000F0FBC001F0026A036AFAC0E6FFFBC04B
:10668000E6FF02C0E6FF03C0E6FFEFEC0BF0046E8E
:10669000070EE15E0450000907E00001FA2B000E2E
:1066A000FB23FC690F0EFD6F000CFCC0E9FFFDC071
:1066B000EAFF020E1200FD0EDBCFE9FFFE0EDBCF7C
:1066C000EAFF1200D890E936EA36E80612000E0E0C
:1066D000E926080EEA221200020EE926000EEA223E
:0E66E0001200F5DFEE521200E6DF6CEF33F031
:0266EE00D9CF02
:1066F000E6FFDACFE6FFE1CFD9FFE2CFDAFF060E01
:10670000E12402E3E168E652E16EDF6A010EDB6A32
:10671000D950FA0FE96EFF0EDA20EA6E020EEECFC4
:10672000DBFF030EEECFDBFF040EEECFDBFF050E2B
:10673000EECFDBFFD950FA0FE96EFF0EDA20EA6EDA
:10674000060EE76ED890030EEB32020EEB32010E0E
:10675000EB32EF32E706F6E1D950FA0FE96EFF0EA1
:10676000DA20EA6E060EE76ED890EF36010EEB36B1
:10677000020EEB36030EEB36E706F6E1D950FA0FC0
:10678000E96EFF0EDA20EA6E400EEE26000EEE22D3
:10679000000EEE22000EEE22FA0EDBCF04F0FB0E0E
:1067A000DBCF05F0FC0EDBCF06F0FD0EDBCF07F0F4
:1067B000D950020FE96E000EDA20EA6EEE50045C4A
:1067C000006EEE500558016EEE500658026EEE5007
:1067D0000758036E0050DF6ED950F80FE96EFF0EB8
:1067E000DA20EA6EEE50ED1065E0040EDB50F86E34
:1067F000030EDB50F76E020EDB50F66EDF50DF0645
:1068000000091AE0F60EDBCFE9FFDB2AF70EDBCF3B
:10681000EAFF01E3DB2AEF50F56E0D00F80EDB0610
:10682000DBCF00F0F90E01E2DB06DBCF01F0005018
:10683000011001E101D0E2D7040EDB50F86E030E27
:10684000DB50F76E020EDB50F66EA684F2AE04D07B
:10685000F29EDE52010EDD6E550EA76EAA0EA76ED9
:10686000A682A694010EDB5003E0F28E010EDB6AD5
:10687000400EDF6E400E006E016A026A036AD95054
:10688000020FE96E000EDA20EA6EEE500026EE509E
:106890000122EE500222EE500322020E00C0DBFF66
:1068A000030E01C0DBFF040E02C0DBFF050E03C0B8
:1068B000DBFF92D7060EE15C02E2E16AE552E16E8F
:0C68C000E552E5CFDAFFE7CFD9FF120068
:0468CC00156AE86AF7
:1068D00023AE73EF34F0206C211E221E231E2122D2
:1068E00022222322151E1EAE7EEF34F01B6C1C1ECE
:1068F0001D1E1E1E1C221D221E22151E98EC3BF082
:106900001EBE95EF34F015AE000C1B6C1C1E1D1E38
:106910001E1EE86A1C221D221E22176C181E191E3C
:106920001A1E182219221A22000C15BE85EF34F007
:106930001688FF0C1DC027F01D502202F4CF1CF05A
:10694000F3CF1BF01E502302F4CF1EF0F3CF1DF047
:106950002202F3501C26F4501D22E86A1E22275002
:106960002302F3501C26F4501D22E86A1E22000C5C
:106970001EC028F01DC027F01CC026F01C502102AC
:10698000F4CF1AF0F3CF19F01D502202F4CF1CF00F
:10699000F3CF1BF02102F3501A26F4501B22E86AB1
:1069A0001C2226502202F3501A26F4501B22E86AB9
:1069B0001C221E502102F3501B26F4501C221E5094
:1069C00022021D6AE86A1D22F3501C26F4501D2283
:1069D00026502302F3501B26F4501C221E6AE86A3C
:1069E0001D221E2227502302F3501C26F4501D2284
:1069F000E86A1E2228502302F3501D26F4501E225E
:106A0000000C1EC028F01DC027F01D502202F4CF3C
:106A10001CF0F3CF1BF01E502302F4CF1EF0F3CF77
:106A20001DF02202F3501C26F4501D22E86A1E229B
:106A300027502302F3501C26F4501D22E86A1E2220
:106A400023AE27EF35F027501D5E28501E5A28AE82
:0C6A5000000C22501D5E23501E5A000C4A
:046A5C00D9CFE6FFA9
:106A6000DACFE6FFE1CFD9FFE2CFDAFFE652E65216
:106A7000E652020EDB6A590E006E96D8070E9BD8BE
:106A8000005C31E3590E016E8FD8060E94D8015C7C
:106A90002AE3060E026E88D8050E8DD8025C23E329
