:020000040000FA
:06000000E4EF2EF01200F7
:0600080089EF1EF012005A
:06001800EEEF1EF01200E5
:101000000200455E0000BE040000400000002E5EAD
:0A1010000000D400000017000000EB
:06101A00010C64C0F3FFAD
:1010200065C0F4FF120060C01BF061C01CF062C01C
:101030001DF063C01EF012009286828C949C9286F2
:101040001200C4EC0CF0828C000CFAEC0FF0110EC4
:10105000E126829C71EC0FF07EEC0FF0FDE15DEC7F
:101060000FF008000A0E6CEC10F0060EEECFDBFF5E
:10107000070EEECFDBFF5CEC10F071EC0FF07EECB6
:101080000FF0FDE1F2EC10F0050EF5CFDBFF0A0EDC
:10109000DB8C14EC10F0090E14EC10F0080E14ECBC
:1010A00010F0070E14EC10F0060E14EC10F0050E04
:1010B00014EC10F0FE0EDB50050802E1D4EC0CF04D
:1010C000140EF36E0B0EF3CFDBFF0C0EDB6AD4ECC9
:1010D0000CF0DF6E0B0EDB060C0E01E2DB06FF0EE2
:1010E000DF5C05E1D9500B0F87EC10F0F0E171ECFB
:1010F0000FF07EEC0FF0FDE1C8EC10F0020807E104
:10110000010EDFCFDBFFD4EC0CF0DF6E4BD071ECC7
:101110000FF07EEC0FF0FDE1C8EC10F001082AE1C1
:101120000D0EDB6A0E0EDB6A0A0EF36E0F0EF3CFA6
:10113000DBFF100EDB6AD4EC0CF0DF6ED9500D0F24
:10114000F9EC10F0EE06000EEE5AEE5AEE5ADF50B1
:101150000FE10D0EDBCF00F00E0EDBCF01F00F0E16
:10116000DBCF02F0100EDBCF03F090EC10F0E3E1E8
:10117000DF6A18D071EC0FF07EEC0FF0FDE1C8ECE7
:1011800010F004080FE1D4EC0CF0E76E040E8BECC9
:1011900010F0030E8BEC10F0020E8BEC10F0010E31
:1011A000E7CFDBFF08EC10F071EC0FF07EEC0FF0F6
:1011B000FDE15DEC0FF0030EDFEC0FF001E1828C3E
:1011C000EFEC10F0EECF03F0EFCF04F0FFEC0FF0F8
:1011D0004AEC10F0110EE15C02E2E16AE552E16EC8
:1011E00004EF10F0FAEC0FF00E0EE126829C71EC89
:1011F0000FF07EEC0FF0FDE15DEC0FF008000B0E40
:101200006CEC10F0070EEECFDBFF5CEC10F00A0E7A
:10121000EECFDBFF71EC0FF07EEC0FF0FDE1F2ECB6
:1012200010F0060EF5CFDBFF0B0EDB8C19EC10F087
:101230000A0E19EC10F0090E19EC10F0080E19EC5A
:1012400010F0070E19EC10F0060E19EC10F0FE0E5F
:10125000DB50050801E1EBDB140EF36E0C0EF3CF4F
:10126000DBFF0D0EDB6A63EC10F001E2DB06010E22
:10127000DB50FF0805E1D9500C0F87EC10F0F3E1CB
:1012800071EC0FF07EEC0FF0FDE1C8EC10F00208FD
:1012900008E1010EDB50E76E020E57EC10F0010E74
:1012A00031D071EC0FF07EEC0FF0FDE1C8EC10F0E6
:1012B000010813E10C0EDB680D0EDB6863EC10F027
:1012C00001E2DB06010EDB5005E1D9500C0F87EC83
:1012D00010F0F4E1010EDB6A17D071EC0FF07EEC38
:1012E0000FF0FDE1C8EC10F004080EE1A0DBE76EA2
:1012F000050E57EC10F0040E57EC10F0030E57ECEF
:1013000010F0020EE7CFDBFF95EC10F071EC0FF060
:101310007EEC0FF0FDE15DEC0FF0030EDFEC0FF063
:1013200001E1828C010EDBCF00F0020EDBCF01F079
:10133000030EDBCF02F0040EDBCF03F0050EDBCF94
:1013400004F0FFEC0FF04AEC10F00E0EE15C02E24C
:10135000E16AE552E16E04EF10F0FAEC0FF00E0EC8
:10136000E126DE6A020EDD6EDB6AF36E030EF3CF5A
:10137000DBFF040EDB6A050EDB6AF90EDBCF1DF026
:10138000FA0EDBCF1EF0060E1DC0DBFF070E1EC0DF
:10139000DBFFD950FB0FE96EFF0EDA20EA6E5CEC42
:1013A00010F00A0EEECFDBFF0B0EEECFDBFF010ECF
:1013B000F36E0C0EF3CFDBFFD9CFE6FFDACFE6FFFB
:1013C00019D8E552E552E76E0D0EE7CFDBFFDB5093
:1013D00002E1010E05D00D0EDB50FF08EDE1000E1D
:1013E000006E0E0EE15C02E2E16AE552E16E005031
:1013F00004EF10F0FAEC0FF0060EE1266BEC0FF0A4
:10140000EF50FF0A01E187D0010A01E17CD0FC0A1C
:101410004FE0010A32E0020A05E0010A01E07BD058
:10142000000E7DD00001796B020E7A6F99EC0FF0FF
:10143000665104E1090EA4EC10F0FDE1D880000E25
:1014400000019CEC10F006E3010E7F6F2EEC10F013
:10145000080E04D07F6B2EEC10F0090EB5EC0FF0E7
:10146000010EDB5020E100017B6B7C6B040E7D6F75
:101470007E6B6BEC0FF0030E19D000017B517C11D9
:101480007D117E1110E07B07000E7C5B7D5B7E5B37
:101490008BDADF6EFF0EDF5C28E0FE0EDF5C03E11F
:1014A00008EC11F03CD06BEC0FF0FE0EEF6E1DD08F
:1014B0000001B9EC10F01DE0C9EC0FF075EC10F074
:1014C000795F6D517A5B35D8000179517A110FE15E
:1014D0006BDA6ADA0001B9EC10F004E06BEC0FF0A3
:1014E000030EEF6E796B020E7A6F010E18D0020EAA
:1014F00016D07F5105E1E6EC0FF0050E0CEC10F074
:10150000FDEC10F00CD06BEC0FF0EF68E6EC0FF098
:10151000050EB5EC0FF0828C08EC10F0FF0E006E9B
:10152000060EE15C02E2E16AE552E16E005004EF72
:1015300010F000016C516D1101E12ED0E9CF80F067
:10154000EACF81F0F3CF82F0F4CF83F06CC0F3FFE9
:101550006DC0F4FF72C0E9FF73C0EAFF7550E86E1A
:10156000A49E756806D0A4AEFED7A49E755075687B
:10157000EE6E000EF306F45AF350F410F4E1A4AE4C
:10158000FED775CFEEFFA49E82C0F3FF83C0F4FFA9
:1015900080C0E9FF81C0EAFF1200FAEC0FF0090EEB
:1015A000E1266BEC0FF0EF50FE0A01E1DED0FA0A03
:1015B00001E1C8D0070A01E198D0010A62E0030AFC
:1015C00005E0010A01E0DBD0000EDCD00001856BF4
:1015D000020E866F99EC0FF0D880000E9CEC10F094
:1015E00003E30A0E8B6F3BD00B0E8B6F6EC000F0C7
:1015F0006FC001F070C002F071C003F0090EABECD7
:1016000010F0FDE100C0DFFF010E01C0DBFF020EA4
:1016100002C0DBFF030E03C0DBFFEFEC10F0EFCFE7
:1016200003F090EC10F007E1FFEC0FF0EE2A000E53
:10163000EE22EE22EE22E6EC0FF00F0EE66E84ECC8
:101640000FF00DE1FFEC0FF0EECFE6FFEECFE6FF7F
:10165000EECFE6FFEFCFE6FF130E0CEC10F000012B
:10166000665104E1090EA4EC10F0FDE12EEC10F03F
:101670008BC0E6FF84EC0FF001E07FD008EC11F0A6
:1016800032D0000185510CE1020E861909E10B0EE2
:101690008B5D02E1FC0E01D0FE0EE66E77D9E552BD
:1016A000C9EC0FF0000175EC10F0855F6D51865BA1
:1016B00073D800018551861116E1856B020E866F85
:1016C00008EC10F008EC10F06FD91F0B050836E19C
:1016D0006BEC0FF0030EEF6E0001876B886B0A0E48
:1016E000896F8A6B4ED0020E4DD000018751881150
:1016F00089118A1123E08707000E885B895B8A5B6A
:1017000008EC10F051D90001846FE8503AE0B9ECD0
:1017100010F011E1876B886B0A0E896F8A6B0B0ED4
:101720008B5D20E1FD0EE66E31D9E55208EC10F03C
:10173000D2DB040E05D008EC11F024D0CCDBFE0E79
:10174000EF6E1FD000018751881189118A110DE0B9
:101750008707000E885B895B8A5B26D90001846F4E
:10176000E8500FE0FDEC10F00DD0E6EC0FF0050EA8
:101770000CEC10F0828C08EC10F0ADDBEF68FF0E83
:1017800001D0030E006E090EE15C02E2E16AE5524F
:10179000E16E005004EF10F000016C516D1101E199
:1017A0002AD0E9CF8DF0EACF8EF0F3CF8FF0F4CFCF
:1017B00090F06CC0F3FF6DC0F4FF72C0E9FF73C01E
:1017C000EAFFEE5003D0EE50A4AEFED7A49E756E95
:1017D000000EF306F45AF350F410F5E1A4AEFED770
:1017E00075CF8CF0A49E8FC0F3FF90C0F4FF8DC026
:1017F000E9FF8EC0EAFF1200FAEC0FF0E652F80E95
:10180000DB500FE1FB0EDBCF00F0FC0EDBCF01F075
:10181000FD0EDBCF02F0FE0EDBCF03F090EC10F0FC
:101820002BE00001916B020E926F936B946F956B9E
:10183000966BF90EDBCF97F0FA0EDBCF98F0FB0E2C
:10184000DBCF99F0FC0EDBCF9AF0FD0EDBCF9BF0E7
:10185000FE0EDBCF9CF0010E9D6F910EE66E000E2A
:10186000E66E9BDEE552E552DF6EDF5002E1010ECF
:1018700004D0FF0EDF5CF1E1000EE552C5D3000C91
:10188000D9CFE6FFE1CFD9FF050EE126FE0EDB50F2
:10189000DF6EDF50DF0600096BE00801005107E052
:1018A000006A120E016E7A0E026E036A07D0006A99
:1018B0006C0E016EDC0E026E020E036E080E206EC0
:1018C000216A226A236A00C01BF001C01CF002C01A
:1018D0001DF003C01EF030EC2BF01BC000F01CC04C
:1018E00001F01DC002F01EC003F0E80E206E030ED2
:1018F000216E226A236A00C01BF001C01CF002C0E6
:101900001DF003C01EF030EC2BF01BC000F01CC01B
:1019100001F01DC002F01EC003F0050E005E000EB7
:10192000015A000E025A000E035A010E00C0DBFFDE
:10193000020E01C0DBFF030EDB6A040EDB6AD95026
:10194000010FE96EDACFEAFFEFCF00F0EE06000EEE
:10195000EFCF01F0EE5AEFCF02F0EE5AEFCF03F0E7
:10196000EF5A005001100210031001E0E8D791D7A0
:10197000000000D0050EE15C02E2E16AE552E16E92
:10198000E552E7CFD9FF1200729A120002EC11F073
:10199000FE0EDB50756E72AE02D0FF0E03D0A4AE09
:1019A000FED7000EE55230D302EC11F07568A4AEFC
:1019B000FED77550E55228D31DDB736A726AFE0E9E
:1019C000DB507212738C94949396958C728A1CD30C
:1019D00011DB020EE1268B948A8694949396DF6A3B
:1019E000080EDF5C19E28B94FE0EDBAE02D08A8615
:1019F00001D08A96DB50020DFE0EF3CFDBFFDE52E4
:101A0000010EDD6E34DBFEE18B84DE52010EDD6EF5
:101A10002EDBFEE1DF2AE4D78B94000E006E020E6F
:101A2000E15C02E2E16AE552E16E0050EDD2E2DAF9
:101A3000030EE126020EDB6A8A869396958C8B94C0
:101A40009494DF6A080EDF5C16E28B94DE52010E7E
:101A5000DD6E0DDBFEE18B84DE52010EDD6E07DBF9
:101A6000FEE1020EDB50020D020EF3CFDBFF83BC62
:101A7000DB2ADF2AE7D78B94020EDB50006E030EC1
:101A8000E15C02E2E16AE552E16E0050BDD2726AA9
:101A90008B948A86949493961200ACDA230EE126F6
:101AA0000001676B686B606B616B626B636B666B8D
:101AB000828CEDDF1E0EE66EE3DEE552828CDE6A7E
:101AC000DD6ADECF00F0DDCF01F00A0E005C000E13
:101AD000015806E22ADBDF2A010EF3E3DB2AF1D705
:101AE000640EDE6EDD6A828C20DB829CDF06010ED6
:101AF00001E2DB066CDB02E063DBF5E161DB0CE1BC
:101B0000828C13DB829C62DA050E5EDB60DB04E014
:101B10000001020E676FB2D1AA0EE66E010EE66EEC
:101B2000E66AE66A020E50DB00680F0E016E026A7A
:101B3000036AA4DAAA0E001841E1010E01183EE181
:101B400002503CE103503AE1D950020F52DBEF5012
:101B5000040B34E13BDA100E37DBDE6ADD6ACEDAE5
:101B600016E234DA0F0EE5DA006E050EE15E005083
:101B7000E66AE66AE66A400EE66E120E25DB020EA3
:101B8000DB5005E0DF2A010EEAE3DB2AE8D7B6DA0C
:101B900003E30001020E676F19DA100E15DB006A0D
:101BA000016A026A400E036E69DABADA04E00001E3
:101BB000010E666F20D00001666B1DD0828C010E75
:101BC000E66E5EDEE552829C0001666BDE681F0EEB
:101BD000DD6EFCD9010EF8DADF06010E01E2DB064C
:101BE000020EDB5002E0ECDAF4E1EADA04E1000193
:101BF000020E676F828C828CE66ADEDEE552829C82
:101C0000140EDE6EDD6AE2D9030EE66E25EC08F0F6
:101C100043D9DF06010E01E2DB06020EDB5002E0D3
:101C2000CFDAF1E1CDDA04E10001020E676F25D1D0
:101C30001C0EDB6A1B0EDB6A140EF36E1B0EDBCF71
:101C4000F4FFF350F45C20E2AFDEE66ED950070FEC
:101C5000006EDACF01F01C0EDB500F010024E96E9C
:101C6000000EDA20EA6EE552E750EF6E1C0EDB2A1A
:101C70001B0EDB5006E1070EDB50FE0802E11C0ED6
:101C8000DB6A1B0EDB2AD8D70001646B020E656F7E
:101C9000696B6A6F6881070EDB50C00B2FE00E0E78
:101CA000DBCF00F0016A026A036A3F0E0016016A88
:101CB000026A036A100E1F0B02E054DAFEE10F0EF7
:101CC000BDD9100E88D91D0EDBCF60F01E0EDBCF04
:101CD00061F01F0EDBCF62F0200EDBCF63F000015E
:101CE000602B000E6123622363230A0ED8906037B5
:101CF000613762376337E806F9E1A0D00D0EDBCF1C
:101D000000F0016A026A036A100E1F0B02E02ADA71
:101D1000FEE10E0E93D90F0E5ED9D9501D0F69DA70
:101D2000C00EEE16EE52030EEE16EE6A1D0EDBCF5F
:101D300000F01E0EDBCF01F01F0EDBCF02F0200EF5
:101D4000DBCF03F0060E07DAFEE12DDA100EDB50D2
:101D5000030BE824006E110EDB50800BE844010BEE
:101D60000010E76E210EE7CFDBFF0C0EDB500F0BF0
:101D7000E76E220EE7CFDBFFDB50F70F006E010EA0
:101D8000005204E0E846FE0B0006FCE1E76E220E7E
:101D9000E7CFDBFFDBCF0CF00D6A0E6A0F6A210E76
:101DA000DB50020F0BEC2FF0F3CF08F0F4CF09F06B
:101DB0000A6A0B6A010E046E056A066A076AD95040
:101DC0001D0F17DAEE500426EE500522EE500622C3
:101DD000EE50072204C01BF005C01CF006C01DF029
:101DE00007C01EF0F3CF20F0F4CF21F00AC022F09C
:101DF0000BC023F0D0EC2DF017C000F018C001F09C
:101E000019C002F01AC003F017C01BF018C01CF074
:101E100019C01DF01AC01EF00CC020F00DC021F03A
:101E20000EC022F00FC023F0D0EC2DF017C060F0F0
:101E300018C061F019C062F01AC063F000016007B9
:101E4000000E615B625B635BC1D8110EE5D864C0B4
:101E500000F065C001F0026A036A64C0E6FF65C075
:101E6000E6FF02C0E6FF03C0E6FF070EE66E25ECC4
:101E700008F0046E050EE15E0450828C670E006E61
:101E8000000E016E00C0F3FFF46E230EE15C02E26F
:101E9000E16AE552E16EB8D071D9020E00C0DBFFF5
:101EA000030E01C0DBFF040E02C0DBFF050E03C002
:101EB000DBFF060E04C0DBFF120000500324F36EAC
:101EC00001500420F46E02500520F86EF4CFF7FFA5
:101ED000F3CFF6FF120060D90C0EE926000EEA22BD
:101EE0001200800E006E5C0E016E000E026EFE0E81
:101EF000DBCF03F0046A056A020E1200D8900336A5
:101F000004360536E806120025EC08F037D9040E31
:101F100000C0DBFF050E01C0DBFF060E02C0DBFFC9
:101F2000070E03C0DBFF080E04C0DBFF040EDB500E
:101F3000120032D9EECF6CF0EECF6DF0EECF6EF036
:101F4000EECF6FF0EECF70F0EECF71F0EECF72F01B
:101F5000EECF73F0EECF74F0EECF75F0EECF76F0FB
:101F6000EECF77F0EFCF78F01200E66E25EC08F0B8
:101F700005D9010E00C0DBFF020E01C0DBFF030E1E
:101F800002C0DBFF040E03C0DBFF050E04C0DBFF55
:101F9000120002D9EECF6CF0EDCF6DF0FDD8060E39
:101FA000E926000EEA22EECF72F0EDCF73F06CC09E
:101FB00000F06DC001F0026A036A00501200F626BC
:101FC000000EF722F8220800F5501200E66AE66AD1
:101FD000E66AE66A1200DBCF08F0096A0A6A0B6A51
:101FE00008500012095001120A5002120B5003123D
:101FF000D3EF10F0D9CFE6FFE1CFD9FF1200D9CF50
:10200000E9FFDACFEAFF1200E552E7CFD9FF12006D
:10201000E668BCDCE5521200E66E25EC08F0006EC6
:10202000050EE15E00501200DBCFE6FFAFDCE552AB
:102030001200DBCFE6FFCCDCE5521200DBCF04F070
:1020400004C005F0046A066A076A045000120550CD
:1020500001120650021207500312120074C0E6FF6C
:1020600075C0E6FF76C0E6FF77C0E6FF1200010EFE
:10207000DBCFF3FFDB06F35000091200D950030F4A
:10208000B8D8EE500016EE500116EE500216EE5083
:1020900003161200ED50ED5004C0EDFF03C0EDFF3C
:1020A00002C0EDFF01C0EDFF00C0EFFF1200E7CF5F
:1020B000DBFFBDDCE76E1200080EEECFDBFF090E82
:1020C000EECFDBFF1200B3DCE76E010EE7CFDBFFE4
:1020D0000C0EDB060D0E1200F5CFDBFFD950FA0F08
:1020E000E96EFF0EDA20EA6E12006E5F01506F5B40
:1020F0000250705B0350715B6C511200DECF00F038
:10210000DDCF01F0FF0E005CFF0E0158120071D808
:10211000EE50ED101200E7CFDBFF46DCE76E120059
:1021200000500110021003101200E66851DCE55265
:102130001200E66EF2EF08F06E55020E6F55000EBB
:102140007055000E71551200D89074377537763778
:102150007737E8061200D89003320232013200329B
:10216000E8061200D8900036013602360336E8063B
:1021700012006E516F117011711112004DD8EECF17
:1021800003F0EECF04F0056E050EE15E055012007F
:1021900094DE020EDFEF0FF0FD0EDBCFE9FFFE0E47
:1021A000DBCFEAFF12001D0E00C0DBFF1E0E01C0D8
:1021B000DBFF1F0E02C0DBFF200E03C0DBFF12009F
:1021C0001EDFEE50ED101200B4DF4CEF0FF0FEDE1C
:1021D000E66AF2EC08F060DE020EDB0412000FDFAC
:1021E0000CEF11F06ADEF62A000EF722F822080042
:1021F0001200E96EDACFEAFF1200828C09DF6BDE93
:10220000EF6A1200F7DEE6527550DF6EA49E1200F0
:1022100062DE020EEF6E1200EECF00F0EECF01F0A4
:06222000EECF02F01200F7
:0A222600A1EC17F0A098636A626A49
:102230000F01266B01EC17F00F0147EC17F0DF6A76
:1022400037EC17F003E2E7EC16F0FAD7658C0F01D4
:10225000386B6598659C62A607D062960001B66BE4
:10226000BB6BBC6BBD6BF7D70001010ED06FD16F9C
:10227000D26BD36BC46BDF6A030EDF5C11E2EA6AD8
:10228000DF34A4EC17F0EA22EE6AED6AEA6ADF3482
:10229000ABEC17F0EA22EE6AED6AF7EC16F0ECD739
:1022A0000001080EAB6F040EAC6F0F01160E266F07
:1022B0000401300E026F040E036F080E016F840ECE
:1022C000006F00019F6B9E6BE552C1EF16F0A1EC11
:1022D00017F000019E0509E165BA07D0626A0F0197
:1022E000368136890001020E9E6F6250040B06E0B3
:1022F0000F013651040B02E0629459DB65B243D002
:102300006250010B0AE00F013651010B06E08BDF32
:10231000A0880001040E9E6F62906250100B06E0D0
:102320000F013651100B02E037DB629862AC09D026
:102330000F0136AD05D04EEC17F0730E85EC16F09C
:10234000629C6250200B05E00F013651200B01E02A
:1023500012DB6250020B0CE00F013651020B08E059
:102360004EEC17F0E6687F0EE66EB2EC17F0636A8B
:10237000040E0001E76E9E19E8AE02D0E73402D0E9
:10238000E7509E5D02E2A1982FD00F0136A72BD017
:10239000DF6A040EDF5C27E262A625D064CFC5F0B9
:1023A0000001C551780BE842E842E842C66F6296E8
:1023B000C5B504D0C651C0EC17F003D0C651C5EC6A
:1023C00017F0EA22EF70C65102E1FEDA0AD0000EE1
:1023D000E66EE66AC50EE66E000EE66E720E85ECDF
:1023E00016F0DF2AD6D7A198E552C1EF16F073ECAC
:1023F00017F0FD0EDBA403D0E66A3FEC17F0FD0EEC
:10240000DBA204D0010EE66E3FEC17F0FE0EDB50AF
:10241000016A260F006E0F0E31EC17F0B2EC16F0C9
:10242000FD0EDBCFEFFF020EE15C02E2E16AE55256
:10243000E16EC1EF16F073EC17F0FD0EDB5003E018
:1024400080EC16F002D0D8EC16F01DEC17F0D9CFC6
:10245000E9FFDACFEAFFEE50ED1003E1F36AF46A28
:1024600028D0B2EC16F0D4EC17F0FB0EDBCFEEFF69
:10247000FC0EDBCFEDFFB2EC16F0EE52FA0EDBCF26
:10248000EFFF400ECAEC17F0880ED9EC17F0FD0EE6
:10249000DB5003E080EC16F002D0D8EC16F0EA2214
:1024A000EF74DECF00F0DDCF01F000C0F3FF01C01C
:1024B000F4FF020EE15C02E2E16AE552E16EC1EF77
:1024C00016F073EC17F0FE0EDB5003E181EC17F011
:1024D00009D0DDEC16F061EC17F0DDEC16F0010F21
:1024E00061EC17F0020EE15C02E2E16AE552E16E96
:1024F000C1EF16F0BCEC16F065A817D092EC17F0FF
:10250000400EEE16EE6AEE6AEE6A92EC17F0EE7C82
:1025100080EC16F0EA22EF74400E006E92EC17F099
:102520000050EF1692EC17F0EF7CC1EF16F0656AE1
:102530000F01366B00019E6B120000019E5110E1ED
:10254000656A0F01366B47EC17F0D08EA288A08821
:10255000F28E65B602D06586FCD70001010E9E6F33
:1025600012000001D05127E1010ED06FD15123E1BB
:10257000010ED16F020EB25D09E1B7EC16F0EE521A
:10258000EF6AB7EC16F0C80EEF6E1200B20513E159
:10259000C76BCDEC16F0EE52080EEF6ECDEC16F0D8
:1025A0006DEC17F0CDEC16F0840EEF6E010EC76FD8
:1025B000A3DB800EEF6E12000001D26BD36B020E14
:1025C000B25D07E1CEEC17F0D2EC16F05CEC17F040
:1025D00010D0B7510401365D0001B85104013759DC
:1025E00004E236C4B7F037C4B8F061D8C0DBDADB38
:1025F000BEDBC80EEF6E120073EC17F0000EDE6E3D
:10260000040EDD6EDADB040DF4CF01F0D9CFE9FF63
:10261000DACFEAFFF350EE260150ED22A3DBEF9E66
:10262000FD0EDB5002E1C4DB01D06ADBEA22DECF23
:10263000EEFFDDCFEDFF96DBEF9C94DB040EE92689
:10264000000EEA22EF8C020EE15C02E2E16AE55242
:10265000E16E97D365980001B6BF0DD0BBAF09D02E
:10266000020EB26FD35101E1A7DF0001D16BD06B35
:10267000120081EF17F0040130AF0DD00001010E00
:10268000B26FD25101E198DF0001D16BD06BCF5115
:102690000DE1B1EF12F00001020EB26F2DDB840EDE
:1026A000EF6ED16BD06BCF5101E15BDF1200A1EC7B
:1026B00017F0080EDF6E0001B75D000EB8590AE290
:1026C000B7C0DFFFB15102E1010E03D0B10502E155
:1026D000020EB16FDF50016AE850B75DB76F01506D
:1026E000B859B86F44DBEE52DFCFEFFF380EC16F41
:1026F000040EC26FB6B110D0DF501AE0B3C0F6FFBF
:10270000B32BB4C0F7FF000EB423B5C0F8FFB52358
:102710000800F55085DBF0D7DF500AE0B3C0E9FFD1
:10272000B4C0EAFFB32B000EB423EF5079DBF4D72B
:10273000E55227D3D8DB31DBEE52EFCFDFFFDFCF1F
:1027400000F000500001BC5D000EBD5902E2BCC0AB
:10275000DFFFDF50006E016AE850BC5DBC6F0150C6
:10276000BD59BD6F010EDB6ADF50F36E010EDBCF8A
:10277000F4FFF350F45C16E2010EDB50EA6A380F06
:10278000E96E040EEA22EF50E66EB9C0E9FFBAC066
:10279000EAFFB92B000EBA23E552E750EF6E010EA7
:1027A000DB2AE2D7000ED880BC55000EBD550EE2E4
:1027B000CEEC17F0F7DAF1DAEF50400B03E17CDBF7
:1027C000C80E02D079DB880EEF6E15D095DA840E34
:1027D000EF6EBE51BF11C01109E007D0C0C0FBFFB2
:1027E000BFC0FAFF0001BE51F96EF8DF0001BB9FC8
:1027F000CF5101E1B6DE020EE15C02E2E16AE55290
:10280000E16EBFD29EDB0001B68FFBDADF6A2FDB01
:1028100002E2DDDAFCD7658CDF6A030EDF5C02E2E0
:10282000E6DAFBD7010EE66EE66AE66AA00EE66E11
:10283000000E7FDB659C0001080EAB6F040EAC6FD1
:10284000000EA16F040EA26FA1C0A3F0A46F32C44A
:102850009FF09F5102E1100E0BD0010EE66EE66A6A
:102860009F0EE66E000EE66E010E4FDA0001200E9E
:102870009E6FE55286D2800E0401305D40E100017A
:10288000C00EB66F04013351030A25E0010A0BE0C4
:10289000030A33E100011C0EB36F5B0EB46F000E30
:1028A000B56F120E24D0900E006E5B0E016E000EFE
:1028B00030DA020EF626000EF722F8220800F5CFD5
:1028C000B7F057DB030EF626000EF722F8220800B9
:1028D000F5CFB8F01200040E325D0CE2930E006EDC
:1028E0005B0E016E000E15DA0800F5500001B76F9F
:1028F000B86B12000001B66B12000001B66B12003B
:10290000F2DA0401386B396B30511F0B020A11E007
:10291000030A0CE0010A1EE10001B68F04013881B0
:102920000001C30517E10401388314D00001B68FFC
:1029300011D00001B68F040134BF02D0E9DA01D012
:10294000ECDA7BDAF2DA06E00DDAEF50040B02E0A3
:10295000010E386F0001B6AF07D0380EB36F040E0A
:10296000B46FB681020EB76F020EE15C02E2E16A5B
:10297000E552E16E06D20F0126A10CD00EDAEF501F
:10298000800807E1F4D9EF50840803E106DA8C0EE1
:10299000EF6E2691629A12000F0136856298658269
:1029A0000001010EC46F4FDA750E85EF16F00001BD
:1029B000C46B49DA740EA9D965920F01369562A4E9
:1029C00002D06294FCD71200BCDAFD0E0001C515DE
:1029D00039E17E0EC515E8407F0B040DF3CFA1F061
:1029E000F4CFA2F0000EA127040EA223A1C0A3F0F1
:1029F000A2C0A4F0A375D1D9EF503C0BE842E84245
:102A00000D081EE1DF6A080EDF5C16E2C6D9020E71
:102A1000E926000EFFD9EF50E66EDF50EA6A300F6C
:102A2000E96E040EEA22E552E750EF6EB6D9BCDA41
:102A3000EE2AEF22DF2AE7D7B0D94FDA0AD807D03B
:102A400023D805D0FD0EC515040801E12CD8E552A8
:102A500098D10001B16BCF6BD26BD36BC76BB26BEC
:102A600086D9EF9EAB7583D9EF9EAB7525DAEF9EC5
:102A7000B66BB76BB86BBB6BBC6BBD6B54D8E3D993
:102A8000030E43D92AEF13F0020E0001B25D02E1FA
:102A90009AEF13F0B26BC75104E12ED98C0EEF6E92
:102AA0001200C76B12004DDA62D9EF50400B01E003
:102AB000010EDF6E0001AB75080E9E5D0BE132C4A6
:102AC00038FF0F01385103E00001100E02D0000161
:102AD000040E9E6FB20513E14AD964D9E8DD020EF7
:102AE0000001B15D03E143D9840E07D0DF5003E15B
:102AF0003ED9C80E02D03BD9880EEF6E12D0BBAFC4
:102B00000FD0BE51BF11C01109E007D0C0C0FBFFFC
:102B1000BFC0FAFF0001BE51F96EF8DF0001BB9F94
:102B2000B26BE5522ED104013051600BE842E8420D
:102B3000E842E842E842000901E0120031510C0A83
:102B400045E00B0A3FE00C0A31E0010A22E00B0AE3
:102B50001EE0020A1CE0030A18E0080A10E0010A5D
:102B60000CE00F0A08E0030A01E012000001B68F32
:102B7000080E9E6F12003BEF14F002EF14F00001FC
:102B80009F0EB36F000EB46F0CD080EF14F0E7EF20
:102B900015F034510001B36FB46BA00EB327000ED3
:102BA000B423B681010EB76FB68F12000001B68F45
:102BB00004013451EA6AA00FE96E000EEA2232C421
:102BC000EFFF120040D9020E85EF16F01200D4D8A4
:102BD000050EE1260401320510E130511F0B0009FA
:102BE0000CE10001B68F030E0401315D04E1000128
:102BF000010EC36F02D00001C36B0401325101E02A
:102C000074D030511F0B020870E134510F0B0009D2
:102C10006CE034510F0B020868E3200E00019E5D4A
:102C200064E1B68F040134BF04D072D906D911D93A
:102C300003D073D902D911D9EA22020EEFCFDBFFFC
:102C400034D9010B03E1000EDF9401D0DF8434BFDF
:102C500002D05ED901D061D9EA22DECFEEFFDDCF0E
:102C6000EDFF030E315D0CE160D907E034BF02D007
:102C7000F0D801D0F2D8EA22EF82840E9AD935D06A
:102C8000DF7453D906E06ED8EF9E6CD8EF8C2FD945
:102C900002D068D8EF8CDF7408D9020B02E145D965
:102CA0000DE0040134BF02D0D4D801D0D6D8EA2236
:102CB000EF923B0E006E6ED91AD902D03B0E6AD944
:102CC000040134510F0B016A260F006E0F0E012212
:102CD000030E00C0DBFF040E01C0DBFF030EDBCFE1
:102CE000E9FF040EDBCFEAFFEF90050EE15C02E2A4
:102CF000E16AE552E16E45D051D9EFD85CEF17F0AB
:102D0000FE0EEA6ADB34A4EF17F0E66EE66AB2EF75
:102D100017F0026E32C403F0046A056A030E216ED6
:102D2000226A236A03C01CF004C01DF005C01EF017
:102D300082EC2BF000501924F36E01501A20F46E2F
:102D400002501B20F86EF4CFF7FFF3CFF6FF090017
:102D5000F5CFB3F00900F5CFB4F00800F5CFB5F02A
:102D6000B9EF17F0DECFE9FFDDCFEAFF1200ABC00D
:102D7000E9FFACC0EAFF1200D9CFE6FFE1CFD9FFEF
:102D80001200E552E7CFD9FF120034510F0BE96E64
:102D9000EA6AD890E936EA361200A1C0E9FFA2C07B
:102DA000EAFF120001D9380EEE6E040EED6E12002D
:102DB000FE0EEA6ADB34ABEF17F0FD0EDB50E824C1
:102DC000026EFE0EDB50040DF35002241200DF50A1
:102DD000040DF3CFE9FFF4CFEAFF000EE926040E5D
:102DE000EA22EE6AEE6AEE6AEE6ADF2A1200DF502D
:102DF000CCD8EA22EF6ADF50C3D8EA22EF6ADF2A92
:102E00001200020EE66EE66AE66A270EE66E0F0E06
:102E100099EF17F0EA22EE50EFCFEAFFE96E1200C9
:102E2000E66EC1C0E9FFC2C0EAFFC12B000EC2239B
:102E3000E552E750EF6EDF061200EA22EECFDEFF2A
:102E4000EDCFDDFF1200000EE66EE66AE66EE66A82
:102E5000120034510F0BC0EF17F034510F0BC5EFB8
:102E600017F0012200C0DEFF01C0DDFF1200DF50BD
:102E7000006E016A0C0E005C000E01581200FE0E7E
:102E8000DBCFE6FFFCEC12F0E552E5521200160E25
:102E9000396F9F0E376F7B0E366F1200010EE66E94
:102EA000E66A000EE66EE66A1200D950020FE96E7D
:102EB000DACFEAFFEF501200A3C0E9FFA4C0EAFF97
:102EC0001200040DF3CF00F0F4CF01F0000E002645
:102ED000040EC7DF840ED9EF17F066D8300EEE6E01
:102EE000040EED6E120048DF020EE1261200020E03
:102EF000E66EE66ADECFE6FFDDCFE6FF050E85EF84
:102F000016F0FADE8C0EEF6E32DF840EEF6E1200DA
:102F10003CDFA50EE926000E120037DFAB0EE926D6
:102F2000000E1200EDDE0AEF17F01CDFEF50800BF1
:102F30001200E66E19EC2CF0006E050EE15E0050FA
:102F400012001ADFE6521200FE0BEA36E96EAB0EF3
:102F5000E926000E1200FE0BEA36E96EA50EE92600
:102F6000000E12003EEC1EF0006E060EE15E0050F8
:102F70001200B3C0F6FFB4C0F7FFB5C0F8FF1200EF
:102F8000EA6ACB0FE96E000E1200EA6AC80FE96E1A
:102F9000000E1200E7DEE850EF1612008DDFEE5251
:102FA000080EEF6E5CEF17F0020EE926000EEA2223
:0A2FB0001200D8DEE850EF12120004
:062FBA00DDEC1DF0FAEC55
:102FC0001DF081EC1DF0ADC0A7F4AEC0A8F4040163
:102FD0006C6B6D696E6B6F6BAE6BB66BB76BB86B12
:102FE000B96BBA6BBB6BBC6BBD6B010EAF6FAB6BE0
:102FF000AC6B7E6B010E7E5D11E296EC1DF0EF6A0C
:103000000DEC08F0000905E072EC1DF002E068EC40
:103010001DF025EC1CF004017E2BECD712000401FE
:1030200030511F0B010801E01200345101E0120081
:103030003151FE0A29E0010A01E012003251331138
:1030400038E13651371101E0120004016C6B6D69F3
:103050006E6B6F6B010EAF6F0001A751A81102E1FB
:10306000000E08D0A7C0E9FFA8C0EAFFEF50800B10
:1030700001E0010E000904E1DDEC1DF007EC1EF09B
:103080000001800EB66F12003251331112E1010EB1
:10309000361901E1375101E012000401386B0001DB
:1030A000380EB36F040EB46F010EB76FB86BC10E5C
:1030B000B66F12005FEC1DF0E652200E00019E5D1F
:1030C00002E0000ED8D0A09804016C51030A01E17F
:1030D0009ED0010A01E18AD0030A01E183D0010AEE
:1030E00001E0C0D0A551A61102E1000E04D03BECD6
:1030F0001DF001E0010E000901E0BAD0DF6A1F0EE9
:10310000DF5C13E2DF50EA6A400FE96E040EEA2248
:10311000EF50E66EDF50EA6A710FE96E040EEA22A4
:10312000E552E750EF6EDF2AEAD70AEC1EF0EE52C6
:10313000EF501F0850E1550E040171194CE1530E78
:10314000721949E1420E731946E1430E741943E1C5
:10315000010EAF6F7E5100083BE37F51100838E34A
:10316000010E7F5D35E33F0E7D1532E10401550E02
:103170005F6F530E606F420E616F530E626F75C4C6
:1031800063F476C464F477C465F478C466F4CEEC72
:103190001DF06B6B04016D696E6B6F6B706B030ED2
:1031A000805D06E093919393939593979D6B9E6BAF
:1031B0007DAF02D0010E01D0020E6C6FD3EC1DF07A
:1031C00002E0AE6B02D0010EAE6F80C46DF450D041
:1031D0000FEC1EF04BD00FEC1EF0EBEC1DF00401D9
:1031E000AF6B46D04BD8FF0843E10DD047D8FF085E
:1031F0003FE104016B5107E16751681169116A11E0
:1032000002E0020E6B6F0401030E6C6F31D00001FF
:10321000AD51AE1102E1000E08D0ADC0E9FFAEC065
:10322000EAFFEF50800B01E0010E000921E10D0ED5
:10323000E66E5F0EE66E040EE66EE6EC1DF004012F
:10324000A551A61102E1000E04D03BEC1DF001E0F7
:10325000010E000904E1DDEC1DF007EC1EF0040195
:103260006C6B06D06C6B0401020E6B6FEBEC1DF007
:10327000A08804016C51E55264EF1DF00DEC08F0DC
:10328000000905E0040196EC1DF0EF040EE10401D5
:103290007E510BEC2FF013EC1EF0001E011E0050AF
:1032A0000401AB170150AC171CD07E510BEC2FF072
:1032B0000401AB51F314006EAC51F414016E0050D4
:1032C000011011E172EC1DF00CE068EC1DF093911F
:1032D000938393859397280E9D6F9E6BF6EC1DF05C
:1032E00002D005D801D025D804016D511200040187
:1032F0006D51FD0A17E0EF0A15E00C0A0EE01E0AF8
:103300000CE0030A11E1A1DA0401939193839395F0
:1033100093973A0E9D6F9E6B05D0F6EC1DF004015D
:103320006D69120099EF19F07F0EE66E2FDBE55202
:103330001200C5DB0A0EE12604016D51FE0A01E10F
:103340001FD1030A01E1CDD0D20A01E1C6D0340A6F
:1033500001E1C3D01B0A01E1B1D01E0A01E1ABD0EB
:10336000040A01E191D0190A71E0260A39E0370A0E
:103370000FE0380A08E0020A01E002D145D900094D
:1033800001E002D1ACD0B5D9000901E0FDD0A7D051
:10339000AE0501E1F3D083C4B1F484C4B0F484C4B5
:1033A00000F083C401F0026A036A84C4E6FF83C4A8
:1033B000E6FF47DB01E0E8D0240E7BDB240EE66E5F
:1033C000E66A290EE66E5D0EE66E000EE66E18ECFD
:1033D0001EF0F6EC2BF0006E070EE15E005067D099
:1033E00013EC08F0060E1BC0DBFF070E1CC0DBFF52
:1033F000080E1DC0DBFF090E1EC0DBFF0EEC08F03F
:1034000013EC1EF0020EF3CFDBFF030EF4CFDBFF55
:10341000040EDB6A050EDB6A090EDBCF00F6080E30
:10342000DBCF01F6070EDBCF02F6060EDBCF03F68D
:10343000050EDBCF04F6040EDBCF05F6030EDBCF63
:1034400006F6020EDBCF07F6080E2DD0AE0501E121
:1034500095D0120EB06FB16B2CDBDF6ADF50006EBF
:10346000016A120E005C000E015821E2DF50EA6A88
:10347000910FE96E040EEA22EF50E66E5EDBE55234
:10348000E750EF6EDF2AEAD70601030E006F016BEB
:103490003FEC0CF0000902E0800E01D0000E0601A6
:1034A000026F036B040E0401B06FB16B02DB040109
:1034B000FD0E6D6F69D02ADB99DB10D0E66AE66AF3
:1034C000E66AE66A8CDB60E1040193510F0B0608A3
:1034D00003E104016B0503E0B8D904015FDB0401DB
:1034E0004DD0A751A81102E1000E03D0C8DA01E0C7
:1034F000010E000949E1400E795D000E7A59000E77
:103500007B59000E7C5909E3DE52400EDD6E795F77
:10351000000E7A5B7B5B7C5B07D0010E79C4DBFF1E
:10352000796B7A6B7B6B7C6B010EDB50006E016AF2
:10353000E850B05D0150B15909E3010EDB50006E57
:10354000016AE850B05F0150B15B10D0DF6A010E34
:10355000DB50DF5C0BE2B051B11104E0B007000EAC
:10356000B15B02D0EADAEF6ADF2AF1D7010EDBCFD6
:10357000E6FF5EDB2BDB040116DB06E16D6904D0A0
:103580007F0EE66E03DAE5520A0EE15C02E2E16AC2
:10359000E552E16E99D293DAD7DA026A036A0050F3
:1035A0000401795D01507A5902507B5903507C59CE
:1035B00007E20401F3DA79C4B0F47AC4B1F423D099
:1035C000C3DAB051005CB151015806E2FD0EDBCF09
:1035D000B0F4FE0EDBCFB1F4B0C400F0B1C401F022
:1035E000026A036A790EE96E040EEA6E0050EE5C20
:1035F0000401676F0150EE58686F0250EE58696F12
:103600000350EE586A6F60D204016E51040A4BE019
:10361000070A3CE0010A14E0030A0AE0010A60E13B
:1036200016DA99DAFEE1EDDA61E10401010E6E6F5E
:10363000B051B1115AE0B007000EB15B020E6E6FCF
:10364000A751A81102E1000E03D019DA01E0010E22
:1036500000094CE11BDAADEC09F0006E060EE15EEC
:10366000005001080AE0640E0401705D02E2702B54
:103670003DD00401020E3CDA36D07BDA73DA040165
:10368000000EA36F060EA46F030E6E6F0401675148
:10369000681169116A1104E10401010E6E6F26D0F0
:1036A0000401040E6E6FA751A81102E1000E03D0B1
:1036B000E6D901E0010E000919E162DA87DA0401B6
:1036C000030E6E6F400E795F000E7A5B7B5B7C5B56
:1036D000400E0401675F000E685B695B58DA06D034
:1036E0000401020E6B6F9BDA04016E6B04016E51D4
:1036F000120004016F51020A01E179D0060A5AE072
:10370000070A2AE0020A1DE0010A01E095D09FD9CC
:1037100022DAFEE176DA01E095D03FEC0CF0000908
:103720000DE064DA04019381938393859397270EC8
:103730009D6F9E6B50DA04016F6B85D00401010E02
:103740006C6FB051B11101E17CD0030E6F6F000EB0
:10375000A36F060EA46F06DAD880000E0401675529
:10376000000E6855000E6955000E6A5513E20401FB
:10377000A551A61102E1000E03D07DD901E0010E92
:10378000000960E1FDD9E66A010E41DA0401040E88
:103790006F6F10D03FEC0CF0000909E027DA04014C
:1037A0009391938393959397270E9D6F9E6B04013E
:1037B000020E40D0A551A61102E1000E03D05BD944
:1037C00001E0010E00093EE16BD9795F01507A5B9F
:1037D00002507B5B03507C5B63D90401675F01503F
:1037E000685B0250695B0350D2D9030E23D00401F9
:1037F0006B511CE10401B251B311B411B51102E1D6
:10380000010E01D0000EE66E41D9FCEC0BF0006E0B
:10381000070EE15E0050010809E0640E0401705DCE
:1038200002E2702B0FD00401010E62D9A2D9B007B9
:10383000B15B010E6F6F06D00401020E6B6FCBD926
:1038400004016F6B04016F51120004019191919377
:10385000919591979189918B918D919F926B939175
:10386000939393959397939B939D939F946B956B51
:10387000966B976B0A0E986F996B9A6B9B6B9C6B10
:103880009D6B9E6B9F6BA06BA16BA26B120017D9F7
:10389000030EE126FB0EDBCF00F0FC0EDBCF01F0C8
:1038A000FD0EDBCF02F0FE0EDBCF03F00050011067
:1038B0000210031006E1010EF36E020EF3CFDBFFE0
:1038C00002D0020EDB6A0401AE0503E1020EDB0446
:1038D00016E024D9EE1815E17A51EE1812E17B5169
:1038E000EE180FE17C51EE180CE10BE16C0504E1E0
:1038F0002A0E6D5D06E003D02A0E6D5D02E1000E1A
:103900003CD00CD9EE5C7A51EE587B51EE587C518C
:10391000EE5804E2DE52010EDD6E02D0010EDB6ACB
:10392000020E6C5D12E12A0E6D5D03E0020EDB50AB
:103930000AE0AE0511E0020EDB0403E0010EDB0439
:1039400002E1040E14D0050E12D02A0E6D5D02E1C4
:10395000030E0DD0AE0502E1010E09D0020EDB040C
:1039600003E0010EDB0402E1020E01D0030EDF6E64
:10397000DFCFE6FF0BD8E552DF50006E030EE15CAF
:1039800002E2E16AE552E16E00509ED098D8E6521C
:103990000401A751A81102E1000E03D070D801E084
:1039A000010E000943E1A551A61102E1000E03D06A
:1039B00062D801E0010E000939E16CC4DFFF6D69D6
:1039C0006E6B6F6B79C467F47AC468F47BC469F476
:1039D0007CC46AF40BD90401030E6C6FFE0EDB503D
:1039E0007F0A16E07A0A10E0010A1AE0070A08E0E6
:1039F000010A19E0030A1AE10401020E6B6F16D0E6
:103A00000401020E6B6F0FD00401020E6B6F08D021
:103A10001CDF04017BD8020EDF5C05E1C4D803E0A3
:103A2000E66A010E02D0010EE66E05D8E5524CD0D2
:103A3000E1D800501200E66E61EC12F0E552E5525A
:103A4000120002C0E6FF03C0E6FFEFEF1DF082C4E4
:103A5000B5F483C4B4F484C4B3F485C4B2F487C4A5
:103A6000B1F488C4B0F488C400F087C401F0026ADD
:103A7000036A090E1200CED8EF50800B1200A7C4C3
:103A8000E9FFA8C4EAFFEF50800B1200D1D8B2C4FE
:103A9000E6FFB3C4E6FFB4C4E6FFB5C4E6FF120018
:103AA000B9D8EE52EFCF00F0016A026A036A005003
:103AB0001200E66EE66A6FDDE552E5521200D9CFDC
:103AC000E6FFE1CFD9FF1200E552E7CFD9FF1200A0
:103AD00004017E510BEC2FF0F3500401AB13F450B2
:103AE000AC1312004DEC0DF09ED8F350F410120000
:103AF0006B6F040193819383939593979D6B9E6B5A
:103B00001200F3CFA5F4F4CFA6F41200938193939F
:103B100093859397200E9D6F9E6B1200D950FB0FDB
:103B2000E96EFF0EDA20EA6E795112007E51EA6AE0
:103B3000AD0FE96E040EEA221200DF50EA6A000FB0
:103B4000E96E060EEA221200FD0EDBCF00F0FE0E3B
:103B5000DBCF01F01200D890003601360236033672
:103B6000E80612000401676B020E686F696B6A6BEE
:103B700012000401B22B000EB323B423B5231200AC
:103B8000400EE66EA3C4E6FFA4C4E6FF12006A5B23
:103B9000400E0401A327000EA4231200676B686B7C
:103BA000696B6A6B120079517A117B117C111200DA
:103BB000F3CFA7F4F4CFA8F41200400EE66E400E47
:103BC000E66E040EE66EE66A010E1200010EE66E67
:103BD0002FDFD8EF1DF0E66A010E1BEF1DF057DE58
:103BE000E552E552E552E552000912000401010ECA
:103BF0006B6F1200E66E1BEC12F0006E050EE15EBC
:103C0000120000C0E6FF01C0E6FF21EF1DF010DF4B
:103C100081EF1DF0A5C4E9FFA6C4EAFF1200010E62
:103C2000E66E1BEF1DF0F3CF00F0F4CF01F01200B1
:0A3C3000000EE66E060EE66E1200AE
:063C3A00030012004FEF31
:103C40002CF0120012000FEF18F012001E0EE66E9C
:103C5000010EE66EF7EC11F0E552E552DDEF17F0DC
:103C600065840A01080E376F070E386F3707000E9C
:103C7000385B37513811FAE165941200D9CFE6FF6D
:103C8000E1CFD9FFFD0EDBCF1DF0FE0EDBCF1EF026
:103C9000720E1D1801E11E5033E0E8681D1802E1A4
:103CA0007F0E1E182BE0740E1D1801E11E5024E03B
:103CB000750E1D1801E11E501DE0730E1D1801E167
:103CC0001E5016E0030E1D1801E11E500FE0020EFB
:103CD0001D1801E11E5008E0010E1D1801E11E50E3
:103CE00001E010D0B3DF0FD0B0DF0DD0ACDF0BD0D0
:103CF000A8DF09D0A2DF07D0A2DF05D0A3DF03D061
:103D0000000001D000D0010E00D0E552E7CFD9FF6E
:103D10001200DACFE4FFE2CFDAFFE9CFE4FFEACF27
:103D2000E4FFF6CFE4FFF7CFE4FFF8CFE4FFF5CFF1
:103D3000E4FFF3CFE4FFF4CFE4FFFACFE4FFFBCFDF
:103D4000E4FF00EE15F0140EE80403E3EECFE4FF09
:103D5000FBD700EE00F0150EE80403E3EECFE4FF1E
:103D6000FBD7E6529D50010B07E09E50010B04E08B
:103D70009D909E90CD900AD0F050080B05E0F05039
:103D8000010B02E0F09602D067EC11F0E55200EE74
:103D900014F0150EE80403E3E5CFEDFFFBD700EECA
:103DA00028F0140EE80403E3E5CFEDFFFBD7E5CFE1
:103DB000FBFFE5CFFAFFE5CFF4FFE5CFF3FFE5CF5B
:103DC000F5FFE5CFF8FFE5CFF7FFE5CFF6FFE5CF4D
:103DD000EAFFE5CFE9FFE5CFDAFF1100D8CFE4FF36
:103DE000E0CFE4FFE46EDACFE4FFE652E552E5CF40
:103DF000DAFFE550E5CFE0FFE5CFD8FF1000020E77
:103E000079DA5EEC2DF09CDA04D89DEC12F039D80A
:103E1000FED74FEC2CF00F01496949CF48FF93685A
:103E20009568D08EF28EF29C550EA76EAA0EA76EE4
:103E30000E01FF91090ECC6F0A0ED36F170EFB6FA8
:103E4000050EE76F550EA76EAA0EA76EFF8113EC45
:103E500011F04ADA49DADFEC2AF003D80FDA13EF6F
:103E600021F00801006B40DA3FDAF3EC27F05CEC5C
:103E700027F008EC2EF0050E3DDA5DEC28F0A0EFFF
:103E800021F01ED80801005102E061EF1FF0200E62
:103E90000001E76E9E19E8AE02D0E73402D0E75089
:103EA0009E5D03E36550020B07E091BE08D0030E50
:103EB00021DA47EC2DF044DA5AEC18F035D912002B
:103EC00012000001EA5143E1FA0EE66EA7EC2EF073
:103ED000E55248EC2CF00001010EEA6F93689568FA
:103EE0000A01366B8194938E8150800B800A01E029
:103EF000010E0A01366FDFEC2AF0050EE66E080EA1
:103F0000E66E540EE66E010EE66EE66AE66AADEC0B
:103F100009F0006E060EE15E0050300E08010D5DE6
:103F20000001E96F08EC2EF00D0EE66E080EE66E4D
:103F300011C8E6FF12C8E6FF13C8E6FF14C8E6FF83
:103F400075EC26F0006E060EE15E0050ECD003EC3E
:103F50002AF0000965E00A01365113E04DEC2AF021
:103F600005080FE281BE0DD0010EE66EE66A050E71
:103F7000E66E0A0EE66E47EC2DF0E552E552E5528C
:103F8000E5528A90050EE66E0A0EE66EFAEC27F010
:103F9000E552E552050EE66E0A0EE66EBEEC28F01E
:103FA000E552E5521BC005F81CC006F81DC007F815
:103FB0001EC008F820EC2EF0F3CF19FAF4CF1AFA4D
:103FC0000001640EE86F8A8019CA00F01ACA01F075
:103FD000030ED89001320032E804FBE100C001F08A
:103FE000006A0001E85108010010096F01C00AF8D9
:103FF00008010B6B0C6BE3EC29F0050EE96E080E63
:10400000EA6EEE500A01155DEE500A011659EE50A7
:104010000A011759EE500A01185901E2FF0083D036
:10402000F6EC29F0000901E177D0310E0801135DAB
:1040300041E1390EE66EAAEC25F0E5521F0B0008AF
:1040400003E38150040B33E01B0EE66E0A0EE66EAE
:10405000C5EC25F0E552E55227EC2AF000090FE106
:10406000E9C0E6FF1B0EE66E0A0EE66E53EC2AF080
:10407000E552E552E552000902E01AEC2AF0F6ECAE
:1040800029F0000908E01B0EE66E0A0EE66E2FEC22
:104090002AF0E552E5520CEC2AF0000902E01AEC95
:1040A0002AF0EEEC29F0000901E03DD0C2D78BECFC
:1040B0002CF032D01B0EE66E0A0EE66EC5EC25F033
:1040C000E552E55227EC2AF000090FE1E9C0E6FFCE
:1040D0001B0EE66E0A0EE66E53EC2AF0E552E55230
:1040E000E552000902E01AEC2AF0F6EC29F000098A
:1040F0000DE01B0EE66E0A0EE66E2FEC2AF0E5527E
:10410000E552240EE66E71EC2CF0E5520CEC2AF030
:10411000000902E01AEC2AF0EEEC29F0000903E0B5
:10412000EBEC2AF000D01200F5D8550EF8D80A01B1
:1041300004516C0A3FE01B0A01E012009FD8210ED7
:10414000E66E5D0EC3D8210EE66E5D0EE66E270E9E
:10415000E66E080ED3D8180EE66E5D0EB7D8180EB0
:10416000E66E5D0EE66E1C0EE66E080EC7D88AD8A7
:104170001B0EE66E0A0EE66EC5EC25F0E552E55222
:104180008A9020EC2EF0F3CF19FAF4CF1AFA00013E
:10419000640EE86F8A808ED81BCA31F81CCA32F8C8
:1041A0001DCA33F819CA37F81ACA38F8E8C03CF8FB
:1041B00029EF21F063D866D8080EE66EE66A400E55
:1041C000E66E080EE66E050EE66E0A0E9FD8BDD8A6
:1041D0001AEC28F0E552E5526DD8080EE66EE66A54
:1041E0004B0EE66E080EE66E0D0EE66E0A0E8ED8CB
:1041F0000D0EE66E0A0EE66EBEEC28F0E552E552B4
:104200001BC015FA1CC016FA1DC017FA1EC018FAFA
:104210000AD81FD8656A0F01366B00019E6B080132
:10422000010E006F120005C832FA06C833FA07C83B
:1042300034FA08C835FA320EE66E0A0EE66E6AD80F
:10424000E3EC21F07DD8E66A65D8F40EE66EE66A06
:104250006ED0E66A020EE66E2E0EE66E5BD819ECA4
:104260002CF0006E050EE15E00500A01046BE66A58
:1042700051D8550EE66E010EE66E59D04BD8540E4D
:104280008FEF21F0F3EC27F0300E08010D5D0001F7
:10429000E96F08EC2EF00D0EE66E080EE66E11C802
:1042A000E6FF12C8E6FF13C8E6FF14C8E6FF75EC88
:1042B00026F050D0DF0EE66E000EE66ED40EE66EEF
:1042C000000EE66E42D881EC28F044D0E66E33EC66
:1042D0002CF0E552E552F3CF00F0F4CF01F0F3CF2C
:1042E000E6FFF4CFE6FF1200FA0EE66EA7EC2EF022
:1042F000E5521200E66EE66AA5EF21F0E66ECBEC21
:104300002BF0026E060EE15E02501200E66ECBEC60
:104310002BF020D0050EE66E080EE66E1200E66E5B
:10432000010EE66EE66AE66AADEC09F013D0E66AC5
:10433000E66AFCEC0BF0006E070EE15E0050120026
:10434000E552E552E552E5521200050EE66E0A0E00
:0E435000E66E1200006E060EE15E00501200D6
:02435E00E6DA9D
:10436000020EE126DE6ADD6ADE6ADD6AC5DA3E0E2D
:10437000EADA0AE281DADE50E924E96EDD50EA2069
:10438000E6DAF4E3DB2AF2D73E0EDE6EDD6AB4DA5B
:10439000400ED9DA12E270DADECF02F0DDCF03F0A0
:1043A000C00E0226010E0322E9500224E96EEA50F3
:1043B0000320CDDAECE3DB2AEAD7020EE15C02E26D
:1043C000E16AE552A2D2B2DA060EB5DA600E7FDA01
:1043D0004CDA000E005C020E015807E2CBDA09DB72
:1043E000EF6AC4DAF5E3DB2AF3D7040EDB6A050EC5
:1043F000DB6A3BDA200EA7DA0DE2900E026E590E50
:10440000036E000E87DADBCF06F0F0D91ADBF1E39A
:10441000DB2AEFD7D950FB0FE96EFF0EDA20EA6EE8
:10442000EE50ED101FE0070E52DA1FDA0B0E8BDA9A
:1044300019E2040EDBCF02F0050EDBCF03F0070E0E
:10444000025E000E035AFB0EDB500224E96EFC0EE6
:10445000DB500320EA6EEF50E66E8CDAF2DAE5E329
:10446000DB2AE3D7480EF66E590EF76E000EF86E93
:104470000900F5CFDEFF0A00F5CFDDFF200E27DAB9
:10448000F4D9400E60DA0AE2B00E026E590E036EE5
:10449000000EB8DAD6DAF4E3DB2AF2D72DDA01C05F
:1044A00000F0016A67DA3B0E0CDA64DA3A0EE926AC
:1044B000000EEA22DFCFEFFFB8DA0800F550E66E13
:1044C00059DA3C0EE926000EEA22BEDAB2D9080E0D
:1044D00005DAFEE14FDA3D0EF4D9ABD9100EFED964
:1044E000FEE148DA3E0EEDD9A4D9180EF7D9FEE167
:1044F00041DA3F0EE6D9020EDB6A030EDB6A2CDAE4
:10450000080E21DA01E3ACD062DA1BC000F01CC057
:1045100001F0400E0026000E0122040E00C0DBFF59
:10452000050E01C0DBFFA1D92CDA1DDA0250005CB8
:104530000350015820E2D00E026E590E036E000E99
:1045400061DA67DA8FD9A4D91DC004F01EC005F066
:104550007ED9440E6CD904C0EFFF9AD919C004F07B
:104560001AC005F074D9450E62D904C0EFFFFED918
:10457000DAE3DB2AD8D7480E086E590E096E000E12
:104580000A6E010EE76E020EDBCF0BF0030EDBCFDF
:104590000CF0E7500B26000E0C220D6AD8900B365B
:1045A0000C360D3608500B24F36E09500C20F46EB7
:1045B0000A500D2017DAF5CF06F00800F5CF07F006
:1045C00007C006F0076AE9D8CED9050E9AD906C009
:1045D000EFFF480E066E590E076E000E63D9D89095
:1045E00009360A360B36E2D9BED9060E8AD92CDA3C
:1045F0006C0E066E590E076E000E54D9020ED8903E
:1046000009360A360B36E806FAE1D0D9200E33DA3D
:104610001C0E0DD919DAF6D883D9FEE1D2D8080ECE
:1046200064D9FEE1CED9010E07DA7AD9FEE1C9D804
:10463000100E5BD9FEE1C5D9020EFED971D9FEE19B
:10464000C0D8180E52D9FEE1BCD9030EF0D806C06E
:10465000EFFF020EDB2A030E01E251D7DB2A4FD710
:10466000060EE15C02E2E16AE5524FD15FD9050E28
:1046700062D9040EDB6A0001F76BF86B000EF75D80
:10468000010EF85901E378D01D6A010E1E6EFB0E73
:10469000DBCF22F0FC0EDBCF23F064EC2BF000012B
:1046A000F7511B24006EF8511C20016E010E0026EC
:1046B000000E012200C0DEFF01C0DDFF71D8DECF99
:1046C000EEFFDDCFEDFF18D90006000E015A0050B5
:1046D000011004E165D8F80EEE6EED680DD9000604
:1046E000000E015A010E001805E1015003E158D8EF
:1046F000EE68ED68040EDB6A090EF36E040EDBCF84
:10470000F4FFF350F45C33E25A0E006E590E016E62
:10471000000E026E040EDBCF03F0046A056AD89027
:1047200003360436053600500324F36E015004208E
:10473000F46E0250052056D9020EF5CFDBFF0A00B9
:10474000030EF5CFDBFF08D9DECF02F0DDCF03F09B
:104750000206000E035A0250001806E10350011829
:1047600003E11ED8EE68ED68040EDB2AC5D7000110
:10477000F72B000EF82382D7050EE15C02E2E16A16
:10478000E552C3D0D3D8F6D8E926010EEA22EE6866
:10479000ED68E552E7CFD9FF12006AD9C1EF24F0E6
:1047A00067D9020E1D6E1E6AF7C022F0F8C023F012
:1047B00064EC2BF000501B24E96E01501C20EA6EC3
:1047C00012000A500D24F36E0B500E20F46E0C50A4
:1047D0000F2008D9F5CF06F00900F5CF07F0090042
:1047E000F5CF08F00800F5CF09F01200076A025073
:1047F0000524F36E03500620F46E0450072028D9D8
:10480000BAEF24F06C0E0A6E590E0B6E000E0C6E91
:10481000010EE76E020EDBCF0DF0030EDBCF0EF0C4
:10482000E7500D26000E0E220F6A020E120023D949
:10483000F5D0FBD80900F5CF00F00900F5CF01F065
:104840000900F5CF02F00800F5CF03F01200300E9A
:104850000426000E05220CD9BAD81BC002F01CC0D9
:1048600003F01200C6D824EF25F0040EDBCF00F0D1
:10487000050EDBCF01F01200DECFE9FFDDCFEAFF4E
:10488000BE0EE926040EEA22EF50E66EBAEF24F0DF
:10489000E8D80A0E226E236A04C01DF005C01EF07F
:1048A000BEEF2EF0086E010EE76E020EDBCF09F0B0
:1048B000030EDBCF0AF0E7500926000E0A220B6A2E
:1048C0001200E926000EEA2200C0EFFF1200F36E8C
:1048D000040EF3CFDBFF050EDB6A1200D890033223
:1048E000023201320032E8061200D8900932083252
:1048F00007320632E8061200DECF00F0DDCF01F00D
:104900001200025E000E035A89D0E16EE552E7CF35
:10491000D9FF1200046E040EDBCF05F0050E120065
:10492000D8900D360E360F36E8061200D9CFE6FFC6
:10493000E1CFD9FF1200E126DE6ADD6A020EDB6AF2
:10494000030EDB6A1200005C000E01581200EA6ED2
:104950007BD8DF2A010E1200020EDBCF00F0030E1F
:10496000DBCF01F01200400E3BEF25F0040EDB2AF6
:10497000050E1200FD0EDBCFE9FFFE0EDBCFEAFFD6
:104980001200010EE76E6DD8E7500426000E0522D6
:10499000200E1D6E1E6A04C022F005C023F064ECD8
:1049A0002BF01BC002F01CC003F0120006500924BB
:1049B000F36E07500A20F46E08500B2049D8CDEF53
:1049C00023F0EBDE200E57D81C0E3BEF25F0200E17
:1049D0001D6E1E6A020EDBCF22F0030EDBCF23F02A
:1049E00064EF2BF0F86EF4CFF7FFF3CFF6FF09007A
:1049F0001200040EDB50E924E96E050EDB50EA20BC
:104A0000EA6E120087DF0001066A1F0E0516F6EF38
:104A100023F0E9CF00F0EACF01F0120000500224A9
:104A2000E96E01500320EA6E12006C0EF66E590E0C
:104A3000F76E000EF86E1200FADE06C0EFFF02EF0E
:104A400024F010DFB6EF24F0E552E750EF6E1200CD
:104A5000F86EF4CFF7FFF3CFF6FF0800F550E66EDF
:104A60001200020EDBCF04F0030EDBCF05F01200C4
:0E4A700081DF09EF25F00226000E032212005E
:024A7E00D9CF8E
:104A8000E6FFE1CFD9FF0A0EE66E2C0EE66E48D89F
:104A9000E552E5520000E66A380EE66E41D8E5526E
:104AA000E5520000FE0EDBCFE6FF240EE66E38D89E
:104AB000E552E552F00EE66E270EE66E31D8E5526D
:104AC000E552100EE66E2E0EE66E2AD8E552E5523D
:104AD000E552E7CFD9FF120055DAFE0EDBCFE6FF35
:104AE0002A0E0FDAFD0EDBCFE6FF1D0E0ADAFC0EF2
:104AF000DBCFE6FF210E05DAFB0EDBCFE6FF220E51
:104B000000DAFA0EDBCFE6FF230EFBD9200EE66EAD
:104B10002E0EF7D93CD2300EE66E1CD8E5521200AC
:104B2000D9CFE6FFE1CFD9FF8B9E828C0000000039
:104B30000000A49EFE0EDB50756EA4AEFED7A49EB0
:104B4000FD0EDB50756EA4AEFED78B8EE552E7CF1F
:104B5000D9FF1200D9CFE6FFE1CFD9FF8B9E828C1F
:104B6000000000000000A49EFE0EDB508009756E60
:104B7000A4AEFED7A49E756AA4AEFED78B8E7550E8
:104B800000D0E552E7CFD9FF1200D9CFE6FFE1CF41
:104B9000D9FF8B9E828C000000000000A49EF20EC4
:104BA000756EA4AEFED7A49E756AA4AEFED7A49E71
:104BB000756AA4AEFED7FD0EDBCFE9FFFE0EDBCF9C
:104BC000EAFF75CFEFFFFD0EDBCFE9FFFE0EDBCF77
:104BD000EAFFEF7EA49E756AA4AEFED7A49E756A16
:104BE000A4AEFED7FD0EDBCFE9FFFE0EDBCFEAFF62
:104BF000EE5275CFEFFFFD0EDBCFE9FFFE0EDBCFF0
:104C0000EAFFEE52EF7EA49E756AA4AEFED7A49E84
:104C1000756AA4AEFED7FD0EDBCFE9FFFE0EDBCF3B
:104C2000EAFF020EE926000EEA2275CFEFFFFD0E25
:104C3000DBCFE9FFFE0EDBCFEAFF020EE926000E16
:104C4000EA22EF7E8B8EE552E7CFD9FF12009AD988
:104C5000FD0EDBCFE6FFFE0EDBCFE6FF96DFE55273
:104C6000E55247D9640E036E236E00C01EF07ED954
:104C7000AED95CD901C01EF049D905C01EF06ED96D
:104C8000010E89D900C01EF077D9020EA7D9030EF4
:104C900096D901C01EF06AD9040E24D947D902C0A2
:104CA0001EF034D906C01EF059D9050E74D901C0C2
:104CB0001EF062D9060E92D9070E81D902C01EF0ED
:104CC00055D9080E0FD932D903C01EF01FD907C01D
:104CD0001EF044D9090E5FD902C01EF04DD90A0E4C
:104CE0007DD90B0EFFD8EF6A52D14CD9050EE126C3
:104CF000D1D8E66A2E0E05D9E66A380E02D9040E1E
:104D0000E66E2D0EFED8FB0EDB50330A0CE0010AD6
:104D100008E0030A04E0010A08E1DF6A08D0010E96
:104D200005D0020E03D0030E01D0010EDF6EFC0E83
:104D3000DB50390A2AE0010A25E00F0A20E0010AC7
:104D40001BE0030A25E0010A14E0070A0FE0010A4C
:104D50000AE0030A05E0010A1BE1010EDB6A1BD031
:104D6000DE52060E17D0DE52070E14D0DE52080EA9
:104D700011D0DE52090E0ED0DE520B0E0BD0DE52D9
:104D80000C0E08D0DE520D0E05D0DE520E0E02D0F3
:104D9000DE520A0EDD6EFD0EDB50330A0BE0010A17
:104DA00007E0030A03E0010A0BE10AD05F0E03D01B
:104DB0009F0E01D0DF0EF36E020EF3CFDBFF02D0A9
:104DC000020EDB6AFE0EDB50330A11E0010A0CE032
:104DD000030A03E0010A16E115D0100EF36E030E6C
:104DE000F3CFDBFF040E11D0030EDB6A05D0100EEB
:104DF000F36E030EF3CFDBFF100EF36E040EF3CF52
:104E0000DBFF04D0040EDB6A030EDB6A040EDF1046
:104E1000E66E310E76D8030EDBCFE6FF010EDB50D7
:104E2000E552E710E66E2C0E6CD8020EDBCFE6FFE3
:104E3000380E67D8FD0EDB5031080CE19384F18AFF
:104E4000F08CF090F086020EE66E2E0E5AD8E66ACE
:104E50002F0E57D8040EDB502809E66E2D0E51D8C0
:104E60002D0EE66E71D8E552E750EF6E310EE66E0C
:104E70006BD8010E96D8E66A67D8020E92D8E66A19
:104E800063D8030E8ED8050EE15C02E2E16AE552BA
:104E9000E16E7DD0828C736A728E729C729A729867
:104EA0007296729472927290739C94949396958C6D
:104EB000949E7288728A1200F096E66A2E0EE66E52
:104EC0002FDEE552E552E66A380EE66E29DEE5523F
:104ED000E552040EE66E2D0EE66E22DEE552E55238
:104EE00000001200E76E73D8E750E926000EEA22B0
:104EF00012005ED8EECF00F0EECF01F0EFCF02F05F
:104F00001200E66E0DDEE552E5521200F2EC2EF0D4
:104F10001E50300F006E4CD8EECF05F0EECF06F0ED
:104F2000EFCF07F0640E086E236E1200E552E750D3
:104F3000EF6E3ED8EECF01F0EECF02F0EFCF03F0F0
:104F40000A0E046E236E120005DEE552E66EF90EBF
:104F5000DBCFE9FFFA0EDBCFEAFF1200F2EC2EF016
:104F60001E500A0DF350005CE66E1200F2EC2EF0BB
:104F70001E50300FE66E1200F2EC2EF01A50300F79
:104F8000E66E1200D9CFE6FFE1CFD9FF1200E5525D
:104F9000E7CFD9FF120022D8ACDF0A0E036E236ED2
:104FA0001200E926000EEA22E552E750EF6E1200E9
:104FB000FD0EDBCFE9FFFE0EDBCFEAFF120092DF32
:104FC0002C0EEF6E96DF640E036E236E1200FB0E46
:104FD000DBCFE9FFFC0EDBCFEAFF120083DFE552F7
:064FE000E750EF6E120025
:0A4FE600CD86A49085D90F013F8FFE
:104FF00091EF29F06BD9030E0F013F13B2D9E5529F
:10500000E750EF6E35D9EE5299CFEFFFAAD9020ED5
:1050100097D9B1D9030E94D9A4D9040E91D928D91E
:105020006FD999CFEFFF9DD9060E8AD9A4D9070E63
:1050300087D951D14BD95FD9030E0F013F1318D92E
:10504000EF50E66E08D9E552986E12D9EE52EF5045
:10505000996E0ED9020E96D9030E19D9996E08D9F8
:10506000040E90D94DD9EF50996E02D9060E8AD907
:10507000070E0DD9996E55D92ED128D93CD90F01DB
:105080003FB9FDD7906A3FB9FED7916A240E9112BD
:105090009182EED8020E7AD9030EF9D88F6EE8D835
:1050A000040E74D92DD9EF508F6EE2D8060E6ED94A
:1050B000070EEDD88F6E35D90ED108D9D9D87FD942
:1050C000030E43D9020E41D91BD979D9040E3DD91B
:1050D000070E3BD9060E68D9EF6A06D9ABDFE55259
:1050E000E552C6D8060E60D9FB0EDBCFEFFFFCD829
:1050F000C4DFE552E5520F013F8F918EECD06FEF88
:1051000029F0E4D8F1D876DFE552E552B1D8040EA3
:105110002CD9F90EDBCFE9FFFA0E3FD9040E28D9BE
:10512000010E03D9070E21D9030EFFD8070E20D98F
:10513000040EFBD8060E19D9060EF7D8060E18D99C
:10514000070EF3D8020E11D9FB0EDBCFE9FFFC0EE0
:1051500024D9020E0DD9010EF0D8030E06D9030E84
:10516000ECD8030E05D9040EE8D8F2D8CCD8080E36
:10517000E4D8EED8CCD8090E1BD9ADD0A7D8040EF0
:10518000E12676D8060E10D9EFCF00F000C0DFFF81
:10519000010EDB6A020EDB6A030EDB6A69D8070EBA
:1051A00087D8060E1F0B02E08AD8FEE1F3D8040E62
:1051B0007FD80C0E1F0B02E082D8FEE1EBD8020E66
:1051C00077D8110E1F0B02E07AD8FEE1E3D8030E68
:1051D0006FD8160E1F0B02E072D8FEE1DBD8EFCFBE
:1051E00000F0016A026A036A1A0E1F0B02E067D818
:1051F000FEE153D8DECF1BF0DECF1CF0DECF1DF07A
:10520000DDCF1EF0DD52DD52040EE15C02E2E16A08
:10521000E552E16E60D0D9CFE6FFE1CFD9FFFE0EB7
:10522000DB5003E10F013F9B06D00F01550EA76E27
:10523000AA0EA76E3F8BE552E7CFD9FF120046D8E2
:10524000FE0EDB500F0B006EFE0EDB380F0B0A0D4F
:10525000F350002440D03AD80A0E026E5CD81AC02F
:1052600001F00A0E006E57D81E38F00B011033D033
:10527000FD0EDBCFE9FFFE0EDBCFEAFF120094D874
:10528000A8EF29F0DBCFEAFFE750A0EF29F08CD898
:10529000EF50E66EE0DFE55212000050DE120150E2
:1052A000DE120250DE120350DD12DD52DD5212001A
:1052B0007BD8EFCF00F0016A026A036A1200D8902F
:1052C0000036013602360336E8061200D9CFE6FF73
:1052D000E1CFD9FF1200E552E7CFD9FF1200985075
:1052E000E66EADDFE5521200FD0EDBCFE6FFFE0EEF
:1052F000DBCFE6FF1200010EE66E8DDFE5521200F5
:10530000050ED4EF29F01E50300FE66E12001A5031
:10531000300FE66E1200236EFE0EDBCF1EF0F2EFB2
:105320002EF0E66A78DFE5521200E76EF90EDBCF69
:10533000E9FFFA0EA7DF38EF29F03AD838EF29F065
:1053400033D8E552E750EF6E12002ED8DFEF29F088
:10535000EFCF00F00A0E016E236E00C01EF0F2EFD8
:105360002EF0BDDFE66E38EF29F089DF83EF29F0FC
:1053700086DF87EF29F09950E66E61DFE552E66E31
:1053800038EF29F084DF986E38EF29F080DF8E6ED9
:1053900038EF29F082DF38EF29F0DBCFEAFFE55262
:1053A000E750EF6E38EF29F0E926000EEA221200EE
:1053B000E76EFB0EDBCFE9FFFC0E42EF29F0010E9A
:0653C000EF6E38EF29F04A
:0A53C6000001FB6BFC6B08010D6B8E
:1053D00012007E0E0001FB6FFC6B120000017E0EBE
:1053E000FB1901E1FC5101E0000C010C00017E0EF3
:1053F000FB5D000EFC5901E3000C010C0001FB6990
:105400000F0EFC6F1200FF0E0001FB1902E10F0EE0
:10541000FC1901E0000C010C01D90DD9FEE110D9F5
:10542000EF50006E016AFF0E001801E1015001E02B
:10543000000C010C0001FB2B000EFC23D7DF000940
:1054400005E0ECD8F8D8FEE1FBD8EF6A1200E6D808
:10545000F2D8FEE1F5D8EF5001E0000C010CD9CFF5
:10546000E6FFE1CFD9FFDAD8E6D8FEE1E9D8EF2AA6
:10547000DBD8EECF00F0EECF01F0EFCF02F0CED8C8
:10548000DAD8FEE1E7D800C0EEFF01C0EEFF02C0AF
:10549000EEFFE552E7CFD9FF1200F9C000F0940EFD
:1054A000005E00501200D9CFE6FFE1CFD9FFBCD893
:1054B000EFCF01F0B3D8BFD8FEE1CCD8EF50D88001
:1054C00001540AE2B1D8EFCF02F0A8D8B4D8FEE177
:1054D000C1D8EF50025C66D0A7D8EE52EFCF08F0EB
:1054E0009DD8A9D8FEE1B6D8EE52EF50D880085426
:1054F00002E3000E01D0010E076E90D89CD8FEE1A9
:105500009FD8EECF03F0EECF04F0EECF05F08CD8AD
:10551000EF50045C07240CE087D8EE52EFCF09F07F
:105520007DD889D8FEE196D8EE52EF50095C3AD08A
:1055300094D8EFCF0FF072D87ED8FEE18BD885D803
:10554000EF50D8800F5402E3000E01D0010E0E6E12
:1055500065D871D8FEE174D8EECF0AF0EECF0BF02B
:10556000EECF0CF061D8EE52EF500C5C0E240BE045
:1055700074D8EFCF10F052D85ED8FEE16BD865D862
:10558000EF50105C0FD04AD856D8FEE159D8EECF74
:1055900011F0EECF12F0EECF13F0EFCF14F05DD894
:1055A000EF50145C006EFC0EDB50D880005402E318
:1055B000000E01D0010EE552E7CFD9FF1200000125
:1055C000940EF96F110EFA6FFB690F0EFC6F1CEC55
:1055D00008F04DEF0DF0E66A050EE66E080EE66E79
:1055E000F9C000F0FAC001F0026A036AF9C0E6FFF0
:1055F000FAC0E6FF02C0E6FF03C0E6FFFCEC0BF0DA
:10560000046E070EE15E0450000907E00001F92B6B
:10561000000EFA23FB690F0EFC6F000CFBC0E9FFC4
:10562000FCC0EAFF020E1200FD0EDBCFE9FFFE0E0A
:10563000DBCFEAFF1200D890E936EA36E80612001E
:105640000D0EE926080EEA221200020EE926000ECF
:10565000EA221200F5DFEE521200E6DF25EF2BF012
:10566000156AE86A23AE3DEF2BF0206C211E221E46
:10567000231E212222222322151E1EAE48EF2BF0CC
:105680001B6C1C1E1D1E1E1E1C221D221E22151EF2
:1056900068EC2EF01EBE5FEF2BF015AE000C1B6CFD
:1056A0001C1E1D1E1E1EE86A1C221D221E22176CB7
:1056B000181E191E1A1E182219221A22000C15BEB5
:1056C0004FEF2BF01688FF0C1DC027F01D50220253
:1056D000F4CF1CF0F3CF1BF01E502302F4CF1EF0CA
:1056E000F3CF1DF02202F3501C26F4501D22E86A6D
:1056F0001E2227502302F3501C26F4501D22E86A74
:105700001E22000C1EC028F01DC027F01CC026F071
:105710001C502102F4CF1AF0F3CF19F01D502202D1
:10572000F4CF1CF0F3CF1BF02102F3501A26F450F3
:105730001B22E86A1C2226502202F3501A26F4503B
:105740001B22E86A1C221E502102F3501B26F45033
:105750001C221E5022021D6AE86A1D22F3501C26DC
:10576000F4501D2226502302F3501B26F4501C2215
:105770001E6AE86A1D221E2227502302F3501C26AF
:10578000F4501D22E86A1E2228502302F3501D26E1
:06579000F4501E22000C83
:0A579600D9CFE6FFDACFE6FFFA0EE6
:1057A000E3CFD9FFFB0EE3CFDAFFFC0EE3CFE9FF37
:1057B000FD0EE3CFEAFFE9CFF3FFEACFF4FFF80EE7
:1057C000E35003E1F90EE35008E0F80EE30602E2CD
:1057D000F90EE306DECFEEFFF2D7FF0EE3CFDAFFDE
:1057E000E552FF0EE3CFD9FFE5521200FB0EE3CFE7
:1057F000F6FFFC0EE3CFF7FFFD0EE3CFF8FFFE0E42
:10580000E3CFE9FFFF0EE3CFEAFFE9CFF3FFEACFF3
:10581000F4FFF90EE35003E1FA0EE35009E0F90E4C
:10582000E30602E2FA0EE3060900F5CFEEFFF1D738
:105830001200FE0EE3CFE9FFFF0EE3CFEAFFE9CF50
:10584000F3FFEACFF4FFFB0EE35003E1FC0EE3505D
:1058500009E0FB0EE30602E2FC0EE306FD0EE35058
:10586000EE6EF1D71200FE0EE3CFE9FFFF0EE3CF9D
:10587000EAFFF36AF46AEE5203E0F34AF42AFBD734
:02588000120014
:0E588200D39CD39AD398D380D3829B9C1200E0
:10589000D38CD38AD388D380D3829B9C1200D9CF58
:1058A000E6FFE1CFD9FF020EE126580EDE6E020EB2
:1058B000DD6E9B8CDFCF00F0DF06010EDBCF01F049
:1058C00001E2DB0600500110F5E1D390D392020E05
:1058D000E15C02E2E16AE552E16EE552E7CFD9FF11
:1058E0001200D9CFE6FFE1CFD9FF9A9ECD8ECD9C95
:1058F000CD8ACD88CD86CD849F809D80CD80CD9270
:10590000CF68FE0EDB28E86CCE6ED39E0300E55216
:10591000E7CFD9FF1200F090F086D39E030012006B
:105920006582C08EF29E0F014D910F014D930F01C4
:105930004C85D39E0F014D8F03001200C0960F01BE
:085940004C9100000000120070
:08594800030044008500070183
:105950000B02D2039D06AD0A4310430084000601EA
:105960000A02D1039C06AC0A42109F170080200057
:105970000080200000004100000082000080E30061
:1059800000806501000008020000CB020080AE0329
:105990004845444745484730303030080000000053
:1059A0000000000000006686A73C00000000000028
:1059B000636F6E66696720207572652008063B8AF2
:1059C000A73CA73C00006257A63C020000802000D4
:1059D0004C4F4730303020204848472008063B8A4B
:1059E000A73CA73C00006257A63C45000080010090
:1059F000000EF66E100EF76E000EF86E0001090034
:105A0000F550F06F0900F550F16F03E1F06701D038
:105A10003DD00900F550EB6F0900F550EC6F09001F
:105A2000F550ED6F09000900F550E96E0900F550D9
:105A3000EA6E090009000900F550EE6F0900F55003
:105A4000EF6F09000900F6CFF2F0F7CFF3F0F8CFCF
:105A5000F4F0EBC0F6FFECC0F7FFEDC0F8FF00017B
:105A6000EE5302E1EF5307E00900F550EE6EEE074A
:105A7000F8E2EF07F9D7F2C0F6FFF3C0F7FFF4C082
:0E5A8000F8FF0001F007000EF15BBFD7120027
:025A8E00D9CF6E
:105A9000E6FFE1CFD9FFF29EF3EC27F032D85DECC0
:105AA00028F0E552E552E552E5520F013FB9FDD726
:105AB00090EC2CF0E552E7CFD9FF1200D9CFE6FFEA
:105AC000E1CFD9FFC0A619D09EEC2CF0F18E0F01CA
:105AD000496949CF48FF936895688C8C41EC2CF05C
:105AE000010EE66E00EC2FF0E55281AE06D009D82B
:105AF000CEDFE552E552E552E552E552E7CFD9FF58
:105B00001200FB0EDBCFE6FFFC0EDBCFE6FFFD0E47
:0C5B1000DBCFE6FFFE0EDBCFE6FF12004D
:045B1C001201000270
:105B200000000008F0FF3700010001020301090234
:105B30002000010100C032090400000208065000E4
:105B4000070581024000010705010240000104032E
:105B5000090422034500530053002000540055005F
:105B60002D004400610072006D007300740061003C
:105B7000640074001203480065006400670065005B
:105B800048006F0067000A03300032003300340021
:0F5B90002E5B004E5B00525B00745B00865B0077
:105BA0001B502002F3CF17F0F4CF18F02102F3506E
:105BB0001826000EF420196E1B502202F3501926ED
:105BC000000EF4201A6E1B502302F3501A261C50AC
:105BD0002002F3501826F4501922000E1A221C50ED
:105BE0002102F3501926F4501A221C502202F350BD
:105BF0001A261D502002F3501926F4501A221D5067
:105C00002102F3501A261E502002F3501A261200C9
:105C1000928A93908A800F014899C18EC19CC70EC9
:105C2000C1140809C16EF80EC1140209C16E498F72
:105C3000C29CC29EC30EC2141009C26EC280120062
:105C4000D9CFE6FFE1CFD9FF020EE126C282C2B270
:105C5000FED7C350DF6E010EC4CFDBFFDECF00F0F6
:105C6000DDCF01F000C0F3FF01C0F4FF020EE15CE4
:105C700002E2E16AE552E16EE552E7CFD9FF120098
:105C80000095000001F900000887040009AF000139
:105C90000A1B00010CC301000DAF020010FF000041
:105CA00011FF000112FF000118FF000119FF0001A0
:105CB00020FF000021FF000026DF010037730000F5
:105CC0003A2504003B25000029FF040017FF0000CF
:105CD0001A6A196A186A176A200EE76ED8901B367E
:105CE0001C361D361E361736183619361A36205011
:105CF000175C215018582250195823501A5809E39C
:105D00002050175E2150185A2250195A23501A5AFF
:085D10001B2AE72EE4D7120064
:085D18004865646765486F6788
:105D200000762E312E32373300008004022000002E
:105D300000455353205455442E4D617373205374C2
:0D5D40006F72616765202020203030303107
:025D4E00FF0E46
:105D5000E3502A6EEF0E01D0F30EE76EE72EAEEFA2
:105D60002EF00C0E296EE76AE72EB4EF2EF0292EE6
:0C5D7000B3EF2EF02A2EACEF2EF0120044
:045D7C001A6A196A1C
:105D8000100EE76ED8901D361E3619361A36225080
:105D9000195C23501A5805E32250195E23501A5AF1
:085DA0001D2AE72EF0D71200C6
:085DA800C00EF36E00EE00F0E6
:105DB0000E0E01D81200EA6002D0EE6AFCD7F35052
:085DC000E9601200EE6AFCD755
:085DC8001DEE00F02DEE00F0CD
:105DD000F86A169CF8EC2CF016EC2FF0FFEC1EF095
:045DE000FBD71200DB
:0C5DE4001A6A080EE76ED8901E361A36B8
:105DF00023501A5C02E31A6E1E2AE72EF7D7120010
:105E0000FF0EE350E84E1200000000D000D000D09A
:065E1000E82EFAD7120093
:0A5E1600F36AF46AF32A0F0B05E0AB
:0C5E2000D890F336F436E804FBE11200E1
:025E2C00120062
:025E2E00303111
:105E30002F30312F323031320030303A30303A307A
:055E4000300015000018
:0B5E4500EB3C904D53444F53352E3082
:105E500000024008000100020000F8EC003F00FFD3
:105E6000008700000039E03A000000290A3886C89F
:105E70004E4F204E414D4520202020464154313682
:055E800020202055AABE
:01FFF800AA5E
:01FFF900F710
:01FFFA001DE9
:01FFFB00FF06
:01FFFC0063A1
:01FFFD00F80B
:01FFFE008181
:01FFFF00F110
:00000001FF
