:020000040000FA
:06000000BCEF3CF0120011
:0600080086EF1EF012005D
:06001800E3EF1EF01200F0
:10100000010C64C0F3FF65C0F4FF120060C01BF068
:1010100061C01CF062C01DF063C01EF01200938816
:10102000828C949C92861200BCEC0CF0828C000C9A
:10103000F2EC0FF0110EE126829C69EC0FF076ECD9
:101040000FF0FDE155EC0FF008000A0E64EC10F013
:10105000060EEECFDBFF070EEECFDBFF54EC10F0F9
:1010600069EC0FF076EC0FF0FDE1EAEC10F0050E04
:10107000F5CFDBFF0A0EDB8C0CEC10F0090E0CEC4C
:1010800010F0080E0CEC10F0070E0CEC10F0060E31
:101090000CEC10F0050E0CEC10F0FE0EDB50050809
:1010A00002E1CCEC0CF0140EF36E0B0EF3CFDBFF71
:1010B0000C0EDB6ACCEC0CF0DF6E0B0EDB060C0EBC
:1010C00001E2DB06FF0EDF5C05E1D9500B0F7FEC80
:1010D00010F0F0E169EC0FF076EC0FF0FDE1C0EC00
:1010E00010F0020807E1010EDFCFDBFFCCEC0CF0C3
:1010F000DF6E4BD069EC0FF076EC0FF0FDE1C0EC49
:1011000010F001082AE10D0EDB6A0E0EDB6A0A0EF2
:10111000F36E0F0EF3CFDBFF100EDB6ACCEC0CF09E
:10112000DF6ED9500D0FF1EC10F0EE06000EEE5A06
:10113000EE5AEE5ADF500FE10D0EDBCF00F00E0E2F
:10114000DBCF01F00F0EDBCF02F0100EDBCF03F090
:1011500088EC10F0E3E1DF6A18D069EC0FF076EC70
:101160000FF0FDE1C0EC10F004080FE1CCEC0CF046
:10117000E76E040E83EC10F0030E83EC10F0020E09
:1011800083EC10F0010EE7CFDBFF00EC10F069EC10
:101190000FF076EC0FF0FDE155EC0FF0030ED7ECFD
:1011A0000FF001E1828CE7EC10F0EECF03F0EFCF0F
:1011B00004F0F7EC0FF042EC10F0110EE15C02E2EB
:1011C000E16AE552E16EFCEF0FF0F2EC0FF00E0E6B
:1011D000E126829C69EC0FF076EC0FF0FDE155EC16
:1011E0000FF008000B0E64EC10F0070EEECFDBFFE3
:1011F00054EC10F00A0EEECFDBFF69EC0FF076EC4A
:101200000FF0FDE1EAEC10F0060EF5CFDBFF0B0E60
:10121000DB8C11EC10F00A0E11EC10F0090E11EC41
:1012200010F0080E11EC10F0070E11EC10F0060E85
:1012300011EC10F0FE0EDB50050802E10FEC0DF092
:10124000140EF36E0C0EF3CFDBFF0D0EDB6A5BECBE
:1012500010F001E2DB06010EDB50FF0805E1D9507A
:101260000C0F7FEC10F0F3E169EC0FF076EC0FF06F
:10127000FDE1C0EC10F0020808E1010EDB50E76E62
:10128000020E4FEC10F0010E31D069EC0FF076EC4D
:101290000FF0FDE1C0EC10F0010813E10C0EDB686B
:1012A0000D0EDB685BEC10F001E2DB06010EDB509B
:1012B00005E1D9500C0F7FEC10F0F4E1010EDB6A70
:1012C00017D069EC0FF076EC0FF0FDE1C0EC10F0F8
:1012D00004080EE1A4DBE76E050E4FEC10F0040EDF
:1012E0004FEC10F0030E4FEC10F0020EE7CFDBFFD7
:1012F0008DEC10F069EC0FF076EC0FF0FDE155ECA1
:101300000FF0030ED7EC0FF001E1828C010EDBCF62
:1013100000F0020EDBCF01F0030EDBCF02F0040E73
:10132000DBCF03F0050EDBCF04F0F7EC0FF042EC5F
:1013300010F00E0EE15C02E2E16AE552E16EFCEFB4
:101340000FF0F2EC0FF00E0EE126DE6A020EDD6EFB
:10135000DB6AF36E030EF3CFDBFF040EDB6A050ED0
:10136000DB6AF90EDBCF1DF0FA0EDBCF1EF0060EA6
:101370001DC0DBFF070E1EC0DBFFD950FB0FE96E5F
:10138000FF0EDA20EA6E54EC10F00A0EEECFDBFF0F
:101390000B0EEECFDBFF010EF36E0C0EF3CFDBFF77
:1013A000D9CFE6FFDACFE6FF19D8E552E552E76E6E
:1013B0000D0EE7CFDBFFDB5002E1010E05D00D0E75
:1013C000DB50FF08EDE1000E006E0E0EE15C02E264
:1013D000E16AE552E16E0050FCEF0FF0F2EC0FF025
:1013E000060EE12663EC0FF0EF50FF0A01E187D013
:1013F000010A01E17CD0FC0A4FE0010A32E0020A56
:1014000005E0010A01E07BD0000E7DD00001796B80
:10141000020E7A6F91EC0FF0665104E1090E9CEC1C
:1014200010F0FDE1D880000E000194EC10F006E30E
:10143000010E7F6F26EC10F0080E04D07F6B26ECB7
:1014400010F0090EADEC0FF0010EDB5020E10001B1
:101450007B6B7C6B040E7D6F7E6B63EC0FF0030E79
:1014600019D000017B517C117D117E1110E07B07AA
:10147000000E7C5B7D5B7E5B8FDADF6EFF0EDF5CD8
:1014800028E0FE0EDF5C03E100EC11F03CD063ECE1
:101490000FF0FE0EEF6E1DD00001B1EC10F01DE05C
:1014A000C1EC0FF06DEC10F0795F6D517A5B35D8BF
:1014B000000179517A110FE16FDA6EDA0001B1ECB7
:1014C00010F004E063EC0FF0030EEF6E796B020E88
:1014D0007A6F010E18D0020E16D07F5105E1DEECB6
:1014E0000FF0050E04EC10F0F5EC10F00CD063ECEE
:1014F0000FF0EF68DEEC0FF0050EADEC0FF0828C14
:1015000000EC10F0FF0E006E060EE15C02E2E16AF4
:10151000E552E16E0050FCEF0FF000016C516D11CF
:1015200001E12ED0E9CF80F0EACF81F0F3CF82F055
:10153000F4CF83F06CC0F3FF6DC0F4FF72C0E9FF1D
:1015400073C0EAFF7550E86EA49E756806D0A4AE1D
:10155000FED7A49E75507568EE6E000EF306F45A21
:10156000F350F410F4E1A4AEFED775CFEEFFA49EC5
:1015700082C0F3FF83C0F4FF80C0E9FF81C0EAFFAF
:101580001200F2EC0FF0090EE12663EC0FF0EF50C1
:10159000FE0A01E1DED0FA0A01E1C8D0070A01E142
:1015A00098D0010A62E0030A05E0010A01E0DBD0FD
:1015B000000EDCD00001856B020E866F91EC0FF0FF
:1015C000D880000E94EC10F003E30A0E8B6F3BD032
:1015D0000B0E8B6F6EC000F06FC001F070C002F098
:1015E00071C003F0090EA3EC10F0FDE100C0DFFFB5
:1015F000010E01C0DBFF020E02C0DBFF030E03C0C1
:10160000DBFFE7EC10F0EFCF03F088EC10F007E120
:10161000F7EC0FF0EE2A000EEE22EE22EE22DEECC8
:101620000FF00F0EE66E7CEC0FF00DE1F7EC0FF013
:10163000EECFE6FFEECFE6FFEECFE6FFEFCFE6FF21
:10164000130E04EC10F00001665104E1090E9CEC4D
:1016500010F0FDE126EC10F08BC0E6FF7CEC0FF003
:1016600001E07FD000EC11F032D0000185510CE197
:10167000020E861909E10B0E8B5D02E1FC0E01D012
:10168000FE0EE66E7BD9E552C1EC0FF000016DEC69
:1016900010F0855F6D51865B73D80001855186110E
:1016A00016E1856B020E866F00EC10F000EC10F076
:1016B00073D91F0B050836E163EC0FF0030EEF6ED4
:1016C0000001876B886B0A0E896F8A6B4ED0020E01
:1016D0004DD000018751881189118A1123E08707B5
:1016E000000E885B895B8A5B00EC10F055D9000125
:1016F000846FE8503AE0B1EC10F011E1876B886B31
:101700000A0E896F8A6B0B0E8B5D20E1FD0EE66E73
:1017100035D9E55200EC10F0D6DB040E05D000EC14
:1017200011F024D0D0DBFE0EEF6E1FD000018751E8
:10173000881189118A110DE08707000E885B895B8B
:101740008A5B2AD90001846FE8500FE0F5EC10F0B5
:101750000DD0DEEC0FF0050E04EC10F0828C00ECE6
:1017600010F0B1DBEF68FF0E01D0030E006E090E22
:10177000E15C02E2E16AE552E16E0050FCEF0FF03D
:1017800000016C516D1101E12AD0E9CF8DF0EACF53
:101790008EF0F3CF8FF0F4CF90F06CC0F3FF6DC0FC
:1017A000F4FF72C0E9FF73C0EAFFEE5003D0EE50C1
:1017B000A4AEFED7A49E756E000EF306F45AF35045
:1017C000F410F5E1A4AEFED775CF8CF0A49E8FC0C7
:1017D000F3FF90C0F4FF8DC0E9FF8EC0EAFF120056
:1017E000F2EC0FF0E652F80EDB500FE1FB0EDBCF10
:1017F00000F0FC0EDBCF01F0FD0EDBCF02F0FE0EA1
:10180000DBCF03F088EC10F02BE00001916B020EAF
:10181000926F936B946F956B966BF90EDBCF97F08D
:10182000FA0EDBCF98F0FB0EDBCF99F0FC0EDBCF8E
:101830009AF0FD0EDBCF9BF0FE0EDBCF9CF0010E8D
:101840009D6F910EE66E000EE66E9BDEE552E55250
:10185000DF6EDF5002E1010E04D0FF0EDF5CF1E12C
:10186000000EE552C9D38050080B01E0010E1200B2
:10187000D9CFE6FFE1CFD9FF050EE126FE0EDB5002
:10188000DF6EDF50DF0600096BE00801005107E062
:10189000006A120E016E7A0E026E036A07D0006AA9
:1018A0006C0E016EDC0E026E020E036E080E206ED0
:1018B000216A226A236A00C01BF001C01CF002C02A
:1018C0001DF003C01EF0EEEC38F01BC000F01CC091
:1018D00001F01DC002F01EC003F0E80E206E030EE2
:1018E000216E226A236A00C01BF001C01CF002C0F6
:1018F0001DF003C01EF0EEEC38F01BC000F01CC061
:1019000001F01DC002F01EC003F0050E005E000EC7
:10191000015A000E025A000E035A010E00C0DBFFEE
:10192000020E01C0DBFF030EDB6A040EDB6AD95036
:10193000010FE96EDACFEAFFEFCF00F0EE06000EFE
:10194000EFCF01F0EE5AEFCF02F0EE5AEFCF03F0F7
:10195000EF5A005001100210031001E0E8D791D7B0
:10196000000000D0050EE15C02E2E16AE552E16EA2
:10197000E552E7CFD9FF1200729A1200FAEC10F08C
:10198000FE0EDB50756E72AE02D0FF0E03D0A4AE19
:10199000FED7000EE55230D3FAEC10F07568A4AE15
:1019A000FED77550E55228D31DDB736A726AFE0EAE
:1019B000DB507212738C94949396958C728A1CD31C
:1019C00011DB020EE1268B948A8694949396DF6A4B
:1019D000080EDF5C19E28B94FE0EDBAE02D08A8625
:1019E00001D08A96DB50020DFE0EF3CFDBFFDE52F4
:1019F000010EDD6E34DBFEE18B84DE52010EDD6E06
:101A00002EDBFEE1DF2AE4D78B94000E006E020E7F
:101A1000E15C02E2E16AE552E16E0050EDD2E2DA09
:101A2000030EE126020EDB6A8A869396958C8B94D0
:101A30009494DF6A080EDF5C16E28B94DE52010E8E
:101A4000DD6E0DDBFEE18B84DE52010EDD6E07DB09
:101A5000FEE1020EDB50020D020EF3CFDBFF83BC72
:101A6000DB2ADF2AE7D78B94020EDB50006E030ED1
:101A7000E15C02E2E16AE552E16E0050BDD2726AB9
:101A80008B948A86949493961200ACDA230EE12606
:101A90000001676B686B606B616B626B636B666B9D
:101AA000828CEDDF1E0EE66EE3DEE552828CDE6A8E
:101AB000DD6ADECF00F0DDCF01F00A0E005C000E23
:101AC000015806E22ADBDF2A010EF3E3DB2AF1D715
:101AD000640EDE6EDD6A828C20DB829CDF06010EE6
:101AE00001E2DB066CDB02E063DBF5E161DB0CE1CC
:101AF000828C13DB829C62DA050E5EDB60DB04E025
:101B00000001020E676FB2D1AA0EE66E010EE66EFC
:101B1000E66AE66A020E50DB00680F0E016E026A8A
:101B2000036AA4DAAA0E001841E1010E01183EE191
:101B300002503CE103503AE1D950020F52DBEF5022
:101B4000040B34E13BDA100E37DBDE6ADD6ACEDAF5
:101B500016E234DA0F0EE5DA006E050EE15E005093
:101B6000E66AE66AE66A400EE66E120E25DB020EB3
:101B7000DB5005E0DF2A010EEAE3DB2AE8D7B6DA1C
:101B800003E30001020E676F19DA100E15DB006A1D
:101B9000016A026A400E036E69DABADA04E00001F3
:101BA000010E666F20D00001666B1DD0828C010E85
:101BB000E66E5EDEE552829C0001666BDE681F0EFB
:101BC000DD6EFCD9010EF8DADF06010E01E2DB065C
:101BD000020EDB5002E0ECDAF4E1EADA04E10001A3
:101BE000020E676F828C828CE66ADEDEE552829C92
:101BF000140EDE6EDD6AE2D9030EE66E18EC08F014
:101C000043D9DF06010E01E2DB06020EDB5002E0E3
:101C1000CFDAF1E1CDDA04E10001020E676F25D1E0
:101C20001C0EDB6A1B0EDB6A140EF36E1B0EDBCF81
:101C3000F4FFF350F45C20E2AFDEE66ED950070FFC
:101C4000006EDACF01F01C0EDB500F010024E96EAC
:101C5000000EDA20EA6EE552E750EF6E1C0EDB2A2A
:101C60001B0EDB5006E1070EDB50FE0802E11C0EE6
:101C7000DB6A1B0EDB2AD8D70001646B020E656F8E
:101C8000696B6A6F6881070EDB50C00B2FE00E0E88
:101C9000DBCF00F0016A026A036A3F0E0016016A98
:101CA000026A036A100E1F0B02E054DAFEE10F0E07
:101CB000BDD9100E88D91D0EDBCF60F01E0EDBCF14
:101CC00061F01F0EDBCF62F0200EDBCF63F000016E
:101CD000602B000E6123622363230A0ED8906037C5
:101CE000613762376337E806F9E1A0D00D0EDBCF2C
:101CF00000F0016A026A036A100E1F0B02E02ADA82
:101D0000FEE10E0E93D90F0E5ED9D9501D0F69DA80
:101D1000C00EEE16EE52030EEE16EE6A1D0EDBCF6F
:101D200000F01E0EDBCF01F01F0EDBCF02F0200E05
:101D3000DBCF03F0060E07DAFEE12DDA100EDB50E2
:101D4000030BE824006E110EDB50800BE844010BFE
:101D50000010E76E210EE7CFDBFF0C0EDB500F0B00
:101D6000E76E220EE7CFDBFFDB50F70F006E010EB0
:101D7000005204E0E846FE0B0006FCE1E76E220E8E
:101D8000E7CFDBFFDBCF0CF00D6A0E6A0F6A210E86
:101D9000DB50020FD8EC3CF0F3CF08F0F4CF09F0A1
:101DA0000A6A0B6A010E046E056A066A076AD95050
:101DB0001D0F17DAEE500426EE500522EE500622D3
:101DC000EE50072204C01BF005C01CF006C01DF039
:101DD00007C01EF0F3CF20F0F4CF21F00AC022F0AC
:101DE0000BC023F073EC3BF017C000F018C001F0FB
:101DF00019C002F01AC003F017C01BF018C01CF085
:101E000019C01DF01AC01EF00CC020F00DC021F04A
:101E10000EC022F00FC023F073EC3BF017C060F04F
:101E200018C061F019C062F01AC063F000016007C9
:101E3000000E615B625B635BC1D8110EE5D864C0C4
:101E400000F065C001F0026A036A64C0E6FF65C085
:101E5000E6FF02C0E6FF03C0E6FF070EE66E18ECE1
:101E600008F0046E050EE15E0450828C670E006E71
:101E7000000E016E00C0F3FFF46E230EE15C02E27F
:101E8000E16AE552E16EB8D071D9020E00C0DBFF05
:101E9000030E01C0DBFF040E02C0DBFF050E03C012
:101EA000DBFF060E04C0DBFF120000500324F36EBC
:101EB00001500420F46E02500520F86EF4CFF7FFB5
:101EC000F3CFF6FF120060D90C0EE926000EEA22CD
:101ED0001200C20E006E770E016E000E026EFE0E34
:101EE000DBCF03F0046A056A020E1200D8900336B5
:101EF00004360536E806120018EC08F037D9040E4F
:101F000000C0DBFF050E01C0DBFF060E02C0DBFFD9
:101F1000070E03C0DBFF080E04C0DBFF040EDB501E
:101F2000120032D9EECF6CF0EECF6DF0EECF6EF046
:101F3000EECF6FF0EECF70F0EECF71F0EECF72F02B
:101F4000EECF73F0EECF74F0EECF75F0EECF76F00B
:101F5000EECF77F0EFCF78F01200E66E18EC08F0D5
:101F600005D9010E00C0DBFF020E01C0DBFF030E2E
:101F700002C0DBFF040E03C0DBFF050E04C0DBFF65
:101F8000120002D9EECF6CF0EDCF6DF0FDD8060E49
:101F9000E926000EEA22EECF72F0EDCF73F06CC0AE
:101FA00000F06DC001F0026A036A00501200F626CC
:101FB000000EF722F8220800F5501200E66AE66AE1
:101FC000E66AE66A1200DBCF08F0096A0A6A0B6A61
:101FD00008500012095001120A5002120B5003124D
:101FE000CBEF10F0D9CFE6FFE1CFD9FF1200D9CF68
:101FF000E9FFDACFEAFF1200E552E7CFD9FF12007E
:10200000E668BCDCE5521200E66E18EC08F0006EE3
:10201000050EE15E00501200DBCFE6FFAFDCE552BB
:102020001200DBCFE6FFCCDCE5521200DBCF04F080
:1020300004C005F0046A066A076A045000120550DD
:1020400001120650021207500312120074C0E6FF7C
:1020500075C0E6FF76C0E6FF77C0E6FF1200010E0E
:10206000DBCFF3FFDB06F35000091200D950030F5A
:10207000B8D8EE500016EE500116EE500216EE5093
:1020800003161200ED50ED5004C0EDFF03C0EDFF4C
:1020900002C0EDFF01C0EDFF00C0EFFF1200E7CF6F
:1020A000DBFFBDDCE76E1200080EEECFDBFF090E92
:1020B000EECFDBFF1200B3DCE76E010EE7CFDBFFF4
:1020C0000C0EDB060D0E1200F5CFDBFFD950FA0F18
:1020D000E96EFF0EDA20EA6E12006E5F01506F5B50
:1020E0000250705B0350715B6C511200DECF00F048
:1020F000DDCF01F0FF0E005CFF0E0158120071D819
:10210000EE50ED101200E7CFDBFF46DCE76E120069
:1021100000500110021003101200E66851DCE55275
:102120001200E66EE5EF08F06E55020E6F55000ED8
:102130007055000E71551200D89074377537763788
:102140007737E8061200D8900332023201320032AB
:10215000E8061200D8900036013602360336E8064B
:1021600012006E516F117011711112004DD8EECF27
:1021700003F0EECF04F0056E050EE15E055012008F
:1021800094DE020ED7EF0FF0FD0EDBCFE9FFFE0E5F
:10219000DBCFEAFF12001D0E00C0DBFF1E0E01C0E8
:1021A000DBFF1F0E02C0DBFF200E03C0DBFF1200AF
:1021B0001EDFEE50ED101200B4DF44EF0FF0FEDE34
:1021C000E66AE5EC08F060DE020EDB0412000FDFC9
:1021D00004EF11F06ADEF62A000EF722F82208005A
:1021E0001200E96EDACFEAFF1200828C09DF6BDEA3
:1021F000EF6A1200F7DEE6527550DF6EA49E120001
:1022000062DE020EEF6E1200EECF00F0EECF01F0B4
:06221000EECF02F0120007
:0A22160099EC17F0A098636A626A61
:102220000F01266BF9EC16F00F013FEC17F0DF6A97
:102230002FEC17F003E2DFEC16F0FAD7658C0F01F4
:10224000386B6598659C62A607D062960001B66BF4
:10225000BB6BBC6BBD6BF7D70001010ED06FD16FAC
:10226000D26BD36BC46BDF6A030EDF5C11E2EA6AE8
:10227000DF349CEC17F0EA22EE6AED6AEA6ADF349A
:10228000A3EC17F0EA22EE6AED6AEFEC16F0ECD759
:102290000001080EAB6F040EAC6F0F01160E266F17
:1022A0000401300E026F040E036F080E016F840EDE
:1022B000006F00019F6B9E6BE552B9EF16F099EC31
:1022C00017F000019E0509E165BA07D0626A0F01A7
:1022D000368136890001020E9E6F6250040B06E0C3
:1022E0000F013651040B02E0629459DB65B243D012
:1022F0006250010B0AE00F013651010B06E08BDF43
:10230000A0880001040E9E6F62906250100B06E0E0
:102310000F013651100B02E037DB629862AC09D036
:102320000F0136AD05D046EC17F0730E7DEC16F0BC
:10233000629C6250200B05E00F013651200B01E03A
:1023400012DB6250020B0CE00F013651020B08E069
:1023500046EC17F0E6687F0EE66EAAEC17F0636AAB
:10236000040E0001E76E9E19E8AE02D0E73402D0F9
:10237000E7509E5D02E2A1982FD00F0136A72BD027
:10238000DF6A040EDF5C27E262A625D064CFC5F0C9
:102390000001C551780BE842E842E842C66F6296F8
:1023A000C5B504D0C651B8EC17F003D0C651BDEC8A
:1023B00017F0EA22EF70C65102E1FEDA0AD0000EF1
:1023C000E66EE66AC50EE66E000EE66E720E7DECF7
:1023D00016F0DF2AD6D7A198E552B9EF16F06BECCC
:1023E00017F0FD0EDBA403D0E66A37EC17F0FD0E04
:1023F000DBA204D0010EE66E37EC17F0FE0EDB50C8
:10240000016A260F006E0F0E29EC17F0AAEC16F0E9
:10241000FD0EDBCFEFFF020EE15C02E2E16AE55266
:10242000E16EB9EF16F06BEC17F0FD0EDB5003E038
:1024300078EC16F002D0D0EC16F015EC17F0D9CFEE
:10244000E9FFDACFEAFFEE50ED1003E1F36AF46A38
:1024500028D0AAEC16F0CCEC17F0FB0EDBCFEEFF89
:10246000FC0EDBCFEDFFAAEC16F0EE52FA0EDBCF3E
:10247000EFFF400EC2EC17F0880ED1EC17F0FD0E06
:10248000DB5003E078EC16F002D0D0EC16F0EA2234
:10249000EF74DECF00F0DDCF01F000C0F3FF01C02C
:1024A000F4FF020EE15C02E2E16AE552E16EB9EF8F
:1024B00016F06BEC17F0FE0EDB5003E179EC17F031
:1024C00009D0D5EC16F059EC17F0D5EC16F0010F49
:1024D00059EC17F0020EE15C02E2E16AE552E16EAE
:1024E000B9EF16F0B4EC16F065A817D08AEC17F027
:1024F000400EEE16EE6AEE6AEE6A8AEC17F0EE7C9B
:1025000078EC16F0EA22EF74400E006E8AEC17F0B9
:102510000050EF168AEC17F0EF7CB9EF16F0656A01
:102520000F01366B00019E6B120000019E5110E1FD
:10253000656A0F01366B3FEC17F0D08EA288A08839
:10254000F28E65B602D06586FCD70001010E9E6F43
:1025500012000001D05127E1010ED06FD15123E1CB
:10256000010ED16F020EB25D09E1AFEC16F0EE5232
:10257000EF6AAFEC16F0C80EEF6E1200B20513E171
:10258000C76BC5EC16F0EE52080EEF6EC5EC16F0F8
:1025900065EC17F0C5EC16F0840EEF6E010EC76FF8
:1025A000A3DB800EEF6E12000001D26BD36B020E24
:1025B000B25D07E1C6EC17F0CAEC16F054EC17F068
:1025C00010D0B7510401365D0001B85104013759EC
:1025D00004E236C4B7F037C4B8F061D8C0DBDADB48
:1025E000BEDBC80EEF6E12006BEC17F0000EDE6E55
:1025F000040EDD6EDADB040DF4CF01F0D9CFE9FF74
:10260000DACFEAFFF350EE260150ED22A3DBEF9E76
:10261000FD0EDB5002E1C4DB01D06ADBEA22DECF33
:10262000EEFFDDCFEDFF96DBEF9C94DB040EE92699
:10263000000EEA22EF8C020EE15C02E2E16AE55252
:10264000E16E97D365980001B6BF0DD0BBAF09D03E
:10265000020EB26FD35101E1A7DF0001D16BD06B45
:10266000120079EF17F0040130AF0DD00001010E18
:10267000B26FD25101E198DF0001D16BD06BCF5125
:102680000DE1A9EF12F00001020EB26F2DDB840EF6
:10269000EF6ED16BD06BCF5101E15BDF120099EC93
:1026A00017F0080EDF6E0001B75D000EB8590AE2A0
:1026B000B7C0DFFFB15102E1010E03D0B10502E165
:1026C000020EB16FDF50016AE850B75DB76F01507D
:1026D000B859B86F44DBEE52DFCFEFFF380EC16F51
:1026E000040EC26FB6B110D0DF501AE0B3C0F6FFCF
:1026F000B32BB4C0F7FF000EB423B5C0F8FFB52369
:102700000800F55085DBF0D7DF500AE0B3C0E9FFE1
:10271000B4C0EAFFB32B000EB423EF5079DBF4D73B
:10272000E55227D3D8DB31DBEE52EFCFDFFFDFCF2F
:1027300000F000500001BC5D000EBD5902E2BCC0BB
:10274000DFFFDF50006E016AE850BC5DBC6F0150D6
:10275000BD59BD6F010EDB6ADF50F36E010EDBCF9A
:10276000F4FFF350F45C16E2010EDB50EA6A380F16
:10277000E96E040EEA22EF50E66EB9C0E9FFBAC076
:10278000EAFFB92B000EBA23E552E750EF6E010EB7
:10279000DB2AE2D7000ED880BC55000EBD550EE2F4
:1027A000C6EC17F0F7DAF1DAEF50400B03E17CDB0F
:1027B000C80E02D079DB880EEF6E15D095DA840E44
:1027C000EF6EBE51BF11C01109E007D0C0C0FBFFC2
:1027D000BFC0FAFF0001BE51F96EF8DF0001BB9FD8
:1027E000CF5101E1B6DE020EE15C02E2E16AE552A0
:1027F000E16EBFD29EDB0001B68FFBDADF6A2FDB12
:1028000002E2DDDAFCD7658CDF6A030EDF5C02E2F0
:10281000E6DAFBD7010EE66EE66AE66AA00EE66E21
:10282000000E7FDB659C0001080EAB6F040EAC6FE1
:10283000000EA16F040EA26FA1C0A3F0A46F32C45A
:102840009FF09F5102E1100E0BD0010EE66EE66A7A
:102850009F0EE66E000EE66E010E4FDA0001200EAE
:102860009E6FE55286D2800E0401305D40E100018A
:10287000C00EB66F04013351030A25E0010A0BE0D4
:10288000030A33E10001620EB36F760EB46F000EDF
:10289000B56F120E24D0D60E006E760E016E000EAD
:1028A00030DA020EF626000EF722F8220800F5CFE5
:1028B000B7F057DB030EF626000EF722F8220800C9
:1028C000F5CFB8F01200040E325D0CE2D90E006EA6
:1028D000760E016E000E15DA0800F5500001B76F94
:1028E000B86B12000001B66B12000001B66B12004B
:1028F000F2DA0401386B396B30511F0B020A11E018
:10290000030A0CE0010A1EE10001B68F04013881C0
:102910000001C30517E10401388314D00001B68F0C
:1029200011D00001B68F040134BF02D0E9DA01D022
:10293000ECDA7BDAF2DA06E00DDAEF50040B02E0B3
:10294000010E386F0001B6AF07D0380EB36F040E1A
:10295000B46FB681020EB76F020EE15C02E2E16A6B
:10296000E552E16E06D20F0126A10CD00EDAEF502F
:10297000800807E1F4D9EF50840803E106DA8C0EF1
:10298000EF6E2691629A12000F0136856298658279
:102990000001010EC46F4FDA750E7DEF16F00001D5
:1029A000C46B49DA740EA9D965920F01369562A4F9
:1029B00002D06294FCD71200BCDAFD0E0001C515EE
:1029C00039E17E0EC515E8407F0B040DF3CFA1F071
:1029D000F4CFA2F0000EA127040EA223A1C0A3F001
:1029E000A2C0A4F0A375D1D9EF503C0BE842E84255
:1029F0000D081EE1DF6A080EDF5C16E2C6D9020E82
:102A0000E926000EFFD9EF50E66EDF50EA6A300F7C
:102A1000E96E040EEA22E552E750EF6EB6D9BCDA51
:102A2000EE2AEF22DF2AE7D7B0D94FDA0AD807D04B
:102A300023D805D0FD0EC515040801E12CD8E552B8
:102A400098D10001B16BCF6BD26BD36BC76BB26BFC
:102A500086D9EF9EAB7583D9EF9EAB7525DAEF9ED5
:102A6000B66BB76BB86BBB6BBC6BBD6B54D8E3D9A3
:102A7000030E43D922EF13F0020E0001B25D02E112
:102A800092EF13F0B26BC75104E12ED98C0EEF6EAA
:102A90001200C76B12004DDA62D9EF50400B01E013
:102AA000010EDF6E0001AB75080E9E5D0BE132C4B6
:102AB00038FF0F01385103E00001100E02D0000171
:102AC000040E9E6FB20513E14AD964D9E8DD020E07
:102AD0000001B15D03E143D9840E07D0DF5003E16B
:102AE0003ED9C80E02D03BD9880EEF6E12D0BBAFD4
:102AF0000FD0BE51BF11C01109E007D0C0C0FBFF0D
:102B0000BFC0FAFF0001BE51F96EF8DF0001BB9FA4
:102B1000B26BE5522ED104013051600BE842E8421D
:102B2000E842E842E842000901E0120031510C0A93
:102B300045E00B0A3FE00C0A31E0010A22E00B0AF3
:102B40001EE0020A1CE0030A18E0080A10E0010A6D
:102B50000CE00F0A08E0030A01E012000001B68F42
:102B6000080E9E6F120033EF14F0FAEF13F000011D
:102B70009F0EB36F000EB46F0CD078EF14F0DFEF40
:102B800015F034510001B36FB46BA00EB327000EE3
:102B9000B423B681010EB76FB68F12000001B68F55
:102BA00004013451EA6AA00FE96E000EEA2232C431
:102BB000EFFF120040D9020E7DEF16F01200D4D8BC
:102BC000050EE1260401320510E130511F0B00090A
:102BD0000CE10001B68F030E0401315D04E1000138
:102BE000010EC36F02D00001C36B0401325101E03A
:102BF00074D030511F0B020870E134510F0B0009E3
:102C00006CE034510F0B020868E3200E00019E5D5A
:102C100064E1B68F040134BF04D072D906D911D94A
:102C200003D073D902D911D9EA22020EEFCFDBFF0C
:102C300034D9010B03E1000EDF9401D0DF8434BFEF
:102C400002D05ED901D061D9EA22DECFEEFFDDCF1E
:102C5000EDFF030E315D0CE160D907E034BF02D017
:102C6000F0D801D0F2D8EA22EF82840E9AD935D07A
:102C7000DF7453D906E06ED8EF9E6CD8EF8C2FD955
:102C800002D068D8EF8CDF7408D9020B02E145D975
:102C90000DE0040134BF02D0D4D801D0D6D8EA2246
:102CA000EF923B0E006E6ED91AD902D03B0E6AD954
:102CB000040134510F0B016A260F006E0F0E012222
:102CC000030E00C0DBFF040E01C0DBFF030EDBCFF1
:102CD000E9FF040EDBCFEAFFEF90050EE15C02E2B4
:102CE000E16AE552E16E45D051D9EFD854EF17F0C3
:102CF000FE0EEA6ADB349CEF17F0E66EE66AAAEF96
:102D000017F0026E32C403F0046A056A030E216EE6
:102D1000226A236A03C01CF004C01DF005C01EF027
:102D200040EC39F000501924F36E01501A20F46E73
:102D300002501B20F86EF4CFF7FFF3CFF6FF090027
:102D4000F5CFB3F00900F5CFB4F00800F5CFB5F03A
:102D5000B1EF17F0DECFE9FFDDCFEAFF1200ABC025
:102D6000E9FFACC0EAFF1200D9CFE6FFE1CFD9FFFF
:102D70001200E552E7CFD9FF120034510F0BE96E74
:102D8000EA6AD890E936EA361200A1C0E9FFA2C08B
:102D9000EAFF120001D9380EEE6E040EED6E12003D
:102DA000FE0EEA6ADB34A3EF17F0FD0EDB50E824D9
:102DB000026EFE0EDB50040DF35002241200DF50B1
:102DC000040DF3CFE9FFF4CFEAFF000EE926040E6D
:102DD000EA22EE6AEE6AEE6AEE6ADF2A1200DF503D
:102DE000CCD8EA22EF6ADF50C3D8EA22EF6ADF2AA2
:102DF0001200020EE66EE66AE66A270EE66E0F0E17
:102E000091EF17F0EA22EE50EFCFEAFFE96E1200E1
:102E1000E66EC1C0E9FFC2C0EAFFC12B000EC223AB
:102E2000E552E750EF6EDF061200EA22EECFDEFF3A
:102E3000EDCFDDFF1200000EE66EE66AE66EE66A92
:102E4000120034510F0BB8EF17F034510F0BBDEFD8
:102E500017F0012200C0DEFF01C0DDFF1200DF50CD
:102E6000006E016A0C0E005C000E01581200FE0E8E
:102E7000DBCFE6FFF4EC12F0E552E5521200160E3D
:102E8000396F9F0E376F7B0E366F1200010EE66EA4
:102E9000E66A000EE66EE66A1200D950020FE96E8D
:102EA000DACFEAFFEF501200A3C0E9FFA4C0EAFFA7
:102EB0001200040DF3CF00F0F4CF01F0000E002655
:102EC000040EC7DF840ED1EF17F066D8300EEE6E19
:102ED000040EED6E120048DF020EE1261200020E13
:102EE000E66EE66ADECFE6FFDDCFE6FF050E7DEF9C
:102EF00016F0FADE8C0EEF6E32DF840EEF6E1200EB
:102F00003CDFA50EE926000E120037DFAB0EE926E6
:102F1000000E1200EDDE02EF17F01CDFEF50800B09
:102F20001200E66EF8EC39F0006E050EE15E00501E
:102F300012001ADFE6521200FE0BEA36E96EAB0E03
:102F4000E926000E1200FE0BEA36E96EA50EE92610
:102F5000000E12003BEC1EF0006E060EE15E00500B
:102F60001200B3C0F6FFB4C0F7FFB5C0F8FF1200FF
:102F7000EA6ACB0FE96E000E1200EA6AC80FE96E2A
:102F8000000E1200E7DEE850EF1612008DDFEE5261
:102F9000080EEF6E54EF17F0020EE926000EEA223B
:0A2FA0001200D8DEE850EF12120014
:062FAA00D5EC1DF0F2EC75
:102FB0001DF079EC1DF0ADC0A7F4AEC0A8F404017B
:102FC0006C6B6D696E6B6F6BAE6BB66BB76BB86B22
:102FD000B96BBA6BBB6BBC6BBD6B010EAF6FAB6BF0
:102FE000AC6B7E6B010E7E5D11E28EEC1DF0EF6A24
:102FF00000EC08F0000905E06AEC1DF002E060EC6E
:103000001DF01DEC1CF004017E2BECD71200040116
:1030100030511F0B010801E01200345101E0120091
:103020003151FE0A29E0010A01E012003251331148
:1030300038E13651371101E0120004016C6B6D6903
:103040006E6B6F6B010EAF6F0001A751A81102E10B
:10305000000E08D0A7C0E9FFA8C0EAFFEF50800B20
:1030600001E0010E000904E1D5EC1DF0FFEC1DF0BC
:103070000001800EB66F12003251331112E1010EC1
:10308000361901E1375101E012000401386B0001EB
:10309000380EB36F040EB46F010EB76FB86BC10E6C
:1030A000B66F120057EC1DF0E652200E00019E5D37
:1030B00002E0000ED8D0A09804016C51030A01E18F
:1030C0009ED0010A01E18AD0030A01E183D0010AFE
:1030D00001E0C0D0A551A61102E1000E04D033ECEE
:1030E0001DF001E0010E000901E0BAD0DF6A1F0EF9
:1030F000DF5C13E2DF50EA6A400FE96E040EEA2259
:10310000EF50E66EDF50EA6A710FE96E040EEA22B4
:10311000E552E750EF6EDF2AEAD702EC1EF0EE52DE
:10312000EF501F0850E1550E040171194CE1530E88
:10313000721949E1420E731946E1430E741943E1D5
:10314000010EAF6F7E5100083BE37F51100838E35A
:10315000010E7F5D35E33F0E7D1532E10401550E12
:103160005F6F530E606F420E616F530E626F75C4D6
:1031700063F476C464F477C465F478C466F4C6EC8A
:103180001DF06B6B04016D696E6B6F6B706B030EE2
:10319000805D06E093919393939593979D6B9E6BBF
:1031A0007DAF02D0010E01D0020E6C6FCBEC1DF092
:1031B00002E0AE6B02D0010EAE6F80C46DF450D051
:1031C00007EC1EF04BD007EC1EF0E3EC1DF0040101
:1031D000AF6B46D04BD8FF0843E10DD047D8FF086E
:1031E0003FE104016B5107E16751681169116A11F0
:1031F00002E0020E6B6F0401030E6C6F31D0000110
:10320000AD51AE1102E1000E08D0ADC0E9FFAEC075
:10321000EAFFEF50800B01E0010E000921E10D0EE5
:10322000E66E5F0EE66E040EE66EDEEC1DF0040147
:10323000A551A61102E1000E04D033EC1DF001E00F
:10324000010E000904E1D5EC1DF0FFEC1DF00401B6
:103250006C6B06D06C6B0401020E6B6FE3EC1DF01F
:10326000A08804016C51E5525CEF1DF000EC08F001
:10327000000905E004018EEC1DF0EF040EE10401ED
:103280007E51D8EC3CF00BEC1EF0001E011E0050ED
:103290000401AB170150AC171CD07E51D8EC3CF0A8
:1032A0000401AB51F314006EAC51F414016E0050E4
:1032B000011011E16AEC1DF00CE060EC1DF093913F
:1032C000938393859397280E9D6F9E6BEEEC1DF074
:1032D00002D005D801D025D804016D511200040197
:1032E0006D51FD0A17E0EF0A15E00C0A0EE01E0A08
:1032F0000CE0030A11E1A1DA040193919383939501
:1033000093973A0E9D6F9E6B05D0EEEC1DF0040175
:103310006D69120091EF19F07F0EE66E2FDBE5521A
:103320001200C5DB0A0EE12604016D51FE0A01E11F
:103330001FD1030A01E1CDD0D20A01E1C6D0340A7F
:1033400001E1C3D01B0A01E1B1D01E0A01E1ABD0FB
:10335000040A01E191D0190A71E0260A39E0370A1E
:103360000FE0380A08E0020A01E002D145D900095D
:1033700001E002D1ACD0B5D9000901E0FDD0A7D061
:10338000AE0501E1F3D083C4B1F484C4B0F484C4C5
:1033900000F083C401F0026A036A84C4E6FF83C4B8
:1033A000E6FF47DB01E0E8D0240E7BDB240EE66E6F
:1033B000E66AB90EE66E780EE66E000EE66E10EC6A
:1033C0001EF089EC39F0006E070EE15E005067D008
:1033D00006EC08F0060E1BC0DBFF070E1CC0DBFF6F
:1033E000080E1DC0DBFF090E1EC0DBFF01EC08F05C
:1033F0000BEC1EF0020EF3CFDBFF030EF4CFDBFF6E
:10340000040EDB6A050EDB6A090EDBCF00F6080E40
:10341000DBCF01F6070EDBCF02F6060EDBCF03F69D
:10342000050EDBCF04F6040EDBCF05F6030EDBCF73
:1034300006F6020EDBCF07F6080E2DD0AE0501E131
:1034400095D0120EB06FB16B2CDBDF6ADF50006ECF
:10345000016A120E005C000E015821E2DF50EA6A98
:10346000910FE96E040EEA22EF50E66E5EDBE55244
:10347000E750EF6EDF2AEAD70601030E006F016BFB
:1034800033EC0CF0000902E0800E01D0000E0601C2
:10349000026F036B040E0401B06FB16B02DB040119
:1034A000FD0E6D6F69D02ADB99DB10D0E66AE66A03
:1034B000E66AE66A8CDB60E1040193510F0B0608B3
:1034C00003E104016B0503E0B8D904015FDB0401EB
:1034D0004DD0A751A81102E1000E03D0C8DA01E0D7
:1034E000010E000949E1400E795D000E7A59000E87
:1034F0007B59000E7C5909E3DE52400EDD6E795F88
:10350000000E7A5B7B5B7C5B07D0010E79C4DBFF2E
:10351000796B7A6B7B6B7C6B010EDB50006E016A02
:10352000E850B05D0150B15909E3010EDB50006E67
:10353000016AE850B05F0150B15B10D0DF6A010E44
:10354000DB50DF5C0BE2B051B11104E0B007000EBC
:10355000B15B02D0EADAEF6ADF2AF1D7010EDBCFE6
:10356000E6FF5EDB2BDB040116DB06E16D6904D0B0
:103570007F0EE66E03DAE5520A0EE15C02E2E16AD2
:10358000E552E16E99D293DAD7DA026A036A005003
:103590000401795D01507A5902507B5903507C59DE
:1035A00007E20401F3DA79C4B0F47AC4B1F423D0A9
:1035B000C3DAB051005CB151015806E2FD0EDBCF19
:1035C000B0F4FE0EDBCFB1F4B0C400F0B1C401F032
:1035D000026A036A790EE96E040EEA6E0050EE5C30
:1035E0000401676F0150EE58686F0250EE58696F22
:1035F0000350EE586A6F60D204016E51040A4BE02A
:10360000070A3CE0010A14E0030A0AE0010A60E14B
:1036100016DA99DAFEE1EDDA61E10401010E6E6F6E
:10362000B051B1115AE0B007000EB15B020E6E6FDF
:10363000A751A81102E1000E03D019DA01E0010E32
:1036400000094CE11BDAA1EC09F0006E060EE15E08
:10365000005001080AE0640E0401705D02E2702B64
:103660003DD00401020E3CDA36D07BDA73DA040175
:10367000000EA36F060EA46F030E6E6F0401675158
:10368000681169116A1104E10401010E6E6F26D000
:103690000401040E6E6FA751A81102E1000E03D0C1
:1036A000E6D901E0010E000919E162DA87DA0401C6
:1036B000030E6E6F400E795F000E7A5B7B5B7C5B66
:1036C000400E0401675F000E685B695B58DA06D044
:1036D0000401020E6B6F9BDA04016E6B04016E51E4
:1036E000120004016F51020A01E179D0060A5AE082
:1036F000070A2AE0020A1DE0010A01E095D09FD9DD
:1037000022DAFEE176DA01E095D033EC0CF0000924
:103710000DE064DA04019381938393859397270ED8
:103720009D6F9E6B50DA04016F6B85D00401010E12
:103730006C6FB051B11101E17CD0030E6F6F000EC0
:10374000A36F060EA46F06DAD880000E0401675539
:10375000000E6855000E6955000E6A5513E204010B
:10376000A551A61102E1000E03D07DD901E0010EA2
:10377000000960E1FDD9E66A010E41DA0401040E98
:103780006F6F10D033EC0CF0000909E027DA040168
:103790009391938393959397270E9D6F9E6B04014E
:1037A000020E40D0A551A61102E1000E03D05BD954
:1037B00001E0010E00093EE16BD9795F01507A5BAF
:1037C00002507B5B03507C5B63D90401675F01504F
:1037D000685B0250695B0350D2D9030E23D0040109
:1037E0006B511CE10401B251B311B411B51102E1E6
:1037F000010E01D0000EE66E41D9F0EC0BF0006E28
:10380000070EE15E0050010809E0640E0401705DDE
:1038100002E2702B0FD00401010E62D9A2D9B007C9
:10382000B15B010E6F6F06D00401020E6B6FCBD936
:1038300004016F6B04016F51120004019191919387
:10384000919591979189918B918D919F926B939185
:10385000939393959397939B939D939F946B956B61
:10386000966B976B0A0E986F996B9A6B9B6B9C6B20
:103870009D6B9E6B9F6BA06BA16BA26B120017D907
:10388000030EE126FB0EDBCF00F0FC0EDBCF01F0D8
:10389000FD0EDBCF02F0FE0EDBCF03F00050011077
:1038A0000210031006E1010EF36E020EF3CFDBFFF0
:1038B00002D0020EDB6A0401AE0503E1020EDB0456
:1038C00016E024D9EE1815E17A51EE1812E17B5179
:1038D000EE180FE17C51EE180CE10BE16C0504E1F0
:1038E0002A0E6D5D06E003D02A0E6D5D02E1000E2A
:1038F0003CD00CD9EE5C7A51EE587B51EE587C519D
:10390000EE5804E2DE52010EDD6E02D0010EDB6ADB
:10391000020E6C5D12E12A0E6D5D03E0020EDB50BB
:103920000AE0AE0511E0020EDB0403E0010EDB0449
:1039300002E1040E14D0050E12D02A0E6D5D02E1D4
:10394000030E0DD0AE0502E1010E09D0020EDB041C
:1039500003E0010EDB0402E1020E01D0030EDF6E74
:10396000DFCFE6FF0BD8E552DF50006E030EE15CBF
:1039700002E2E16AE552E16E00509ED098D8E6522C
:103980000401A751A81102E1000E03D070D801E094
:10399000010E000943E1A551A61102E1000E03D07A
:1039A00062D801E0010E000939E16CC4DFFF6D69E6
:1039B0006E6B6F6B79C467F47AC468F47BC469F486
:1039C0007CC46AF40BD90401030E6C6FFE0EDB504D
:1039D0007F0A16E07A0A10E0010A1AE0070A08E0F6
:1039E000010A19E0030A1AE10401020E6B6F16D0F6
:1039F0000401020E6B6F0FD00401020E6B6F08D032
:103A00001CDF04017BD8020EDF5C05E1C4D803E0B3
:103A1000E66A010E02D0010EE66E05D8E5524CD0E2
:103A2000E1D800501200E66E59EC12F0E552E55272
:103A3000120002C0E6FF03C0E6FFE7EF1DF082C4FC
:103A4000B5F483C4B4F484C4B3F485C4B2F487C4B5
:103A5000B1F488C4B0F488C400F087C401F0026AED
:103A6000036A090E1200CED8EF50800B1200A7C4D3
:103A7000E9FFA8C4EAFFEF50800B1200D1D8B2C40E
:103A8000E6FFB3C4E6FFB4C4E6FFB5C4E6FF120028
:103A9000B9D8EE52EFCF00F0016A026A036A005013
:103AA0001200E66EE66A6FDDE552E5521200D9CFEC
:103AB000E6FFE1CFD9FF1200E552E7CFD9FF1200B0
:103AC00004017E51D8EC3CF0F3500401AB13F450E8
:103AD000AC13120045EC0DF09ED8F350F410120018
:103AE0006B6F040193819383939593979D6B9E6B6A
:103AF0001200F3CFA5F4F4CFA6F4120093819393B0
:103B000093859397200E9D6F9E6B1200D950FB0FEB
:103B1000E96EFF0EDA20EA6E795112007E51EA6AF0
:103B2000AD0FE96E040EEA221200DF50EA6A000FC0
:103B3000E96E060EEA221200FD0EDBCF00F0FE0E4B
:103B4000DBCF01F01200D890003601360236033682
:103B5000E80612000401676B020E686F696B6A6BFE
:103B600012000401B22B000EB323B423B5231200BC
:103B7000400EE66EA3C4E6FFA4C4E6FF12006A5B33
:103B8000400E0401A327000EA4231200676B686B8C
:103B9000696B6A6B120079517A117B117C111200EA
:103BA000F3CFA7F4F4CFA8F41200400EE66E400E57
:103BB000E66E040EE66EE66A010E1200010EE66E77
:103BC0002FDFD0EF1DF0E66A010E13EF1DF057DE78
:103BD000E552E552E552E552000912000401010EDA
:103BE0006B6F1200E66E13EC12F0006E050EE15ED4
:103BF000120000C0E6FF01C0E6FF19EF1DF010DF64
:103C000079EF1DF0A5C4E9FFA6C4EAFF1200010E7A
:103C1000E66E13EF1DF0F3CF00F0F4CF01F01200C9
:0A3C2000000EE66E060EE66E1200BE
:063C2A0003001200A1EFEF
:103C30007FF01200120007EF18F012001E0EE66E61
:103C4000010EE66EEFEC11F0E552E552AE0EE66EB7
:103C5000A5EC29F0E552D5EF17F065840B01080EAD
:103C6000456F070E466F4507000E465B45514611EE
:103C7000FAE165941200D9CFE6FFE1CFD9FFFD0E3E
:103C8000DBCF1DF0FE0EDBCF1EF0720E1D1801E122
:103C90001E5033E0E8681D1802E17F0E1E182BE06D
:103CA000740E1D1801E11E5024E0750E1D1801E16F
:103CB0001E501DE0730E1D1801E11E5016E0030E8C
:103CC0001D1801E11E500FE0020E1D1801E11E50EB
:103CD00008E0010E1D1801E11E5001E010D0AEDF1A
:103CE0000FD0ABDF0DD0A7DF0BD0A3DF09D09DDF56
:103CF00007D09DDF05D09EDF03D0000001D000D0AB
:103D0000010E00D0E552E7CFD9FF1200DACFE4FF71
:103D1000E2CFDAFFE9CFE4FFEACFE4FFF6CFE4FF3A
:103D2000F7CFE4FFF8CFE4FFF5CFE4FFF3CFE4FFF4
:103D3000F4CFE4FFFACFE4FFFBCFE4FF00EE15F091
:103D4000140EE80403E3EECFE4FFFBD700EE00F02F
:103D5000150EE80403E3EECFE4FFFBD7E6529D50D7
:103D6000010B07E09E50010B04E09D909E90CD90CA
:103D700002D05FEC11F0E55200EE14F0150EE804ED
:103D800003E3E5CFEDFFFBD700EE28F0140EE804C7
:103D900003E3E5CFEDFFFBD7E5CFFBFFE5CFFAFF70
:103DA000E5CFF4FFE5CFF3FFE5CFF5FFE5CFF8FF73
:103DB000E5CFF7FFE5CFF6FFE5CFEAFFE5CFE9FF77
:103DC000E5CFDAFF1100D8CFE4FFE0CFE4FFE46EE7
:103DD000DACFE4FFE652E552E5CFDAFFE550E5CF72
:103DE000E0FFE5CFD8FF100004D895EC12F032D8F0
:103DF000FED7A1EC7FF00F01496949CF48FF956AD2
:103E00009368D08EF28EF29C550EA76EAA0EA76E06
:103E10000E01FF91090ECC6F0A0ED36F170EFB6FC8
:103E2000550EA76EAA0EA76EFF810BEC11F069EC80
:103E300029F0C5DAE5EC35F01EEF1FF00801006B44
:103E4000CFDABDDAF9EC32F0ABEC3BF09380B7DAC5
:103E500035EF30F018D80801005102E029EF20F0CA
:103E6000200E0001E76E9E19E8AE02D0E73402D0C2
:103E7000E7509E5D07E36550020B01E0120052EC33
:103E800018F0C3D9120028EC30F0080100510CE002
:103E900081B004D081A0FED7DAEC31F0B5EC31F07E
:103EA000000901E189D00AD081B004D081A0FED7F9
:103EB000C1EC31F07CEC31F0000902E050DA7BD04B
:103EC00088EC31F0000969E0A5DACCDA640E64DA36
:103ED0001DC000F01EC001F0300E1D240B013C6F10
:103EE0002BCB02F02CCB03F00A0E56DA1DC002F0E9
:103EF0001EC003F0300E0226000E03222BCB04F06E
:103F00002CCB05F0640E48DA1DC004F01EC005F08D
:103F10000A0E1D6E1E6A04C022F005C023F022ECBA
:103F200039F01B50025C006E1C50035800C03DFB72
:103F300099DA0A0E31DA300E19240B013E6F3F6B0D
:103F40007CDA006E640E88DA1E50300F0B01406F71
:103F500074DA016E0A0E026E236E01C01EF0CAEC06
:103F60003CF01E50300F006E68DA036E640E046E73
:103F7000236E03C01EF0CAEC3CF01E500A0DF35035
:103F8000005C0B01416F59DA006E0A0E65DA1A50B7
:103F9000300F0B01426F436B0FD097EC31F00009EB
:103FA00005E051DA3BEC2FF07DDA06D0A6EC31F0DB
:103FB000000902E021DA3CDAE9EC31F0190804E109
:103FC00042DAB4EC30F02FD0E9EC31F0180824E1FB
:103FD000400EE66E0B0EE66E3C0EE66E0B0EE66EC7
:103FE0000B01B60ED8802B55030E2C5505E2B60EEC
:103FF000006E030E016E01D035DA050ED890013245
:104000000032E804FBE10050E66EF3EC30F0026EA3
:10401000050EE15E02501200E9EC31F0170805E1EF
:1040200031DA34EC31F052EF22F0E9EC31F00108F2
:104030000FE1B10EE66E780EE66E000EE66EA80E8B
:10404000E66E780EE66E000EE66E96EC30F0F0D975
:1040500012000001EF513BE1FA0EE66E6FEC3CF00E
:10406000E5529AEC7FF00001010EEF6F956A9368BC
:104070000B01446BE5EC35F0F70EE66E080EE66ECC
:10408000F70EE66E0A0EE66E5DEC37F0E552E5528D
:10409000E552E552300E0A01FF5D0001ED6FABEC19
:1040A0003BF09380FF0EE66E0A0EE66E03CBE6FF52
:1040B00004CBE6FF05CBE6FF06CBE6FFD5EC2CF004
:1040C000006E060EE15E005005EC32F09DD009EC6A
:1040D00035F0000958E00B01445104E053EC35F091
:1040E000050800E2170EE66E0B0EE66E00EC33F0EC
:1040F000E552E552170EE66E0B0EE66EC4EC33F099
:10410000E552E5521BC0F7F81CC0F8F81DC0F9F8DD
:104110001EC0FAF8C1EC3BF0F3CF2BFBF4CF2CFB25
:10412000080EE66E6DEC2EF0E5520001EA6F2BCB27
:1041300000F02CCB01F0030ED89001320032E804DD
:10414000FBE100C001F0006A0001EA510801001023
:10415000FB6F01C0FCF80801FD6BFE6BE9EC34F06D
:10416000F70EE96E080EEA6EEE500B01275DEE5079
:104170000B012859EE500B012959EE500B012A5919
:1041800001E2FF0041D0FCEC34F0000932E02D0EDA
:10419000E66E0B0EE66EC4EC2EF0E552E5522DEC09
:1041A00035F000090FE1EDC0E6FF2D0EE66E0B0EB7
:1041B000E66E59EC35F0E552E552E552000902E0B1
:1041C00020EC35F0FCEC34F000090DE02D0EE66E2D
:1041D0000B0EE66E35EC35F0E552E552240EE66E38
:1041E000C3EC7FF0E55212EC35F0000902E020EC60
:1041F00035F0F4EC34F0000907E011EC32F0F1ECAA
:1042000035F016EC32F000D0120031D9A1EC09F0F3
:104210000FD90A01F6516C0A65E01B0A01E0120091
:104220000001EE6B070EEE5D09E2B10E006E780E36
:10423000016E000E9BD8350ECDD8F4D7EE6B080E6C
:10424000EE5D09E2A80E006E780E016E000E8ED8AB
:10425000420EC0D8F4D7F9EC32F0CED8E9D8FFCA74
:1042600049F900CB4AF901CB4BF92D0EE66E0B0E46
:10427000E66EC4EC2EF0E552E552CCD870D8D8D812
:104280002DCB69F92ECB6AF92FCB6BF92BCB6CF9BF
:104290002CCB6DF90001EE6B0B0EEE5D0BE2EE51D7
:1042A000EA6AD60FE96E000EEA22EF50E66E770E4C
:1042B00091D8F2D7EE6B090EEE5D12E2EE51EA6A8A
:1042C000E10FE96E000EEA22EF50E66E820EEE2557
:1042D000E96EEA6A000EEA22F70EE926DCD8EBD78F
:1042E000D4EF21F05CC91FFB5DC921FB5EC922FB35
:1042F0005FC923FB60C925FB61C926FB1F0EE66E63
:104300000B0EE66EC4EC33F0E552E5521BC027FB02
:104310001CC028FB1DC029FB1EC02AFB51C917FB6E
:1043200052C919FB53C91AFB54C91BFB55C91DFBC4
:1043300056C91EFB170EE66E0B0EE66E20EC33F030
:10434000E552E5520CD874D84BD82ED8656A0F01C7
:10435000366B00019E6B0801010E006F120092D8AF
:10436000170EE66E0B0EE66E87EF33F0026EEEC0B0
:1043700003F0046A056A00500324F36E0150042020
:10438000F46E02500520F86EF4CFF7FFF3CFF6FF7E
:104390000800F550E66E1200226E236A2BCB1DF04A
:1043A0002CCB1EF086EF3CF00A01F66BE66A5FD874
:1043B000F0EC0BF0006E070EE15E00501200FA0EFA
:1043C000E66E6FEC3CF0E552FA0EE66E6FEC3CF0F8
:1043D000E5521200EE25EA6AF70FE96E4BEF22F084
:1043E000F70EE66E080EE66EF70EE66E0A0EE66E45
:1043F0005DEC37F052EF22F0FF0EE66E0A0EE66E2D
:1044000003CBE6FF04CBE6FF05CBE6FF06CBE6FFDA
:10441000D5EF2CF0C1EC3BF0F3CF2BFBF4CF2CFB12
:10442000080EE66E6DEC2EF0E5520001EA6F120008
:10443000006E060EE15E005012000001EA51FE0B14
:10444000E842E20F1200300EE66E0B0EE66E2D0E05
:10445000E66E0B0EE66E1200016E236E00C01EF0BB
:10446000CAEF3CF02BCB00F02CCB01F01200F70E82
:10447000E66E080EE66E540EE66E010EE66EE66A15
:10448000E66A1200E10EE66E000EE66ED60EE66EED
:10449000000EE66E1200080EEA22E552E750EF6EBB
:0E44A000EE2B1200E552E552E552E5521200F5
:0244AE00E1DA51
:1044B000020EE126DE6ADD6ADE6ADD6AC0DA3E0EE1
:1044C000E5DA0AE27CDADE50E924E96EDD50EA2022
:1044D000E1DAF4E3DB2AF2D73E0EDE6EDD6AAFDA14
:1044E000400ED4DA12E26BDADECF02F0DDCF03F059
:1044F000C00E0226010E0322E9500224E96EEA50A2
:104500000320C8DAECE3DB2AEAD7020EE15C02E220
:10451000E16AE5529DD2ADDA060EB0DA600E7ADAC3
:1045200047DA000E005C020E015809E2C2DA25DB10
:10453000EF6A040EDB2A050EF3E3DB2AF1D7040E43
:10454000DB6A050EDB6A34DA200EA0DA0CE2640EB8
:10455000026E750E036E000E80DADBCF06F0C5D951
:10456000F2E3DB2AF0D7D950FB0FE96EFF0EDA2019
:10457000EA6EEE50ED101FE0070E4CDA19DA0B0E62
:1045800085DA19E2040EDBCF02F0050EDBCF03F073
:10459000070E025E000E035AFB0EDB500224E96E8A
:1045A000FC0EDB500320EA6EEF50E66E82DAAEDAE4
:1045B000E5E3DB2AE3D71C0EF66E750EF76E000EF0
:1045C000F86E0900F5CFDEFF0A00F5CFDDFF200E03
:1045D00021DAEED9400E5ADA09E2A40E026E750E07
:1045E000036E000EABDAF5E3DB2AF3D728DA01C05D
:1045F00000F0016A5EDA3B0E07DA5BDA3A0EE92672
:10460000000EEA22DFCFEFFFA7DA0800F550E66ED2
:1046100050DA3C0EE926000EEA22CBDAB0D9080EB9
:1046200000DAFEE146DA3D0EEFD9A9D9100EF9D92C
:10463000FEE13FDA3E0EE8D9A2D9180EF2D9FEE12A
:1046400038DA3F0EE1D9020EDB6A030EDB6A27DAA5
:10465000080E1CDA01E3A9D05FDA1BC000F01CC011
:1046600001F0400E0026000E0122040E00C0DBFF08
:10467000050E01C0DBFF9CD923DA18DA0250005C7A
:104680000350015809E2840E026E750E036E000E8F
:1046900055DAF1E3DB2AEFD79ED91DC004F01EC026
:1046A00005F07BD9440E69D904C0EFFF94D919C035
:1046B00004F01AC005F071D9450E5FD904C0EFFFB0
:1046C0001C0E086E750E096E000E0A6E010EE76E66
:1046D000020EDBCF0BF0030EDBCF0CF0E7500B2606
:1046E000000E0C220D6AD8900B360C360D36085091
:1046F0000B24F36E09500C20F46E0A500D2017DACB
:10470000F5CF06F00800F5CF07F007C006F0076AFE
:10471000E9D8CCD9050E98D906C0EFFF1C0E066E5D
:10472000750E076E000E61D9D89009360A360B3621
:10473000DCD9BCD9060E88D93CDA400E066E750E5F
:10474000076E000E52D9020ED89009360A360B3683
:10475000E806FAE1CAD9200E30DA1C0E0ED929DAA1
:10476000F7D881D9FEE1DFD8080E62D9FEE1C8D9B9
:10477000010EF9D978D9FEE1D6D8100E59D9FEE14B
:10478000BFD9020EF0D96FD9FEE1CDD8180E50D99D
:10479000FEE1B6D9030EF1D806C0EFFF020EDB2A08
:1047A000030E01E254D7DB2A52D7060EE15C02E287
:1047B000E16AE5524DD15DD9050E60D9040EDB6A80
:1047C0000001F26BF36B000EF25D010EF35901E391
:1047D00078D01D6A010E1E6EFB0EDBCF22F0FC0EA0
:1047E000DBCF23F022EC39F00001F2511B24006EE4
:1047F000F3511C20016E010E0026000E012200C0A4
:10480000DEFF01C0DDFF7ED8DECFEEFFDDCFEDFFA6
:1048100016D90006000E015A0050011004E172D8AA
:10482000F80EEE6EED680BD90006000E015A010E6F
:10483000001805E1015003E165D8EE68ED68040E4B
:10484000DB6A090EF36E040EDBCFF4FFF350F45C69
:1048500033E22E0E006E750E016E000E026E040E17
:10486000DBCF03F0046A056AD890033604360536B8
:1048700000500324F36E01500420F46E0250052012
:1048800056D9020EF5CFDBFF0A00030EF5CFDBFF92
:1048900006D9DECF02F0DDCF03F00206000E035A88
:1048A0000250001806E10350011803E12BD8EE680E
:1048B000ED68040EDB2AC5D70001F22B000EF323AE
:1048C00082D7050EE15C02E2E16AE552C1D0D1D89F
:1048D000F0D8E926010EEA22EE68ED68E552E7CF4E
:1048E000D9FF120063D960EF25F0076A0250052452
:1048F000F36E03500620F46E0450072047D9D9D830
:1049000086EF25F053D9020E1D6E1E6AF2C022F00A
:10491000F3C023F022EC39F000501B24E96E015063
:104920001C20EA6E12000A500D24F36E0B500E206C
:10493000F46E0C500F20FBD8F5CF06F00900F5CF30
:1049400007F00900F5CF08F00800F5CF09F01200D4
:10495000400E0A6E750E0B6E000E0C6E010EE76EA9
:10496000020EDBCF0DF0030EDBCF0EF0E7500D266D
:10497000000E0E220F6A020E12001FD9E6D0ECD8EC
:104980000900F5CF00F00900F5CF01F00900F5CFDF
:1049900002F00800F5CF03F01200300E0426000EDE
:1049A000052204D9B9D81BC002F01CC003F01200C4
:1049B000040EDBCF00F0050EDBCF01F01200DECFDE
:1049C000E9FFDDCFEAFFBE0EE926040EEA22EF5032
:1049D000E66E59EF25F0E3D80A0E226E236A04C072
:1049E0001DF005C01EF086EF3CF0086E010EE76E6C
:1049F000020EDBCF09F0030EDBCF0AF0E7500926E9
:104A0000000E0A220B6A1200E926000EEA2200C0FC
:104A1000EFFF1200F36E040EF3CFDBFF050EDB6A2F
:104A20001200D8900332023201320032E80612003E
:104A3000D8900932083207320632E8061200DECF7B
:104A400000F0DDCF01F01200025E000E035A7DD0AF
:104A5000E16EE552E7CFD9FF1200046E040EDBCF02
:104A600005F0050E1200D8900D360E360F36E8060A
:104A70001200D9CFE6FFE1CFD9FF1200E126DE6AAE
:104A8000DD6A020EDB6A030EDB6A1200005C000EB8
:104A900001581200EA6E8DD8DF2A010E1200020EB4
:104AA000DBCF00F0030EDBCF01F01200400EDDEF94
:104AB00025F0FD0EDBCFE9FFFE0EDBCFEAFF120093
:104AC000010EE76E6CD8E7500426000E0522200E7A
:104AD0001D6E1E6A04C022F005C023F022EC39F0DE
:104AE0001BC002F01CC003F0120006500924F36E34
:104AF00007500A20F46E08500B2048D872EF24F0BB
:104B0000F1DE200E5AD81C0EDDEF25F036D851D834
:104B1000040EDB2A050E1200200E1D6E1E6A020E08
:104B2000DBCF22F0030EDBCF23F022EF39F0F86E5B
:104B3000F4CFF7FFF3CFF6FF090012008EDF00017C
:104B4000066A1F0E051675EF24F000500224E96E68
:104B500001500320EA6E1200400EF66E750EF76EDD
:104B6000000EF86E120009DF06C0EFFFA8EF24F078
:104B7000E9CF00F0EACF01F01200040EDB50E92487
:104B8000E96E050EDB50EA20EA6E1200F86EF4CFF3
:104B9000F7FFF3CFF6FF0800F550E66E1200020EA5
:104BA000DBCF04F0030EDBCF05F0120082DFB8EF9D
:104BB00025F0E552E750EF6E12000226000E0322A8
:024BC0001200E1
:0E4BC2000000000000000000000000000000E5
:104BD00000000000E0000000C03E448040201804B7
:104BE000E21F0080402090788080000000000000DC
:104BF00000000000000000000000000000000000B5
:104C000000000C38D0A09E81838C868180808080BB
:104C100040404041434140404043414D532020E00B
:104C2000E010101010A04000000000000000000084
:104C300000008040301804FF00001C3CBE9ECC40A9
:104C4000406020A09050501808080C040404024250
:104C5000764F45E041020101000000000000000025
:104C6000000000406352CA060000FB2637179D541F
:104C70002C040000030302038282C26000000000D3
:104C8000040C24242527E42404C4641C0000000030
:104C90000000000000000030797E3C9C5C35121260
:104CA000090808040486828283C3C3C5E6E3303062
:104CB000109098C8487838FEBD0C06010236D48C96
:104CC00008808080C0602020F0783C1C0A050482A7
:104CD000721F01C1614141414140402024E3000075
:104CE000038060104C7FED74300886C340407864C8
:104CF00004040704010207030F07010000008040BD
:104D0000300E03C0301E09040C18040618107C472E
:104D100040808087888898D0F4E4E2C382870000CE
:104D20000000000000000000000000000000000083
:104D3000070D080898D9D9FBFEDEEE7C7C78586810
:104D400038000000000000607078787D3F3F1E0C46
:104D50000D090F060000000000000000C0F0F8FC84
:104D6000FCFEFEFFFFFF7F7F7F7FFFFFFFFFFEFE5A
:104D7000FCF8F0E08000F8FFFFFFFFFFFFFF7F037C
:104D8000000000000000000107FFFFFFFFFFFFFF22
:104D9000FFF8FFFFFFFFFFFFFFFF00000000000024
:104DA0000000000000FFFFFFFFFFFFFFFFFF3FFFCE
:104DB000FFFFFFFFFFFFFC8000000000000000007D
:104DC000C0FFFFFFFFFFFFFFFF0F00030F1F3F7F2D
:104DD0007FFFFFFFFFFEFCFCFCFEFEFFFFFF7F7F6F
:104DE0003F1F0F030000000080C0E0E0F0F8F8FC77
:104DF000FEFEFFFFFFFFFFFFFF00000000000000BE
:104E0000000000000F1F0F0F0707030301FFFFFF44
:104E1000FFFFFFFFFF000000000000000000000097
:104E2000000000000000000000FFFFFFFFFFFFFF89
:104E3000FF00000000000000000000000000000073
:104E40000000000000FFFFFFFFFFFFFFFF0000006A
:104E5000000000000000000030FEFEFEFEFEFEFE30
:104E6000FEFFFFFFFFFFFFFFFFFEFEFEFEFEFEFE5A
:104E7000FC0000F0F8FCFCFEFEFEFFFFFFFFFFFF62
:104E8000FFFFFFFFFFFEFEFCFCF8E0000000000358
:104E900007030301010000000000000001C7FFFF3D
:104EA000FFFFFFFFFFFFFF3F0000000000000000CA
:104EB00000000080C0E0F0FCFEFFFFFFFFFF7F3F2F
:104EC0001F0701000000000080C0E0F0F8FCFEFFBA
:104ED000FFFFFF7F3F1F0F070300000000000000DF
:104EE000000000FFFFFFFFFFFFFFFFFFFFFFFEFED1
:104EF000FEFEFEFEFEFEFEFEFEFEFEFEFE1000F0CC
:104F0000F8FCFCFEFEFE7F7F7F7F7F7FFFFFFFFFC1
:104F1000FFFEFEFCF8F0E0000000000103030101C9
:104F2000000000000000000080E1FFFFFFFFFFFF26
:104F3000FFFF7F000000000000007E7E7E7E7E7E00
:104F40007F7FFFFFFFFFFFFFFFFFFFF3F1E0C08068
:104F50000000008080000000000000000000000051
:104F6000000183FFFFFFFFFFFFFFFFFFFE00003F89
:104F70007F7FFFFEFEFEFEFCFCFCFCFEFEFFFFFF53
:104F8000FFFF7F7F3F1F0F070100000000000000B0
:104F900000000000C0F0FCFEFEFFFFFFFFFFFFFF70
:104FA000FFFEFE000000000000000080E0F8FEFFB1
:104FB000FFFFFF3F1F0703FFFFFFFFFFFFFFFF0094
:104FC000000000C0F0FCFFFFFFFF7F1F0F03000089
:104FD000000000FFFFFFFFFFFFFFFF0000007FFF5B
:104FE000FFFFFFFFFFFFFEFEFEFEFEFEFEFEFEFFDA
:104FF000FFFFFFFFFFFFFFFEFEFE000000000000BE
:105000000000000000000000000000FFFFFFFFFFA5
:10501000FFFFFF0000000000FCFEFFFFFFFFFFFF9F
:10502000FFFFFFFFFFFFFFFFFFFFFFFFFFFE3C0053
:1050300000000000FFFFFFFFFFFFFFFF8080808078
:105040008080000000000000000000000000000060
:105050003F3F3F3F3F3F3F3F3F3F3F3F7F7FFFFF60
:10506000FFFFFFFEFCFCF8E08000000000000000F5
:105070000000000000000000000000C3FFFFFFFF71
:10508000FFFFFFFF7F00007F7FFFFFFEFEFEFCFCB7
:10509000FCFCFCFEFEFFFFFFFF7F7F3F1F1F07039F
:1050A000000000000080E0F0F8F8FCFEFEFEFFFFCC
:1050B0007F7F7F7F7F7F7F7FFFFEFE00000000F00D
:1050C000FEFFFFFFFFFFFF1F0301808080808080C5
:1050D00080808000000000000000F0FFFFFFFFFF65
:1050E000FFFFFF7F7F3F3F3F3F3F3F3F7FFFFFFF90
:1050F000FFFFFEFCF0C000FFFFFFFFFFFFFFFFE030
:10510000000000000000000080FFFFFFFFFFFFFF26
:10511000FF7F0000070F3F3F7FFFFFFFFFFEFCFC0C
:10512000FCFCFEFEFFFFFF7F3F3F1F0F03007CFEE6
:10513000FFFFFFFFFFFFFFFFFFFFFFFFFFFFFFFF7F
:10514000FFFFFFFFFFFFFFFFFE0000000000000069
:10515000000000000000000080E0F8FFFFFFFFFFFC
:10516000FFFF3F07010000000000000000000000FA
:1051700000C0F8FEFFFFFFFFFFFF7F1F03000000DE
:10518000000000000000000000C0F0FCFFFFFFFF77
:10519000FFFFFF3F0F0100000000000000000000C3
:1051A0000000E0F8FEFFFFFFFFFFFF7F1F0700008A
:1051B0000000000000000000000000C0E0F8FCFC5F
:1051C000FEFEFFFF7F7F3F3F3F7F7FFFFFFFFEFE33
:1051D000FEFCF8F08000003FFFFFFFFFFFFFFFF144
:1051E000E0C080800080C0E0FFFFFFFFFFFFFF7F87
:1051F0000F00000080C1C3E7FFFFFFFFFFFFFFFFBD
:10520000FFFFFFFFFFFFFFF7F3E1C0800000FCFF9F
:10521000FFFFFFFFFFFF8F070301000000010103F5
:1052200007FFFFFFFFFFFFFFFFFC070F3F3F7FFF71
:10523000FFFFFFFEFEFCFCFCFCFCFCFEFFFFFF7F13
:105240007F3F3F1F070100C0E0F8F8FCFEFEFFFFB4
:10525000FF7F7F7F7F7FFFFFFFFEFEFCFCF8E0C04B
:105260000000FEFFFFFFFFFFFFFF870100000000BF
:10527000000000010FFFFFFFFFFFFFFFFE00071F01
:105280007F7FFFFFFFFFFFFEFCF8F8F8F8F8FCFC5B
:10529000FEFFFFFFFFFFFFFFFF0000000000000117
:1052A0000101030303030303030181C1F8FFFFFFAF
:1052B000FFFFFF7F0F00003E7EFEFEFEFEFCFCFCBB
:1052C000FCFCFCFEFEFFFFFF7F3F3F1F0F070100BE
:0252D0000000DC
:0E52D20026DBA50EE5EF2BF022DBDB0E75DAF6
:1052E000230E73DAD90E71DA220E6FDAA10E6DDA9F
:1052F000C80E6BDADA0E69DA120E67DAA80E65DA12
:105300003F0E63DAD50E61DAA00E5FDA810E5DDA48
:10531000600E5BDAD30E59DAE66A17D8E552A60EAC
:1053200054DAAD0E52DA8B0E50DAE66A25D8E55221
:10533000AF0E4BDA140EE66E6FEC3CF0E552A40EA5
:1053400044DA400E42DAB6EF2CF071DAC9DA8A9A02
:1053500012D36DDAC5DA8A8A0ED369DAE652956815
:105360008D808D828A8A8D948D908D808350DF6EA2
:105370008D84DF50E55257D211DBB00EDF6EB80ED0
:10538000DF5C16E2E8DAF2DA010EDB6ADB50006E6F
:10539000016AD890015004E6840E005C000E0158AA
:1053A00005E2FE0EDBCFE6FF8EDAF0D7DF2AE7D785
:1053B000020EE15C02E2E16AE552E16E34D237DAD4
:1053C000060EE126FED904E6080E005C000E015828
:1053D00002E2B00E37D0F5D904E6100E005C000EE4
:1053E000015802E2B10E2ED0ECD904E6180E005C92
:1053F000000E015802E2B20E25D0E3D904E6200ED9
:10540000005C000E015802E2B30E1CD0DAD904E6AB
:10541000280E005C000E015802E2B40E13D0D1D960
:1054200004E6300E005C000E015802E2B50E0AD010
:10543000C8D904E6380E005C000E015802E2B60E30
:1054400001D0B70EC7D9D89001320032E804FBE191
:10545000010E27DA010EF0D9010E00C0DBFFF36E5A
:10546000DB5004E0D890F336E806FCE1F350E76E39
:10547000040ED1D93CDA3BDADBCFE7FF040EDB5078
:10548000E712050EC8D9050EDBCFE6FF62DFE55255
:10549000060EE15C02E2E16AE552E16EC4D1C7D9D1
:1054A000070EE1268ED904E6080E005C000E0158B6
:1054B00002E2B00E37D085D904E6100E005C000E73
:1054C000015802E2B10E2ED07CD904E6180E005C21
:1054D000000E015802E2B20E25D073D904E6200E68
:1054E000005C000E015802E2B30E1CD06AD904E63B
:1054F000280E005C000E015802E2B40E13D061D9F0
:1055000004E6300E005C000E015802E2B50E0AD02F
:1055100058D904E6380E005C000E015802E2B60EBF
:1055200001D0B70E57D9D89001320032E804FBE120
:10553000050EB7D9050E80D9050E00C0DBFF010EA0
:10554000F36E050EDB5004E0D890F336E806FCE17C
:10555000F350E76E040E5FD9D0D9CFD9040EDBCF5C
:10556000E6FF060EDB50E552E714006E070EE15C25
:1055700002E2E16AE552E16E005055D158D9E65297
:10558000FE0EDBCF00F0FD0EDB50D88000540AE2A7
:10559000FD0EDB28DF6EFE0EDB50D880DF540CE3FF
:1055A0005DD9F9D7FE0EDB50DF6EFD0EDB50D880E3
:1055B000DF5402E353D9F9D7E55235D1EFD9FE0EC6
:1055C000DB50DF6EFD0EDB50DF5C0EE2C4D9FC0E5B
:1055D000C5D9100EFAD8010EDB6A6CD903E2E66A6F
:1055E00072D9FBD7DF2AEED7020EE15C02E2E16A54
:1055F000E552E16E18D11BD9200E006EFE0EDBCFF6
:10560000E7FF0050E75EFE0EE7CFDBFFFD0EA6D9F9
:10561000020E006EFC0EDBCFE7FF0050E726FC0E0B
:10562000E7CFDBFFDB500F0BD0D8FC0EDB380F0BC6
:105630000F0B100FCAD883D903AE02D004680568D7
:10564000A0D8C5D803AE02D0046805689AD8F62A57
:1056500088D903AE02D00468056893D8020EF626F6
:1056600080D903AE02D0046805688BD8030EF626F5
:1056700078D903AE02D00468056883D8040EF626F4
:10568000000EF722F8227DD9E66A63DEE552CBD020
:10569000CED8E652FA0EDB50DF6EFB0EDB50B00FB9
:1056A000E76EFB0EE7CFDBFFEAD80FE0DFCFE6FFC8
:1056B000FB0EDBCFE6FFE3D826D92BD9EE2A000E6E
:1056C000EE22EE22060EDF26EFD7E552ACD0AFD8A1
:1056D000E652FB0EDB50DF6EFC0EDB50B00FE76EC8
:1056E000FC0EE7CFDBFFF4D80FE0DFCFE6FFFC0EC8
:1056F000DBCFE6FFEDD807D9FD0EDB2AFE0E01E376
:10570000DB2A060EDF26EFD7E5528DD047D9006E93
:10571000F90EDBCFE7FF0050E726F90EE7CFDBFFFE
:10572000F80EDB50B00FDF6EFA0EDB50B00FDF5C0F
:1057300021E211D9F90EDB500F0B47D8F90EDB38F7
:105740000F0B0F0B100941D8010EDB6AB3D810E222
:10575000E0D8EFCFF6FFEE2AEFCFF7FF000EEE22F4
:10576000EFCFF8FFEE220800F550E66EACD8EED78A
:10577000DF2ADAD7020EE15C02E2E16AE552E16E6D
:1057800052D0050E216E226A236A03C01CF004C0A9
:105790001DF005C01EF040EC39F019C003F01AC02E
:1057A00004F01BC005F000501924F36E01501A20BC
:1057B000F46E02501B20F86EF4CFF7FFF3CFF6FF24
:1057C0001200E5D8D89001501200E66EEBD0D9D87F
:1057D0009FEF2CF0DF6E020EE76EFD0EDBCF00F0C8
:1057E000FE0EDBCF01F0E7500026000E0122010E75
:1057F00000C0DBFFDB500F0BE76E020EE7CFDBFFD5
:10580000010EDB380F0B1009E76E030EE7CFDBFF4D
:10581000BED8030E1200E7CFDBFF9DD8020E9ED844
:10582000030EAEEF2CF0E552E7CFD9FF1200D9CF2F
:10583000E6FFE1CFD9FF1200F3CFDBFFDB50026EB2
:10584000036AFB0EDBCF1DF0FC0EDBCF1EF0025017
:105850001D5C006E03501E58016E1200FB0EDB50E3
:10586000D880DF54E66EE66AFC0EDBCFE6FFE66A20
:10587000A6DDE552E552E552E552DF2A1200FC0EA4
:10588000DBCFF6FFFD0EDBCFF7FFFE0EDBCFF8FF21
:105890000800F5501200020EE66E9CEC3CF0E5525A
:1058A000120000C0DBFFDBCFF3FFF338E842F80B58
:1058B000F36E1200FB0EDB50F36E010EDBCFF4FF34
:1058C000F350F45C120045DDE552010EDB2A1200B4
:1058D000FD0EDBCFE9FFFE0EDBCFEAFFEF5012003B
:1058E000956AFE0EDB508C6E8D808D82120035DD48
:1058F000E76E050EE7CFDBFF12002FDDE76E060E29
:10590000E7CFDBFF1200E66E76DEE552E552E552A8
:105910001200D950FC0FE96EFF0EDA20EA6E120079
:1059200096928D9296908D9096948D84939A8A9A61
:105930008C92B1DF8C82AFDFAE0EE5EF2BF0140E50
:10594000006E700E016E000E026EFE0EDBCF03F0D5
:10595000046A056A1200DFCFE6FF24D0DBCFE6FF42
:1059600021D0000EF722F822E7EF2BF0020E2DDFF8
:10597000100EE5EF2BF08D948D928D828D849568BD
:1059800052D70800F550E66EE4DCE5521200FB0E3B
:10599000DBCF00F0FC0EDBCF01F0120048DF020E7F
:0A59A000E1261200D2DCE5521200ED
:0659AA00D9CFE6FFE1CFBA
:1059B000D9FF050EE1260FD9E66A8FD9E552E76EC9
:1059C000020EE7CFDBFF0000D950020FE96EDACFFD
:1059D000EAFFEF50070B020801E00000FB0EDB506E
:1059E000E76E030EE7CFDBFF030EDB50330A16E052
:1059F000010A0EE0030A06E0010A01E015D0030ED9
:105A0000DB6A18D0010EF36E030EF3CFDBFF12D06A
:105A1000020EF36E030EF3CFDBFF0CD0020EF36E1B
:105A2000030EF3CFDBFF06D0020EF36E030EF3CFAF
:105A3000DBFF00D0FC0EDB50E76E040EE7CFDBFF90
:105A4000040EDB50390A2EE0010A26E00F0A1EE0A0
:105A5000010A16E0030A0EE0010A06E0070A01E067
:105A600027D0040EDB6A2AD0010EF36E040EF3CFAA
:105A7000DBFF24D0020EF36E040EF3CFDBFF1ED04B
:105A8000030EF36E040EF3CFDBFF18D0040EF36E9B
:105A9000040EF3CFDBFF12D0050EF36E040EF3CF2E
:105AA000DBFF0CD0060EF36E040EF3CFDBFF06D047
:105AB000020EF36E040EF3CFDBFF00D0040EDBCF3B
:105AC000E6FF030EDBCFE6FFAAD9E552E552010E51
:105AD000E66E03D9E552DE6EDD6A0000110EE66E59
:105AE000FCD8E552DE6EDD6A0000E66A110EE66E55
:105AF00083D8E552E5520000110EE66EEED8E5526D
:105B0000DE6EDD6A0000140EE66EE7D8E552E76E41
:105B1000020EE7CFDBFFD950020FE96EDACFEAFFC2
:105B2000EF50180BE842E842E842E66EF90EDBCF90
:105B3000E9FFFA0EDBCFEAFFE552E750EF6ED950EE
:105B4000020FE96EDACFEAFFEF50070BE66EF90EAF
:105B5000DBCFE9FFFA0EDBCFEAFF010EE926000EEC
:105B6000EA22E552E750EF6ED950020FE96EDACF24
:105B7000EAFFEF50180BE842E842E842E66EF90E01
:105B8000DBCFE9FFFA0EDBCFEAFF020EE926000EBB
:105B9000EA22E552E750EF6ED950020FE96EDACFF4
:105BA000EAFFEF50070BE66EF90EDBCFE9FFFA0EC6
:105BB000DBCFEAFF030EE926000EEA22E552E750AA
:105BC000EF6E050EE15C02E2E16AE552E16EE5523C
:105BD000E7CFD9FF1200736A728E729C729A729824
:105BE0007296729472927290739C94949396958C20
:105BF000949E7288728A1200D9CFE6FFE1CFD9FF56
:105C0000E652DF6AFE0EDB50140804E0FE0EDB50A5
:105C1000340806E1140EE66E60D8E552E00BDF6E44
:105C20008B9EA49EFE0EDB50756EA4AEFED70000C8
:105C30000000000000000000000000000000000064
:105C40000000000000000000000000000000000054
:105C50000000000000000000000000000000000044
:105C60000000000000000000000000000000000034
:105C70000000000000000000000000000000000024
:105C80000000000000000000000000000000000014
:105C90000000000000000000000000000000000004
:105CA0000000000000000000000000000000A49EB2
:105CB000FE0EDB500A0805E1FD0EDB507F0B756E12
:105CC00004D0FD0EDB50DF10756EA4AEFED78B8EB8
:105CD000E552E552E7CFD9FF1200D9CFE6FFE1CF79
:105CE000D9FF8B9EA49EFE0EDB508009756EA4AE7C
:105CF000FED70000000000000000000000000000CF
:105D00000000000000000000000000000000000093
:105D10000000000000000000000000000000000083
:105D20000000000000000000000000000000000073
:105D30000000000000000000000000000000000063
:105D40000000000000000000000000000000000053
:105D50000000000000000000000000000000000043
:105D60000000000000000000000000000000000033
:105D70000000A49E756AA4AEFED78B8E755000D02D
:105D8000E552E7CFD9FF12001FD9828C030E4AD902
:105D9000036E026A02C0E6FFE66E020EC8D819D989
:105DA000FEE1B7D800C0EFFF050EF7D8040EBFD84C
:105DB00010D9FEE1AED8EE5200C0EFFF070EEDD8CD
:105DC000060EB5D806D9FEE131D900C0EFFF7F0E2F
:105DD000006E9FD80050EF269CD800D904E203D96A
:105DE00002E297D8EF2A7F0E006E93D8EE52005051
:105DF000EF268FD8EE52F2D805E2F5D803E289D823
:105E0000EE52EF2A7F0E006E11D90050EF260ED908
:105E1000E5D804E2E8D802E209D9EF2AE9D0D4D8DB
:105E2000E652140EFFD8DF6EFE0EDB50D9CFE9FF2D
:105E3000DACFEAFFE850030BF36EF346F346F3467E
:105E4000E70EEF14F310EF6EFD0EDB50006ED9CFAE
:105E5000E9FFDACFEAFFE850070BF36EF80EEF1414
:105E6000F310EF6EDFCFE6FF140EE66EC5DEE552EF
:105E7000E552E552BDD0A8D8FD0EDBCFE6FFFE0E01
:105E8000DBCFE6FF81DFE552E552BDD800C01EF052
:105E90007FD8E66ECED8C2D801C01EF0BAD805C0F1
:105EA0001EF06ED8010EA8D800C01EF082D8020ED7
:105EB000C7D8030EC8D801C01EF06AD8E66E040E1B
:105EC0002FD8ACD802C01EF0A4D806C01EF058D8F7
:105ED000050E92D801C01EF06CD8060EB1D8070E80
:105EE000B2D802C01EF054D8E66E080E19D896D863
:105EF00003C01EF08ED807C01EF042D8090E7CD811
:105F000002C01EF056D80A0E9BD80B0E09D8EF6AB5
:105F10006FD0FD0EDBCFE9FFFE0EDBCFEAFF1200F4
:105F2000E76E87D8E750E926000EEA2212007AD8F9
:105F3000E552E7CF03F0E552E7CF02F0000102108F
:105F4000006E03C001F0060E1200EECF00F0EECF9F
:105F500001F0EFCF02F01200EECF01F0EECF02F031
:105F6000EFCF03F00A0E046E236E1200EECF05F0A1
:105F7000EECF06F0EFCF07F0640E086E236E12002E
:105F8000CAEC3CF01E500A0DF350005CE66E1200A5
:105F9000CAEC3CF01E50300F120044D8026E036E63
:105FA000026A02C0E6FFE66E1200E552E750EF6EAD
:105FB0001200CAEC3CF01A50300FE66E1200020ECE
:105FC000E926000EEA221200D9CFE6FFE1CFD9FF81
:105FD0001200D89001320032E8041200EF50006E37
:105FE000016A013412000050FF08000E0154120033
:105FF000E552E7CFD9FF120023D88BDFA6DF0A0EC8
:10600000036E236E120085DFA0DF640E036E236E25
:106010001200BEDF006E7DDFB6EF2FF0C6DF79DF46
:10602000ACEF2FF0E66E59DEE552120072DFDFEFC3
:106030002FF0FB0EDBCFE9FFFC0EDBCFEAFF1200F7
:106040006FDFD5EF2FF06CDF2C0EEF6E03EF30F02B
:106050000101042B000E0523280ED8800455230EC1
:10606000055502E2046B056B120059DAE652DF6A4D
:106070003C0EDF5C0BE2DF505EDAB7DA68DAB5DAE5
:10608000EE52B3DA000EEF6EDF2AF2D70401010EF2
:10609000FF6FE55249D28DDA530EE66E780EE66E4A
:1060A000000E4CEF32F06DEC29F00401FF6B120092
:1060B00080DA460EE66E780EE66E000EEDD9070E1B
:1060C000E66E020EE66E3F0EE66E780EE66E000E8F
:1060D000E3D9070EE66EE66E370EE66E780EE66ED4
:1060E000000EDAD9400EE66E070EE66E340EE66E4E
:1060F000780EE66E000E4CEF32F06DEC29F0090ED2
:10610000E66E030EE66E2A0EE66E780EE66E000E62
:10611000C3D9130EE66E040EE66E230EE66E780EFD
:10612000E66E000EB9D90401FF6B1200F8D96DECD0
:1061300029F0090EE66EE66AFC0EDBCFE6FFFD0EE7
:10614000DBCFE6FFFE0EF4D90F0EE66E010EE66E13
:10615000F90EDBCFE6FFFA0EDBCFE6FFFB0EE8D948
:106160009DD90401FF6BE0D1DAD9E652E66A010E4F
:1061700027DA3C0EE66E020EE66EB80EE66EB20E42
:10618000EBD9B10EE66EE66A090EE66E010EE66E1A
:10619000060EE66E010EE4D9BBD9D3D90101B76F63
:1061A000B7D9EE52CED9B86FB3D9D1D9CAD9B96F50
:1061B000010EDF6E3C0EDF5C12E22C0EE2D9EFD94D
:1061C0009DD9380EDED9EE52EAD9EE5297D9480E53
:1061D000D8D9BDD9E4D9BBD991D9DF2AEBD70401ED
:1061E000FF6BE552A1D19BD9E652310EE66E020E4D
:1061F000E66EFC0EDBCFE6FFFD0E7BD9310EE66EC0
:10620000070EE66EFA0EDBCFE6FFFB0E72D93C0EF0
:10621000E66E080EE66EB70EE66EB30E9DD93B0E27
:10622000E66EE66ABB0EE66E010EE66EBA0EE66E2E
:10623000010E96D9FE0EDBCFF5F1010EDF6E3C0E9E
:10624000DF5C0EE2360EE66E060EDF24E66EDF043D
:1062500072D9EF50E66EDF506ED950D9DF2AEFD7F2
:106260000401FF6BE55260D15AD9020EE66E070EAB
:10627000E66EFD0EDBCFE6FFFE0E3BD94F0EE66E5F
:10628000070E9ED9E66AE66A29D9A8D9EF50D00F41
:10629000066E076A086A06AE02D007680868CBD89F
:1062A000E66A1E0EE66E1AD9010E0CD906AE02D0B1
:1062B00007680868C0D8E66A460EE66E0FD9030E76
:1062C00001D906AE02D007680868B5D8E66A640E40
:1062D000E66E04D9040EF6D806AE02D00768086848
:1062E000AAD83E0EE66E020E52D93E0EE66E040E9F
:1062F0004ED90401FF6B18D140D909E10101C80E44
:10630000041905E1055103E10401170EFCD0000C4E
:10631000A10E0401FE5D0AE1600E0101041906E10F
:10632000220E051903E10401180EEDD0000CA00E99
:106330000401FE5D0AE1F00E0101041906E10A0EF6
:10634000051903E10401190EDED0000C0401FE5111
:106350000BE1280E0101041907E1230E051904E1E0
:106360000401A00EFE6F010C000C0101640ED88028
:106370000455000E055504E200D902E1170EC3D002
:10638000000CA00E0401FE5D14E3A20EFE5D03E10D
:10639000A00EFE6F01D0FE2BFE51A00A09E0020AFA
:1063A00005E0030A01E0120058EF30F053EF30F03F
:1063B00072DE1200E2D805E1A30EFE6F020EFF6F3F
:1063C0001200A20EFE6F6FDE650E0101046F056BF9
:1063D00012000401FF51020A11E0070A04E0740AE6
:1063E00011E18BDE0FD0110EE66E030EE66E120E7B
:1063F000E66E780EE66E000E4FD802D0AE0EB8D81C
:106400000401FF6B0401FF5112000401A30EFE6F93
:10641000020EFF6F12000401030EFE6F710EFF6F7C
:106420001200ABD802E1AE0EA3D81200A6D802E14A
:10643000AF0E9ED812008C0E216E226A236A06C00F
:106440001CF007C01DF008C01EF040EC39F019C068
:1064500006F01AC007F01BC008F003501924006EA4
:1064600004501A20016E05501B20026E00C0E6FF8A
:1064700001C0E6FFE66E86EC2BF0096E070EE15ECA
:1064800009501200030DF3CFE9FFF4CFEAFF060E27
:10649000E926010EEA221200E66E99D0E66A4B0E5A
:1064A000E66E080EE66E330EE66EC20EE66E4B0E1C
:1064B000E66E000EE66E86EC2BF0006E070EE15ED7
:1064C00000501200E76E8AD8E750E926000EEA2253
:1064D000EF50D00F066E076A086A1200050EE66ECE
:1064E0001C0EE66E5A0E036E4D0E046E000E056E07
:1064F0001200DBCFE6FF67EC2BF056D0EF50E66ED4
:10650000BEEC2AF051D0FF6F0101046B056B010C4A
:10651000FD0EDBCFE9FFFE0EDBCFEAFF1200D9CF85
:10652000E6FFE1CFD9FF1200E552E7CFD9FF120015
:10653000DBCFE6FF4CD0EA6ABA0FE96E010EEA2221
:106540001200EF50E840E840E8401F0B1200020E36
:10655000E926000EEA221200E66EDEEC2AF024D0D4
:10656000E66EACEC39F0006E060EE15E00501200F3
:10657000E66EA5EC29F0E5521200A20E0401FE5DC4
:106580001200E66EDFCFE6FFDF0442EF32F0E66E88
:10659000210EE66E780EE66E000E4CEF32F0EF50F4
:1065A000E66EDF5042EF32F0E552E552E552E55239
:1065B00012006DEC29F072DF030EE66EE66A12003F
:1065C000E66EFB0EDBCFE6FFFC0E79EF32F048EC17
:1065D0002BF0006E050EE15E00501200FB0EDBCFCB
:1065E000E9FFFC0EDBCFEAFF1200EF6ADF5042EF5B
:0265F00032F087
:0E65F200CD86A49085D90F013F8F97EF34F02E
:106600006BD9030E0F013F13B2D9E552E750EF6E7D
:1066100035D9EE5299CFEFFFAAD9020E97D9B1D949
:10662000030E94D9A4D9040E91D928D96FD999CF42
:10663000EFFF9DD9060E8AD9A4D9070E87D951D16B
:106640004BD95FD9030E0F013F1318D9EF50E66EF7
:1066500008D9E552986E12D9EE52EF50996E0ED9C4
:10666000020E96D9030E19D9996E08D9040E90D945
:106670004DD9EF50996E02D9060E8AD9070E0DD961
:10668000996E55D92ED128D93CD90F013FB9FDD7E4
:10669000906A3FB9FED7916A240E91129182EED88A
:1066A000020E7AD9030EF9D88F6EE8D8040E74D989
:1066B0002DD9EF508F6EE2D8060E6ED9070EEDD8A9
:1066C0008F6E35D90ED108D9D9D87FD9030E43D9C9
:1066D000020E41D91BD979D9040E3DD9070E3BD9F9
:1066E000060E68D9EF6A06D9ABDFE552E552C6D887
:1066F000060E60D9FB0EDBCFEFFFFCD8C4DFE552FE
:10670000E5520F013F8F918EECD075EF34F0E4D855
:10671000F1D876DFE552E552B1D8040E2CD9F90E46
:10672000DBCFE9FFFA0E3FD9040E28D9010E03D9B9
:10673000070E21D9030EFFD8070E20D9040EFBD86F
:10674000060E19D9060EF7D8060E18D9070EF3D87B
:10675000020E11D9FB0EDBCFE9FFFC0E24D9020E8D
:106760000DD9010EF0D8030E06D9030EECD8030E96
:1067700005D9040EE8D8F2D8CCD8080EE4D8EED863
:10678000CCD8090E1BD9ADD0A7D8040EE12676D8F7
:10679000060E10D9EFCF00F000C0DFFF010EDB6A5C
:1067A000020EDB6A030EDB6A69D8070E87D8060E75
:1067B0001F0B02E08AD8FEE1F3D8040E7FD80C0E3E
:1067C0001F0B02E082D8FEE1EBD8020E77D8110E43
:1067D0001F0B02E07AD8FEE1E3D8030E6FD8160E45
:1067E0001F0B02E072D8FEE1DBD8EFCF00F0016AA8
:1067F000026A036A1A0E1F0B02E067D8FEE153D843
:10680000DECF1BF0DECF1CF0DECF1DF0DDCF1EF0A3
:10681000DD52DD52040EE15C02E2E16AE552E16E16
:1068200060D0D9CFE6FFE1CFD9FFFE0EDB5003E108
:106830000F013F9B06D00F01550EA76EAA0EA76E43
:106840003F8BE552E7CFD9FF120046D8FE0EDB5052
:106850000F0B006EFE0EDB380F0B0A0DF3500024F9
:1068600040D03AD80A0E026E5CD81AC001F00A0E67
:10687000006E57D81E38F00B011033D0FD0EDBCF61
:10688000E9FFFE0EDBCFEAFF120094D8AEEF34F042
:10689000DBCFEAFFE750A6EF34F08CD8EF50E66E7E
:1068A000E0DFE55212000050DE120150DE1202500D
:1068B000DE120350DD12DD52DD5212007BD8EFCF25
:1068C00000F0016A026A036A1200D89000360136AD
:1068D00002360336E8061200D9CFE6FFE1CFD9FF32
:1068E0001200E552E7CFD9FF12009850E66EADDFF7
:1068F000E5521200FD0EDBCFE6FFFE0EDBCFE6FF1A
:106900001200010EE66E8DDFE5521200050EDAEF81
:1069100034F01E50300FE66E12001A50300FE66E43
:106920001200236EFE0EDBCF1EF0CAEF3CF0E66ACB
:1069300078DFE5521200E76EF90EDBCFE9FFFA0EC1
:10694000A7DF3EEF34F03AD83EEF34F033D8E552CB
:10695000E750EF6E12002ED8E5EF34F0EFCF00F0E5
:106960000A0E016E236E00C01EF0CAEF3CF0BDDFC0
:10697000E66E3EEF34F089DF89EF34F086DF8DEF8D
:1069800034F09950E66E61DFE552E66E3EEF34F08A
:1069900084DF986E3EEF34F080DF8E6E3EEF34F091
:1069A00082DF3EEF34F0DBCFEAFFE552E750EF6ED7
:1069B0003EEF34F0E926000EEA221200E76EFB0EED
:1069C000DBCFE9FFFC0E48EF34F0010EEF6E3EEF37
:0269D00034F0A1
:0E69D2000001F66BF76B0801FF6B12007E0EE2
:1069E0000001F66FF76B120000017E0EF61901E14F
:1069F000F75101E0000C010C00017E0EF65D000E67
:106A0000F75901E3000C010C0001F6690F0EF76F56
:106A10001200FF0E0001F61902E10F0EF71901E056
:106A2000000C010C01D90DD9FEE110D9EF50006E18
:106A3000016AFF0E001801E1015001E0000C010C99
:106A40000001F62B000EF723D7DF000905E0ECD894
:106A5000F8D8FEE1FBD8EF6A1200E6D8F2D8FEE1E2
:106A6000F5D8EF5001E0000C010CD9CFE6FFE1CFE3
:106A7000D9FFDAD8E6D8FEE1E9D8EF2ADBD8EECFA5
:106A800000F0EECF01F0EFCF02F0CED8DAD8FEE181
:106A9000E7D800C0EEFF01C0EEFF02C0EEFFE552F6
