:020000040000FA
:06000000E3EF49F01200DD
:06000800B2EF24F012002B
:060018000FEF25F01200BD
:10100000010CB6C0F3FFB7C0F4FF1200B2C01BF072
:10101000B3C01CF0B4C01DF0B5C01EF01200938820
:10102000828C949C92861200BCEC0CF0828C000C9A
:10103000F2EC0FF0110EE126829C69EC0FF076ECD9
:101040000FF0FDE155EC0FF008000A0E64EC10F013
:10105000060EEECFDBFF070EEECFDBFF54EC10F0F9
:1010600069EC0FF076EC0FF0FDE1EAEC10F0050E04
:10107000F5CFDBFF0A0EDB8C0CEC10F0090E0CEC4C
:1010800010F0080E0CEC10F0070E0CEC10F0060E31
:101090000CEC10F0050E0CEC10F0FE0EDB50050809
:1010A00002E1CCEC0CF0140EF36E0B0EF3CFDBFF71
:1010B0000C0EDB6ACCEC0CF0DF6E0B0EDB060C0EBC
:1010C00001E2DB06FF0EDF5C05E1D9500B0F7FEC80
:1010D00010F0F0E169EC0FF076EC0FF0FDE1C0EC00
:1010E00010F0020807E1010EDFCFDBFFCCEC0CF0C3
:1010F000DF6E4BD069EC0FF076EC0FF0FDE1C0EC49
:1011000010F001082AE10D0EDB6A0E0EDB6A0A0EF2
:10111000F36E0F0EF3CFDBFF100EDB6ACCEC0CF09E
:10112000DF6ED9500D0FF1EC10F0EE06000EEE5A06
:10113000EE5AEE5ADF500FE10D0EDBCF00F00E0E2F
:10114000DBCF01F00F0EDBCF02F0100EDBCF03F090
:1011500088EC10F0E3E1DF6A18D069EC0FF076EC70
:101160000FF0FDE1C0EC10F004080FE1CCEC0CF046
:10117000E76E040E83EC10F0030E83EC10F0020E09
:1011800083EC10F0010EE7CFDBFF00EC10F069EC10
:101190000FF076EC0FF0FDE155EC0FF0030ED7ECFD
:1011A0000FF001E1828CE7EC10F0EECF03F0EFCF0F
:1011B00004F0F7EC0FF042EC10F0110EE15C02E2EB
:1011C000E16AE552E16EFCEF0FF0F2EC0FF00E0E6B
:1011D000E126829C69EC0FF076EC0FF0FDE155EC16
:1011E0000FF008000B0E64EC10F0070EEECFDBFFE3
:1011F00054EC10F00A0EEECFDBFF69EC0FF076EC4A
:101200000FF0FDE1EAEC10F0060EF5CFDBFF0B0E60
:10121000DB8C11EC10F00A0E11EC10F0090E11EC41
:1012200010F0080E11EC10F0070E11EC10F0060E85
:1012300011EC10F0FE0EDB50050802E10FEC0DF092
:10124000140EF36E0C0EF3CFDBFF0D0EDB6A5BECBE
:1012500010F001E2DB06010EDB50FF0805E1D9507A
:101260000C0F7FEC10F0F3E169EC0FF076EC0FF06F
:10127000FDE1C0EC10F0020808E1010EDB50E76E62
:10128000020E4FEC10F0010E31D069EC0FF076EC4D
:101290000FF0FDE1C0EC10F0010813E10C0EDB686B
:1012A0000D0EDB685BEC10F001E2DB06010EDB509B
:1012B00005E1D9500C0F7FEC10F0F4E1010EDB6A70
:1012C00017D069EC0FF076EC0FF0FDE1C0EC10F0F8
:1012D00004080EE1A4DBE76E050E4FEC10F0040EDF
:1012E0004FEC10F0030E4FEC10F0020EE7CFDBFFD7
:1012F0008DEC10F069EC0FF076EC0FF0FDE155ECA1
:101300000FF0030ED7EC0FF001E1828C010EDBCF62
:1013100000F0020EDBCF01F0030EDBCF02F0040E73
:10132000DBCF03F0050EDBCF04F0F7EC0FF042EC5F
:1013300010F00E0EE15C02E2E16AE552E16EFCEFB4
:101340000FF0F2EC0FF00E0EE126DE6A020EDD6EFB
:10135000DB6AF36E030EF3CFDBFF040EDB6A050ED0
:10136000DB6AF90EDBCF1DF0FA0EDBCF1EF0060EA6
:101370001DC0DBFF070E1EC0DBFFD950FB0FE96E5F
:10138000FF0EDA20EA6E54EC10F00A0EEECFDBFF0F
:101390000B0EEECFDBFF010EF36E0C0EF3CFDBFF77
:1013A000D9CFE6FFDACFE6FF19D8E552E552E76E6E
:1013B0000D0EE7CFDBFFDB5002E1010E05D00D0E75
:1013C000DB50FF08EDE1000E006E0E0EE15C02E264
:1013D000E16AE552E16E0050FCEF0FF0F2EC0FF025
:1013E000060EE12663EC0FF0EF50FF0A01E187D013
:1013F000010A01E17CD0FC0A4FE0010A32E0020A56
:1014000005E0010A01E07BD0000E7DD00001CB6B2E
:10141000020ECC6F91EC0FF0B85104E1090E9CEC78
:1014200010F0FDE1D880000E000194EC10F006E30E
:10143000010ED16F26EC10F0080E04D0D16B26EC13
:1014400010F0090EADEC0FF0010EDB5020E10001B1
:10145000CD6BCE6B040ECF6FD06B63EC0FF0030E31
:1014600019D00001CD51CE11CF11D01110E0CD0710
:10147000000ECE5BCF5BD05B8FDADF6EFF0EDF5CE2
:1014800028E0FE0EDF5C03E100EC11F03CD063ECE1
:101490000FF0FE0EEF6E1DD00001B1EC10F01DE05C
:1014A000C1EC0FF06DEC10F0CB5FBF51CC5B35D8C9
:1014B0000001CB51CC110FE16FDA6EDA0001B1EC13
:1014C00010F004E063EC0FF0030EEF6ECB6B020E36
:1014D000CC6F010E18D0020E16D0D15105E1DEEC12
:1014E0000FF0050E04EC10F0F5EC10F00CD063ECEE
:1014F0000FF0EF68DEEC0FF0050EADEC0FF0828C14
:1015000000EC10F0FF0E006E060EE15C02E2E16AF4
:10151000E552E16E0050FCEF0FF00001BE51BF112B
:1015200001E12ED0E9CFD2F0EACFD3F0F3CFD4F05F
:10153000F4CFD5F0BEC0F3FFBFC0F4FFC4C0E9FFD5
:10154000C5C0EAFF7550E86EA49E756806D0A4AECB
:10155000FED7A49E75507568EE6E000EF306F45A21
:10156000F350F410F4E1A4AEFED775CFEEFFA49EC5
:10157000D4C0F3FFD5C0F4FFD2C0E9FFD3C0EAFF67
:101580001200F2EC0FF0090EE12663EC0FF0EF50C1
:10159000FE0A01E1DED0FA0A01E1C8D0070A01E142
:1015A00098D0010A62E0030A05E0010A01E0DBD0FD
:1015B000000EDCD00001D76B020ED86F91EC0FF05B
:1015C000D880000E94EC10F003E30A0EDD6F3BD0E0
:1015D0000B0EDD6FC0C000F0C1C001F0C2C002F050
:1015E000C3C003F0090EA3EC10F0FDE100C0DFFF63
:1015F000010E01C0DBFF020E02C0DBFF030E03C0C1
:10160000DBFFE7EC10F0EFCF03F088EC10F007E120
:10161000F7EC0FF0EE2A000EEE22EE22EE22DEECC8
:101620000FF00F0EE66E7CEC0FF00DE1F7EC0FF013
:10163000EECFE6FFEECFE6FFEECFE6FFEFCFE6FF21
:10164000130E04EC10F00001B85104E1090E9CECFB
:1016500010F0FDE126EC10F0DDC0E6FF7CEC0FF0B1
:1016600001E07FD000EC11F032D00001D7510CE145
:10167000020ED81909E10B0EDD5D02E1FC0E01D06E
:10168000FE0EE66E7BD9E552C1EC0FF000016DEC69
:1016900010F0D75FBF51D85B73D80001D751D81174
:1016A00016E1D76B020ED86F00EC10F000EC10F0D2
:1016B00073D91F0B050836E163EC0FF0030EEF6ED4
:1016C0000001D96BDA6B0A0EDB6FDC6B4ED0020EB9
:1016D0004DD00001D951DA11DB11DC1123E0D9071B
:1016E000000EDA5BDB5BDC5B00EC10F055D900012F
:1016F000D66FE8503AE0B1EC10F011E1D96BDA6B3B
:101700000A0EDB6FDC6B0B0EDD5D20E1FD0EE66E7D
:1017100035D9E55200EC10F0D6DB040E05D000EC14
:1017200011F024D0D0DBFE0EEF6E1FD00001D95196
:10173000DA11DB11DC110DE0D907000EDA5BDB5B9F
:10174000DC5B2AD90001D66FE8500FE0F5EC10F011
:101750000DD0DEEC0FF0050E04EC10F0828C00ECE6
:1017600010F0B1DBEF68FF0E01D0030E006E090E22
:10177000E15C02E2E16AE552E16E0050FCEF0FF03D
:101780000001BE51BF1101E12AD0E9CFDFF0EACF5D
:10179000E0F0F3CFE1F0F4CFE2F0BEC0F3FFBFC062
:1017A000F4FFC4C0E9FFC5C0EAFFEE5003D0EE501D
:1017B000A4AEFED7A49E756E000EF306F45AF35045
:1017C000F410F5E1A4AEFED775CFDEF0A49EE1C023
:1017D000F3FFE2C0F4FFDFC0E9FFE0C0EAFF120060
:1017E000F2EC0FF0E652F80EDB500FE1FB0EDBCF10
:1017F00000F0FC0EDBCF01F0FD0EDBCF02F0FE0EA1
:10180000DBCF03F088EC10F02BE00001E36B020E5D
:10181000E46FE56BE66FE76BE86BF90EDBCFE9F0A1
:10182000FA0EDBCFEAF0FB0EDBCFEBF0FC0EDBCFEA
:10183000ECF0FD0EDBCFEDF0FE0EDBCFEEF0010E97
:10184000EF6FE30EE66E000EE66E9BDEE552E552AC
:10185000DF6EDF5002E1010E04D0FF0EDF5CF1E12C
:10186000000EE552C9D38050080B01E0010E1200B2
:10187000D9CFE6FFE1CFD9FF050EE126FE0EDB5002
:10188000DF6EDF50DF0600096BE00801005107E062
:10189000006A120E016E7A0E026E036A07D0006AA9
:1018A0006C0E016EDC0E026E020E036E080E206ED0
:1018B000216A226A236A00C01BF001C01CF002C02A
:1018C0001DF003C01EF0FDEC43F01BC000F01CC077
:1018D00001F01DC002F01EC003F0E80E206E030EE2
:1018E000216E226A236A00C01BF001C01CF002C0F6
:1018F0001DF003C01EF0FDEC43F01BC000F01CC047
:1019000001F01DC002F01EC003F0050E005E000EC7
:10191000015A000E025A000E035A010E00C0DBFFEE
:10192000020E01C0DBFF030EDB6A040EDB6AD95036
:10193000010FE96EDACFEAFFEFCF00F0EE06000EFE
:10194000EFCF01F0EE5AEFCF02F0EE5AEFCF03F0F7
:10195000EF5A005001100210031001E0E8D791D7B0
:10196000000000D0050EE15C02E2E16AE552E16EA2
:10197000E552E7CFD9FF1200729A1200FAEC10F08C
:10198000FE0EDB50756E72AE02D0FF0E03D0A4AE19
:10199000FED7000EE55230D3FAEC10F07568A4AE15
:1019A000FED77550E55228D31DDB736A726AFE0EAE
:1019B000DB507212738C94949396958C728A1CD31C
:1019C00011DB020EE1268B948A8694949396DF6A4B
:1019D000080EDF5C19E28B94FE0EDBAE02D08A8625
:1019E00001D08A96DB50020DFE0EF3CFDBFFDE52F4
:1019F000010EDD6E34DBFEE18B84DE52010EDD6E06
:101A00002EDBFEE1DF2AE4D78B94000E006E020E7F
:101A1000E15C02E2E16AE552E16E0050EDD2E2DA09
:101A2000030EE126020EDB6A8A869396958C8B94D0
:101A30009494DF6A080EDF5C16E28B94DE52010E8E
:101A4000DD6E0DDBFEE18B84DE52010EDD6E07DB09
:101A5000FEE1020EDB50020D020EF3CFDBFF83BC72
:101A6000DB2ADF2AE7D78B94020EDB50006E030ED1
:101A7000E15C02E2E16AE552E16E0050BDD2726AB9
:101A80008B948A86949493961200ACDA230EE12606
:101A90000001B96BBA6BB26BB36BB46BB56BB86B5F
:101AA000828CEDDF1E0EE66EE3DEE552828CDE6A8E
:101AB000DD6ADECF00F0DDCF01F00A0E005C000E23
:101AC000015806E22ADBDF2A010EF3E3DB2AF1D715
:101AD000640EDE6EDD6A828C20DB829CDF06010EE6
:101AE00001E2DB066CDB02E063DBF5E161DB0CE1CC
:101AF000828C13DB829C62DA050E5EDB60DB04E025
:101B00000001020EB96FB2D1AA0EE66E010EE66EAA
:101B1000E66AE66A020E50DB00680F0E016E026A8A
:101B2000036AA4DAAA0E001841E1010E01183EE191
:101B300002503CE103503AE1D950020F52DBEF5022
:101B4000040B34E13BDA100E37DBDE6ADD6ACEDAF5
:101B500016E234DA0F0EE5DA006E050EE15E005093
:101B6000E66AE66AE66A400EE66E120E25DB020EB3
:101B7000DB5005E0DF2A010EEAE3DB2AE8D7B6DA1C
:101B800003E30001020EB96F19DA100E15DB006ACB
:101B9000016A026A400E036E69DABADA04E00001F3
:101BA000010EB86F20D00001B86B1DD0828C010EE1
:101BB000E66E5EDEE552829C0001B86BDE681F0EA9
:101BC000DD6EFCD9010EF8DADF06010E01E2DB065C
:101BD000020EDB5002E0ECDAF4E1EADA04E10001A3
:101BE000020EB96F828C828CE66ADEDEE552829C40
:101BF000140EDE6EDD6AE2D9030EE66E18EC08F014
:101C000043D9DF06010E01E2DB06020EDB5002E0E3
:101C1000CFDAF1E1CDDA04E10001020EB96F25D18E
:101C20001C0EDB6A1B0EDB6A140EF36E1B0EDBCF81
:101C3000F4FFF350F45C20E2AFDEE66ED950070FFC
:101C4000006EDACF01F01C0EDB500F010024E96EAC
:101C5000000EDA20EA6EE552E750EF6E1C0EDB2A2A
:101C60001B0EDB5006E1070EDB50FE0802E11C0EE6
:101C7000DB6A1B0EDB2AD8D70001B66B020EB76FEA
:101C8000BB6BBC6FBA81070EDB50C00B2FE00E0E92
:101C9000DBCF00F0016A026A036A3F0E0016016A98
:101CA000026A036A100E1F0B02E054DAFEE10F0E07
:101CB000BDD9100E88D91D0EDBCFB2F01E0EDBCFC2
:101CC000B3F01F0EDBCFB4F0200EDBCFB5F0000178
:101CD000B22B000EB323B423B5230A0ED890B2372B
:101CE000B337B437B537E806F9E1A0D00D0EDBCF36
:101CF00000F0016A026A036A100E1F0B02E02ADA82
:101D0000FEE10E0E93D90F0E5ED9D9501D0F69DA80
:101D1000C00EEE16EE52030EEE16EE6A1D0EDBCF6F
:101D200000F01E0EDBCF01F01F0EDBCF02F0200E05
:101D3000DBCF03F0060E07DAFEE12DDA100EDB50E2
:101D4000030BE824006E110EDB50800BE844010BFE
:101D50000010E76E210EE7CFDBFF0C0EDB500F0B00
:101D6000E76E220EE7CFDBFFDB50F70F006E010EB0
:101D7000005204E0E846FE0B0006FCE1E76E220E8E
:101D8000E7CFDBFFDBCF0CF00D6A0E6A0F6A210E86
:101D9000DB50020F0DEC4AF0F3CF08F0F4CF09F05E
:101DA0000A6A0B6A010E046E056A066A076AD95050
:101DB0001D0F17DAEE500426EE500522EE500622D3
:101DC000EE50072204C01BF005C01CF006C01DF039
:101DD00007C01EF0F3CF20F0F4CF21F00AC022F0AC
:101DE0000BC023F081EC48F017C000F018C001F0E0
:101DF00019C002F01AC003F017C01BF018C01CF085
:101E000019C01DF01AC01EF00CC020F00DC021F04A
:101E10000EC022F00FC023F081EC48F017C0B2F0E2
:101E200018C0B3F019C0B4F01AC0B5F00001B20781
:101E3000000EB35BB45BB55BC1D8110EE5D8B6C07C
:101E400000F0B7C001F0026A036AB6C0E6FFB7C08F
:101E5000E6FF02C0E6FF03C0E6FF070EE66E18ECE1
:101E600008F0046E050EE15E0450828CB90E006E1F
:101E7000000E016E00C0F3FFF46E230EE15C02E27F
:101E8000E16AE552E16EB8D071D9020E00C0DBFF05
:101E9000030E01C0DBFF040E02C0DBFF050E03C012
:101EA000DBFF060E04C0DBFF120000500324F36EBC
:101EB00001500420F46E02500520F86EF4CFF7FFB5
:101EC000F3CFF6FF120060D90C0EE926000EEA22CD
:101ED0001200390E006E920E016E000E026EFE0EA2
:101EE000DBCF03F0046A056A020E1200D8900336B5
:101EF00004360536E806120018EC08F037D9040E4F
:101F000000C0DBFF050E01C0DBFF060E02C0DBFFD9
:101F1000070E03C0DBFF080E04C0DBFF040EDB501E
:101F2000120032D9EECFBEF0EECFBFF0EECFC0F050
:101F3000EECFC1F0EECFC2F0EECFC3F0EECFC4F0E3
:101F4000EECFC5F0EECFC6F0EECFC7F0EECFC8F0C3
:101F5000EECFC9F0EFCFCAF01200E66E18EC08F031
:101F600005D9010E00C0DBFF020E01C0DBFF030E2E
:101F700002C0DBFF040E03C0DBFF050E04C0DBFF65
:101F8000120002D9EECFBEF0EDCFBFF0FDD8060EA5
:101F9000E926000EEA22EECFC4F0EDCFC5F0BEC0B8
:101FA00000F0BFC001F0026A036A00501200F6267A
:101FB000000EF722F8220800F5501200E66AE66AE1
:101FC000E66AE66A1200DBCF08F0096A0A6A0B6A61
:101FD00008500012095001120A5002120B5003124D
:101FE000CBEF10F0D9CFE6FFE1CFD9FF1200D9CF68
:101FF000E9FFDACFEAFF1200E552E7CFD9FF12007E
:10200000E668BCDCE5521200E66E18EC08F0006EE3
:10201000050EE15E00501200DBCFE6FFAFDCE552BB
:102020001200DBCFE6FFCCDCE5521200DBCF04F080
:1020300004C005F0046A066A076A045000120550DD
:10204000011206500212075003121200C6C0E6FF2A
:10205000C7C0E6FFC8C0E6FFC9C0E6FF1200010E18
:10206000DBCFF3FFDB06F35000091200D950030F5A
:10207000B8D8EE500016EE500116EE500216EE5093
:1020800003161200ED50ED5004C0EDFF03C0EDFF4C
:1020900002C0EDFF01C0EDFF00C0EFFF1200E7CF6F
:1020A000DBFFBDDCE76E1200080EEECFDBFF090E92
:1020B000EECFDBFF1200B3DCE76E010EE7CFDBFFF4
:1020C0000C0EDB060D0E1200F5CFDBFFD950FA0F18
:1020D000E96EFF0EDA20EA6E1200C05F0150C15BAC
:1020E0000250C25B0350C35BBE511200DECF00F052
:1020F000DDCF01F0FF0E005CFF0E0158120071D819
:10210000EE50ED101200E7CFDBFF46DCE76E120069
:1021100000500110021003101200E66851DCE55275
:102120001200E66EE5EF08F0C055020EC155000E34
:10213000C255000EC3551200D890C637C737C837EE
:10214000C937E8061200D890033202320132003259
:10215000E8061200D8900036013602360336E8064B
:102160001200C051C111C211C31112004DD8EECFDF
:1021700003F0EECF04F0056E050EE15E055012008F
:1021800094DE020ED7EF0FF0FD0EDBCFE9FFFE0E5F
:10219000DBCFEAFF12001D0E00C0DBFF1E0E01C0E8
:1021A000DBFF1F0E02C0DBFF200E03C0DBFF1200AF
:1021B0001EDFEE50ED101200B4DF44EF0FF0FEDE34
:1021C000E66AE5EC08F060DE020EDB0412000FDFC9
:1021D00004EF11F06ADEF62A000EF722F82208005A
:1021E0001200E96EDACFEAFF1200828C09DF6BDEA3
:1021F000EF6A1200F7DEE6527550DF6EA49E120001
:1022000062DE020EEF6E1200EECF00F0EECF01F0B4
:06221000EECF02F0120007
:0A22160099EC17F0A098636A626A61
:102220000F01266BF9EC16F00F013FEC17F0DF6A97
:102230002FEC17F003E2DFEC16F0FAD7658C0F01F4
:10224000386B6598659C62A607D062960E015A6B42
:102250005F6B606B616BF7D70E01010E766F776F66
:10226000786B796B686BDF6A040EDF5C11E2EA6AF7
:10227000DF349CEC17F0EA22EE6AED6AEA6ADF349A
:10228000A3EC17F0EA22EE6AED6AEFEC16F0ECD759
:102290000E01080E4D6F040E4E6F0F01160E266FC5
:1022A0000401400E026F040E036F080E016F840ECE
:1022B000006F0E013F6B3E6BE552B9EF16F099ECE3
:1022C00017F00E013E0509E165BA07D0626A0F01F9
:1022D000368136890E01020E3E6F6250040B06E015
:1022E0000F013651040B02E0629459DB65B243D012
:1022F0006250010B0AE00F013651010B06E08BDF43
:10230000A0880E01040E3E6F62906250100B06E032
:102310000F013651100B02E037DB629862AC09D036
:102320000F0136AD05D046EC17F0730E7DEC16F0BC
:10233000629C6250200B05E00F013651200B01E03A
:1023400012DB6250020B0CE00F013651020B08E069
:1023500046EC17F0E6687F0EE66EAAEC17F0636AAB
:10236000040E0E01E76E3E19E8AE02D0E73402D04B
:10237000E7503E5D02E2A1982FD00F0136A72BD087
:10238000DF6A040EDF5C27E262A625D064CF69FE17
:102390000E016951780BE842E842E8426A6F6296A2
:1023A00069B504D06A51B8EC17F003D06A51BDEC9E
:1023B00017F0EA22EF706A5102E1FEDA0AD0000E4D
:1023C000E66EE66A690EE66E0E0EE66E720E7DEC45
:1023D00016F0DF2AD6D7A198E552B9EF16F06BECCC
:1023E00017F0FD0EDBA403D0E66A37EC17F0FD0E04
:1023F000DBA204D0010EE66E37EC17F0FE0EDB50C8
:10240000016A260F006E0F0E29EC17F0AAEC16F0E9
:10241000FD0EDBCFEFFF020EE15C02E2E16AE55266
:10242000E16EB9EF16F06BEC17F0FD0EDB5003E038
:1024300078EC16F002D0D0EC16F015EC17F0D9CFEE
:10244000E9FFDACFEAFFEE50ED1003E1F36AF46A38
:1024500028D0AAEC16F0CCEC17F0FB0EDBCFEEFF89
:10246000FC0EDBCFEDFFAAEC16F0EE52FA0EDBCF3E
:10247000EFFF400EC2EC17F0880ED1EC17F0FD0E06
:10248000DB5003E078EC16F002D0D0EC16F0EA2234
:10249000EF74DECF00F0DDCF01F000C0F3FF01C02C
:1024A000F4FF020EE15C02E2E16AE552E16EB9EF8F
:1024B00016F06BEC17F0FE0EDB5003E179EC17F031
:1024C00009D0D5EC16F059EC17F0D5EC16F0010F49
:1024D00059EC17F0020EE15C02E2E16AE552E16EAE
:1024E000B9EF16F0B4EC16F065A817D08AEC17F027
:1024F000400EEE16EE6AEE6AEE6A8AEC17F0EE7C9B
:1025000078EC16F0EA22EF74400E006E8AEC17F0B9
:102510000050EF168AEC17F0EF7CB9EF16F0656A01
:102520000F01366B0E013E6B12000E013E5110E1A1
:10253000656A0F01366B3FEC17F0D08EA288A08839
:10254000F28E65B602D06586FCD70E01010E3E6F95
:1025500012000E01765127E1010E766F775123E1CB
:10256000010E776F020E565D09E1AFEC16F0EE52E8
:10257000EF6AAFEC16F0C80EEF6E1200560513E1CD
:102580006B6BC5EC16F0EE52080EEF6EC5EC16F054
:1025900065EC17F0C5EC16F0840EEF6E010E6B6F54
:1025A000A3DB800EEF6E12000E01786B796B020ECA
:1025B000565D07E1C6EC17F0CAEC16F054EC17F0C4
:1025C00010D05B510401465D0E015C510401475976
:1025D00004E246C45BFE47C45CFE61D8C0DBDADBC4
:1025E000BEDBC80EEF6E12006BEC17F0000EDE6E55
:1025F000040EDD6EDADB040DF4CF01F0D9CFE9FF74
:10260000DACFEAFFF350EE260150ED22A3DBEF9E76
:10261000FD0EDB5002E1C4DB01D06ADBEA22DECF33
:10262000EEFFDDCFEDFF96DBEF9C94DB040EE92699
:10263000000EEA22EF8C020EE15C02E2E16AE55252
:10264000E16E97D365980E015ABF0DD05FAF09D0E8
:10265000020E566F795101E1A7DF0E01776B766BA1
:10266000120079EF17F0040140AF0DD00E01010EFA
:10267000566F785101E198DF0E01776B766B7551DB
:102680000DE1A9EF12F00E01020E566F2DDB840E44
:10269000EF6E776B766B755101E15BDF120099ECA1
:1026A00017F0080EDF6E0E015B5D000E5C590AE24A
:1026B0005BCEDFFF555102E1010E03D0550502E16B
:1026C000020E556FDF50016AE8505B5D5B6F015091
:1026D0005C595C6F44DBEE52DFCFEFFF480E656F55
:1026E000040E666F5AB110D0DF501AE057CEF6FFD5
:1026F000572B58CEF7FF000E582359CEF8FF592319
:102700000800F55085DBF0D7DF500AE057CEE9FF2F
:1027100058CEEAFF572B000E5823EF5079DBF4D741
:10272000E55227D3D8DB31DBEE52EFCFDFFFDFCF2F
:1027300000F000500E01605D000E615902E260CEB3
:10274000DFFFDF50006E016AE850605D606F01508E
:102750006159616F010EDB6ADF50F36E010EDBCF52
:10276000F4FFF350F45C16E2010EDB50EA6A480F06
:10277000E96E040EEA22EF50E66E5DCEE9FF5ECE12
:10278000EAFF5D2B000E5E23E552E750EF6E010E6F
:10279000DB2AE2D7000ED8806055000E61550EE2AC
:1027A000C6EC17F0F7DAF1DAEF50400B03E17CDB0F
:1027B000C80E02D079DB880EEF6E15D095DA840E44
:1027C000EF6E62516311641109E007D064CEFBFF24
:1027D00063CEFAFF0E016251F96EF8DF0E015F9FC2
:1027E000755101E1B6DE020EE15C02E2E16AE552FA
:1027F000E16EBFD29EDB0E015A8FFBDADF6A2FDB60
:1028000002E2DDDAFCD7658CDF6A040EDF5C02E2EF
:10281000E6DAFBD7010EE66EE66AE66A400EE66E81
:102820000E0E7FDB659C0E01080E4D6F040E4E6F81
:10283000000E416F040E426F41CE43FE446F42C40E
:102840003FFE3F5102E1100E0BD0010EE66EE66A2C
:102850003F0EE66E0E0EE66E010E4FDA0E01200EF2
:102860003E6FE55286D2800E0401405D40E10E01CC
:10287000C00E5A6F04014351030A25E0010A0BE020
:10288000030A33E10E013E0E576FFF0E586F000E24
:10289000596F120E24D0EA0E006EFF0E016E000E6C
:1028A00030DA020EF626000EF722F8220800F5CFE5
:1028B0005BFE57DB030EF626000EF722F822080017
:1028C000F5CF5CFE1200030E425D0CE2ED0E006ED1
:1028D000FF0E016E000E15DA0800F5500E015B6F59
:1028E0005C6B12000E015A6B12000E015A6B120043
:1028F000F2DA0401486B496B40511F0B020A11E0E8
:10290000030A0CE0010A1EE10E015A8F04014881FE
:102910000E01670517E10401488314D00E015A8F98
:1029200011D00E015A8F040144BF02D0E9DA01D060
:10293000ECDA7BDAF2DA06E00DDAEF50040B02E0B3
:10294000010E486F0E015AAF07D0480E576F040EA4
:10295000586F5A81020E5B6F020EE15C02E2E16A7F
:10296000E552E16E06D20F0126A10CD00EDAEF502F
:10297000800807E1F4D9EF50840803E106DA8C0EF1
:10298000EF6E2691629A12000F0136856298658279
:102990000E01010E686F4FDA750E7DEF16F00E0115
:1029A000686B49DA740EA9D965920F01369562A455
:1029B00002D06294FCD71200BCDAFD0E0E0169153C
:1029C00039E17E0E6915E8407F0B040DF3CF41FE1F
:1029D000F4CF42FE000E4127040E422341CE43FEB7
:1029E00042CE44FE4375D1D9EF503C0BE842E84259
:1029F0000D081EE1DF6A080EDF5C16E2C6D9020E82
:102A0000E926000EFFD9EF50E66EDF50EA6A400F6C
:102A1000E96E040EEA22E552E750EF6EB6D9BCDA51
:102A2000EE2AEF22DF2AE7D7B0D94FDA0AD807D04B
:102A300023D805D0FD0E6915040801E12CD8E55214
:102A400098D10E01556B756B786B796B6B6B566B10
:102A500086D9EF9E4D7583D9EF9E4D7525DAEF9E91
:102A60005A6B5B6B5C6B5F6B606B616B54D8E3D9CB
:102A7000030E43D922EF13F0020E0E01565D02E160
:102A800092EF13F0566B6B5104E12ED98C0EEF6E62
:102A900012006B6B12004DDA62D9EF50400B01E06F
:102AA000010EDF6E0E014D75080E3E5D0BE142C456
:102AB00038FF0F01385103E00E01100E02D00E0155
:102AC000040E3E6F560513E14AD964D9E8DD020EC3
:102AD0000E01555D03E143D9840E07D0DF5003E1B9
:102AE0003ED9C80E02D03BD9880EEF6E12D05FAF30
:102AF0000FD062516311641109E007D064CEFBFF6F
:102B000063CEFAFF0E016251F96EF8DF0E015F9F8E
:102B1000566BE5522ED104014051600BE842E84269
:102B2000E842E842E842000901E0120041510C0A83
:102B300045E00B0A3FE00C0A31E0010A22E00B0AF3
:102B40001EE0020A1CE0030A18E0080A10E0010A6D
:102B50000CE00F0A08E0030A01E012000E015A8F90
:102B6000080E3E6F120033EF14F0FAEF13F00E016F
:102B70003F0E576F0E0E586F0CD078EF14F0DFEF4A
:102B800015F044510E01576F586B400E57270E0E2B
:102B900058235A81010E5B6F5A8F12000E015A8F13
:102BA00004014451EA6A400FE96E0E0EEA2242C463
:102BB000EFFF120040D9020E7DEF16F01200D4D8BC
:102BC000050EE1260401420510E140511F0B0009EA
:102BD0000CE10E015A8F030E0401415D04E10E0168
:102BE000010E676F02D00E01676B0401425101E0D4
:102BF00074D040511F0B020870E144510F0B0009C3
:102C00006CE044510F0B030868E3200E0E013E5D9B
:102C100064E15A8F040144BF04D072D906D911D996
:102C200003D073D902D911D9EA22020EEFCFDBFF0C
:102C300034D9010B03E1000EDF9401D0DF8444BFDF
:102C400002D05ED901D061D9EA22DECFEEFFDDCF1E
:102C5000EDFF030E415D0CE160D907E044BF02D0F7
:102C6000F0D801D0F2D8EA22EF82840E9AD935D07A
:102C7000DF7453D906E06ED8EF9E6CD8EF8C2FD955
:102C800002D068D8EF8CDF7408D9020B02E145D975
:102C90000DE0040144BF02D0D4D801D0D6D8EA2236
:102CA000EF923B0E006E6ED91AD902D03B0E6AD954
:102CB000040144510F0B016A260F006E0F0E012212
:102CC000030E00C0DBFF040E01C0DBFF030EDBCFF1
:102CD000E9FF040EDBCFEAFFEF90050EE15C02E2B4
:102CE000E16AE552E16E45D051D9EFD854EF17F0C3
:102CF000FE0EEA6ADB349CEF17F0E66EE66AAAEF96
:102D000017F0026E42C403F0046A056A030E216ED6
:102D1000226A236A03C01CF004C01DF005C01EF027
:102D20004FEC44F000501924F36E01501A20F46E59
:102D300002501B20F86EF4CFF7FFF3CFF6FF090027
:102D4000F5CF57FE0900F5CF58FE0800F5CF59FE24
:102D5000B1EF17F0DECFE9FFDDCFEAFF12004DCE75
:102D6000E9FF4ECEEAFF1200D9CFE6FFE1CFD9FF4F
:102D70001200E552E7CFD9FF120044510F0BE96E64
:102D8000EA6AD890E936EA36120041CEE9FF42CE2F
:102D9000EAFF120001D9480EEE6E040EED6E12002D
:102DA000FE0EEA6ADB34A3EF17F0FD0EDB50E824D9
:102DB000026EFE0EDB50040DF35002241200DF50B1
:102DC000040DF3CFE9FFF4CFEAFF000EE926040E6D
:102DD000EA22EE6AEE6AEE6AEE6ADF2A1200DF503D
:102DE000CCD8EA22EF6ADF50C3D8EA22EF6ADF2AA2
:102DF0001200030EE66EE66AE66A270EE66E0F0E16
:102E000091EF17F0EA22EE50EFCFEAFFE96E1200E1
:102E1000E66E65CEE9FF66CEEAFF652B000E6623FF
:102E2000E552E750EF6EDF061200EA22EECFDEFF3A
:102E3000EDCFDDFF1200000EE66EE66AE66EE66A92
:102E4000120044510F0BB8EF17F044510F0BBDEFB8
:102E500017F0012200C0DEFF01C0DDFF1200DF50CD
:102E6000006E016A100E005C000E01581200FE0E8A
:102E7000DBCFE6FFF4EC12F0E552E5521200160E3D
:102E8000396F9F0E376F7B0E366F1200010EE66EA4
:102E9000E66A000EE66EE66A1200D950020FE96E8D
:102EA000DACFEAFFEF50120043CEE9FF44CEEAFF4B
:102EB0001200040DF3CF00F0F4CF01F0000E002655
:102EC000040EC7DF840ED1EF17F066D8400EEE6E09
:102ED000040EED6E120048DF020EE1261200020E13
:102EE000E66EE66ADECFE6FFDDCFE6FF050E7DEF9C
:102EF00016F0FADE8C0EEF6E32DF840EEF6E1200EB
:102F00003CDF450EE9260E0E120037DF4D0EE92696
:102F10000E0E1200EDDE02EF17F01CDFEF50800BFB
:102F20001200E66E34EC45F0006E050EE15E0050D6
:102F300012001ADFE6521200FE0BEA36E96E4D0E61
:102F4000E9260E0E1200FE0BEA36E96E450EE92662
:102F50000E0E120052EC24F0006E060EE15E0050E0
:102F6000120057CEF6FF58CEF7FF59CEF8FF1200E9
:102F7000EA6A700FE96E0E0E1200EA6A6C0FE96ED3
:102F80000E0E1200E7DEE850EF1612008DDFEE5253
:102F9000080EEF6E54EF17F0020EE926000EEA223B
:0A2FA0001200D8DEE850EF12120014
:062FAA00D5EC1DF0F2EC75
:102FB0001DF079EC1DF04FCE9BF050CE9CF000013F
:102FC000606B6169626B636BA26BAA6BAB6BAC6B82
:102FD000AD6BAE6BAF6BB06BB16B010EA36F9F6B44
:102FE000A06B726B010E725D11E28EEC1DF0EF6A48
:102FF00000EC08F0000905E06AEC1DF002E060EC6E
:103000001DF01DEC1CF00001722BECD71200040126
:1030100040511F0B010801E01200445101E0120071
:103020004151FE0A29E0010A01E012004251431118
:1030300038E14651471101E012000001606B6169FF
:10304000626B636B010EA36F0E014751481102E1E1
:10305000000E08D047CEE9FF48CEEAFFEF50800BC4
:1030600001E0010E000904E1D5EC1DF0FFEC1DF0BC
:103070000E01800E5A6F12004251431112E1010EEF
:10308000461901E1475101E012000401486B0E01AD
:10309000480E576F040E586F010E5B6F5C6BC10ECC
:1030A0005A6F120057EC1DF0E652200E0E013E5DE5
:1030B00002E0000ED8D0A09800016051030A01E19F
:1030C0009ED0010A01E18AD0030A01E183D0010AFE
:1030D00001E0C0D099519A1102E1000E04D033EC06
:1030E0001DF001E0010E000901E0BAD0DF6A1F0EF9
:1030F000DF5C13E2DF50EA6A500FE96E040EEA2249
:10310000EF50E66EDF50EA6A650FE96E000EEA22C4
:10311000E552E750EF6EDF2AEAD702EC1EF0EE52DE
:10312000EF501F0850E1550E000165194CE1530E98
:10313000661949E1420E671946E1430E681943E1F9
:10314000010EA36F725100083BE37351100838E37E
:10315000010E735D35E33F0E711532E10401550E2A
:103160006F6F530E706F420E716F530E726F69C0A6
:1031700073F46AC074F46BC075F46CC076F4C6EC7A
:103180001DF07B6B00016169626B636B646B030E06
:10319000745D06E08791879387958797916B926B13
:1031A00071AF02D0010E01D0020E606FCBEC1DF0AA
:1031B00002E0A26B02D0010EA26F74C061F050D089
:1031C00007EC1EF04BD007EC1EF0E3EC1DF0000105
:1031D000A36B46D04BD8FF0843E10DD047D8FF087A
:1031E0003FE104017B5107E17751781179117A11A0
:1031F00002E0020E7B6F0001030E606F31D00E0102
:103200004F51501102E1000E08D04FCEE9FF50CED1
:10321000EAFFEF50800B01E0010E000921E10D0EE5
:10322000E66E6F0EE66E040EE66EDEEC1DF000013B
:1032300099519A1102E1000E04D033EC1DF001E027
:10324000010E000904E1D5EC1DF0FFEC1DF00001BA
:10325000606B06D0606B0401020E7B6FE3EC1DF027
:10326000A08800016051E5525CEF1DF000EC08F011
:10327000000905E000018EEC1DF0EF040EE10001F5
:1032800072510DEC4AF00BEC1EF0001E011E0050B6
:1032900000019F170150A0171CD072510DEC4AF08D
:1032A00000019F51F314006EA051F414016E005000
:1032B000011011E16AEC1DF00CE060EC1DF087914B
:1032C000878387858797280E916F926BEEEC1DF0B0
:1032D00002D005D801D025D80001615112000001AB
:1032E0006151FD0A17E0EF0A15E00C0A0EE01E0A14
:1032F0000CE0030A11E1A1DA000187918783879529
:1033000087973A0E916F926B05D0EEEC1DF000019D
:103310006169120091EF19F07F0EE66E2FDBE55226
:103320001200C5DB0A0EE12600016151FE0A01E12F
:103330001FD1030A01E1CDD0D20A01E1C6D0340A7F
:1033400001E1C3D01B0A01E1B1D01E0A01E1ABD0FB
:10335000040A01E191D0190A71E0260A39E0370A1E
:103360000FE0380A08E0020A01E002D145D900095D
:1033700001E002D1ACD0B5D9000901E0FDD0A7D061
:10338000A20501E1F3D077C0A5F078C0A4F078C021
:1033900000F077C001F0026A036A78C0E6FF77C0E8
:1033A000E6FF47DB01E0E8D0240E7BDB240EE66E6F
:1033B000E66AE30EE66E920EE66E000EE66E10EC26
:1033C0001EF0C5EC44F0006E070EE15E005067D0C1
:1033D00006EC08F0060E1BC0DBFF070E1CC0DBFF6F
:1033E000080E1DC0DBFF090E1EC0DBFF01EC08F05C
:1033F0000BEC1EF0020EF3CFDBFF030EF4CFDBFF6E
:10340000040EDB6A050EDB6A090EDBCF00F6080E40
:10341000DBCF01F6070EDBCF02F6060EDBCF03F69D
:10342000050EDBCF04F6040EDBCF05F6030EDBCF73
:1034300006F6020EDBCF07F6080E2DD0A20501E13D
:1034400095D0120EA46FA56B2CDBDF6ADF50006EE7
:10345000016A120E005C000E015821E2DF50EA6A98
:10346000850FE96E000EEA22EF50E66E5EDBE55254
:10347000E750EF6EDF2AEAD70601030E006F016BFB
:1034800033EC0CF0000902E0800E01D0000E0601C2
:10349000026F036B040E0001A46FA56B02DB000139
:1034A000FD0E616F69D02ADB99DB10D0E66AE66A0F
:1034B000E66AE66A8CDB60E1000187510F0B0608C3
:1034C00003E104017B0503E0B8D904015FDB0001DF
:1034D0004DD09B519C1102E1000E03D0C8DA01E0EF
:1034E000010E000949E1400E6D5D000E6E59000E9F
:1034F0006F59000E705909E3DE52400EDD6E6D5FAC
:10350000000E6E5B6F5B705B07D0010E6DC0DBFF62
:103510006D6B6E6B6F6B706B010EDB50006E016A32
:10352000E850A45D0150A55909E3010EDB50006E7F
:10353000016AE850A45F0150A55B10D0DF6A010E5C
:10354000DB50DF5C0BE2A451A51104E0A407000EE0
:10355000A55B02D0EADAEF6ADF2AF1D7010EDBCFF2
:10356000E6FF5EDB2BDB000116DB06E1616904D0C0
:103570007F0EE66E03DAE5520A0EE15C02E2E16AD2
:10358000E552E16E99D293DAD7DA026A036A005003
:1035900000016D5D01506E5902506F590350705912
:1035A00007E20401F3DA6DC0A4F06EC0A5F023D0E9
:1035B000C3DAA451005CA551015806E2FD0EDBCF31
:1035C000A4F0FE0EDBCFA5F0A4C000F0A5C001F072
:1035D000026A036A6D0EE96E000EEA6E0050EE5C40
:1035E0000401776F0150EE58786F0250EE58796FF2
:1035F0000350EE587A6F60D200016251040A4BE02A
:10360000070A3CE0010A14E0030A0AE0010A60E14B
:1036100016DA99DAFEE1EDDA61E10001010E626F7E
:10362000A451A5115AE0A407000EA55B020E626F1B
:103630009B519C1102E1000E03D019DA01E0010E4A
:1036400000094CE11BDAA1EC09F0006E060EE15E08
:10365000005001080AE0640E0001645D02E2642B80
:103660003DD00401020E3CDA36D07BDA73DA000179
:10367000000E976F060E986F030E626F040177516C
:10368000781179117A1104E10001010E626F26D0E0
:103690000001040E626F9B519C1102E1000E03D0E9
:1036A000E6D901E0010E000919E162DA87DA0001CA
:1036B000030E626F400E6D5F000E6E5B6F5B705BA2
:1036C000400E0401775F000E785B795B58DA06D014
:1036D0000401020E7B6F9BDA0001626B00016251F4
:1036E000120000016351020A01E179D0060A5AE092
:1036F000070A2AE0020A1DE0010A01E095D09FD9DD
:1037000022DAFEE176DA01E095D033EC0CF0000924
:103710000DE064DA00018781878387858797270E0C
:10372000916F926B50DA0001636B85D00001010E3E
:10373000606FA451A51101E17CD0030E636F000EF0
:10374000976F060E986F06DAD880000E0401775541
:10375000000E7855000E7955000E7A5513E20001DF
:1037600099519A1102E1000E03D07DD901E0010EBA
:10377000000960E1FDD9E66A010E41DA0001040E9C
:10378000636F10D033EC0CF0000909E027DA000178
:103790008791878387958797270E916F926B00019A
:1037A000020E40D099519A1102E1000E03D05BD96C
:1037B00001E0010E00093EE16BD96D5F01506E5BC7
:1037C00002506F5B0350705B63D90401775F015057
:1037D000785B0250795B0350D2D9030E23D00401E9
:1037E0007B511CE10001A651A711A811A91102E10A
:1037F000010E01D0000EE66E41D9F0EC0BF0006E28
:10380000070EE15E0050010809E0640E0001645DEE
:1038100002E2642B0FD00401010E62D9A2D9A407E1
:10382000A55B010E636F06D00401020E7B6FCBD93E
:103830000001636B000163511200000185918593C3
:10384000859585978589858B858D859F866B8791E5
:10385000879387958797879B879D879F886B896BC1
:103860008A6B8B6B0A0E8C6F8D6B8E6B8F6B906B74
:10387000916B926B936B946B956B966B120017D94F
:10388000030EE126FB0EDBCF00F0FC0EDBCF01F0D8
:10389000FD0EDBCF02F0FE0EDBCF03F00050011077
:1038A0000210031006E1010EF36E020EF3CFDBFFF0
:1038B00002D0020EDB6A0001A20503E1020EDB0466
:1038C00016E024D9EE1815E16E51EE1812E16F5191
:1038D000EE180FE17051EE180CE10BE1600504E108
:1038E0002A0E615D06E003D02A0E615D02E1000E42
:1038F0003CD00CD9EE5C6E51EE586F51EE587051C1
:10390000EE5804E2DE52010EDD6E02D0010EDB6ADB
:10391000020E605D12E12A0E615D03E0020EDB50D3
:103920000AE0A20511E0020EDB0403E0010EDB0455
:1039300002E1040E14D0050E12D02A0E615D02E1E0
:10394000030E0DD0A20502E1010E09D0020EDB0428
:1039500003E0010EDB0402E1020E01D0030EDF6E74
:10396000DFCFE6FF0BD8E552DF50006E030EE15CBF
:1039700002E2E16AE552E16E00509ED098D8E6522C
:1039800000019B519C1102E1000E03D070D801E0B0
:10399000010E000943E199519A1102E1000E03D092
:1039A00062D801E0010E000939E160C0DFFF616902
:1039B000626B636B6DC077F46EC078F46FC079F49E
:1039C00070C07AF40BD90001030E606FFE0EDB505D
:1039D0007F0A16E07A0A10E0010A1AE0070A08E0F6
:1039E000010A19E0030A1AE10401020E7B6F16D0E6
:1039F0000401020E7B6F0FD00401020E7B6F08D012
:103A00001CDF00017BD8020EDF5C05E1C4D803E0B7
:103A1000E66A010E02D0010EE66E05D8E5524CD0E2
:103A2000E1D800501200E66E59EC12F0E552E55272
:103A3000120002C0E6FF03C0E6FFE7EF1DF076C00C
:103A4000A9F077C0A8F078C0A7F079C0A6F07BC035
:103A5000A5F07CC0A4F07CC000F07BC001F0026A3D
:103A6000036A090E1200CED8EF50800B12009BC0E3
:103A7000E9FF9CC0EAFFEF50800B1200D1D8A6C02E
:103A8000E6FFA7C0E6FFA8C0E6FFA9C0E6FF120058
:103A9000B9D8EE52EFCF00F0016A026A036A005013
:103AA0001200E66EE66A6FDDE552E5521200D9CFEC
:103AB000E6FFE1CFD9FF1200E552E7CFD9FF1200B0
:103AC000000172510DEC4AF0F35000019F13F450C5
:103AD000A013120045EC0DF09ED8F350F410120024
:103AE0007B6F00018781878387958797916B926BA6
:103AF0001200F3CF99F0F4CF9AF0120087818793E8
:103B000087858797200E916F926B1200D950FB0F1B
:103B1000E96EFF0EDA20EA6E6D5112007251EA6A08
:103B2000A10FE96E000EEA221200DF50EA6A000FD0
:103B3000E96E060EEA221200FD0EDBCF00F0FE0E4B
:103B4000DBCF01F01200D890003601360236033682
:103B5000E80612000401776B020E786F796B7A6BBE
:103B600012000001A62B000EA723A823A9231200F0
:103B7000400EE66E97C0E6FF98C0E6FF12007A5B43
:103B8000400E00019727000E98231200776B786B88
:103B9000796B7A6B12006D516E116F1170111200FA
:103BA000F3CF9BF0F4CF9CF01200400EE66E500E67
:103BB000E66E040EE66EE66A010E1200010EE66E77
:103BC0002FDFD0EF1DF0E66A010E13EF1DF057DE78
:103BD000E552E552E552E552000912000401010EDA
:103BE0007B6F1200E66E13EC12F0006E050EE15EC4
:103BF000120000C0E6FF01C0E6FF19EF1DF010DF64
:103C000079EF1DF099C0E9FF9AC0EAFF1200010E9A
:103C1000E66E13EF1DF0F3CF00F0F4CF01F01200C9
:0A3C2000000EE66E060EE66E1200BE
:063C2A0051EC23F0FB0E3B
:103C3000DBCFF3FFDB06F35000090AE09FEC23F033
:103C4000FA0E0AEC24F0F3E1011CF1E1010E01D0BF
:103C5000000E80EF23F051EC23F03B0EE12402E351
:103C6000E168E652E16E010EDB6A020EDB6AF90ED4
:103C7000DBCFF6FFFA0EDBCFF7FFFB0EDBCFF8FF53
:103C80000800F550DF6EDF5002E1A4EF22F0250EB0
:103C9000DF5C02E097EF22F0030EDB6A040EDB6AC2
:103CA000050EDB6A060EDB6A070EDB6AB9EC22F052
:103CB0002D0EDF5C0CE02B0EDF5C09E0200EDF5CDC
:103CC00006E0230EDF5C03E0300EDF5C1AE1DF501C
:103CD000300A14E0130A0FE0030A0AE00B0A05E0B9
:103CE000060AE4E1030EDB80E1D7030EDB82DED7B8
:103CF000030EDB84DBD7030EDB86D8D7030EDB880D
:103D0000D5D72A0EDF5C1BE1B5EC22F003EC23F0E3
:103D100010E0030EDB801D681E68130EDBCF22F05F
:103D2000140EDBCF23F098EC44F0040E1BC0DBFF35
:103D300003D0130EECEC22F0B9EC22F00BD0090EFC
:103D4000DB6A5AEC23F003E0CEEC23F0FAD7090E3D
:103D5000ECEC22F0030EDBB0DB982E0EDF5C1BE1F7
:103D6000B9EC22F02A0EDF5C0BE1B5EC22F003EC9B
:103D700023F003E1130E3EEC23F0B9EC22F00BD05C
:103D8000090EDB6A5AEC23F003E0CEEC23F0FAD7FD
:103D9000090E3EEC23F0680EDF5C07E1B9EC22F07F
:103DA000680EDF5C1DE1030E18D0740EDF5C17E0B7
:103DB0007A0EDF5C14E0480EDF5C06E0540EDF5C38
:103DC00003E05A0EDF5C02E1020E07D06C0EDF5CEE
:103DD00003E06A0EDF5C04E1010E91EC23F0C9DB25
:103DE000DF506E0A01E17FD31E0A01E192D1200A61
:103DF00001E18FD13F0A01E149D11A0A01E146D11F
:103E00000D0A01E143D1200A01E140D13A0A01E162
:103E10003DD1200A01E13AD1260A01E135D10D0A4E
:103E200001E132D11A0A01E1D9D0200A4AE0300A70
:103E30001FE0460A0EE0250A01E083D3D950F90FAE
:103E4000E96EFF0EDA20EA6E010EEE5E000EEE5A0B
:103E5000EE5A9FEC23F0250EE66E95DB03E1011C84
:103E600001E169D39BEC23F001E26BD3DB2A69D338
:103E7000080EDB6A040EDB50010806E2040EDB04C8
:103E800063EC23F0DB508BDB080EDB5009E0030E04
:103E9000DB50010B05E172DB01E04DD3080EDB6A5C
:103EA00064DBEFCFDFFF13EC24F003E1011C01E141
:103EB00042D39BEC23F001E3DB2A60DB01E141D339
:103EC0003AD3070EDB5002080FE1DFEC23F0030EBC
:103ED000A6EC23F00E0EEECFDBFF0F0EEECFDBFFD6
:103EE000100EEECFDBFF20D0F70EDBCF03F0F80E85
:103EF000DBCF04F0020E035E000E045AF70E03C07F
:103F0000DBFFF80E04C0DBFF03C0E9FF04C0EAFFDB
:103F100096EC23F0026A0E0E00C0DBFF0F0E01C00C
:103F2000DBFF100E02C0DBFF0E0EDBCFE6FF0F0E35
:103F3000DBCFE6FF100EDBCFE6FF5CEC45F0E55291
:103F4000E552E552130E1CC0DBFF140E1DC0DBFF53
:103F5000060EDB5005E0130EDAEC23F001E26ADB1B
:103F6000FEEC23F002E2130E37DBC1EC23F006E097
:103F7000040EDAEC23F002E2050E2EDB030EDBB0BA
:103F800005D0FCDA01E0D7D2080EDB6A090EDB6A45
:103F90000E0EDBCFF6FF0F0EDBCFF7FF100EDBCFE1
:103FA000F8FF0800F550DF6EDF5014E004EC24F059
:103FB00011E213EC24F003E1011C01E1BCD2BBDBF4
:103FC00001E3DB2A090EDB2AD9500E0FE96E000E41
:103FD000CBDBE7D7D3DA01E1B4D2ADD2C6DA110E2A
:103FE000EECFDBFF120EEDCFDBFF110EDBCFE6FFD6
:103FF000120EDBCFE6FF4EEC45F0E552E552130E14
:10400000F3CFDBFF140EF4CFDBFF060EDB5004E032
:10401000130ED0DB01E20EDBFEEC23F002E2130E06
:10402000DBDAAFDB05E0040EC5DB02E2050ED4DA15
:10403000030EDBB005D0A2DA01E07DD2080EDB6A08
:10404000090EDB6A110EDBCFE9FF120EDBCFEAFFB0
:10405000EFCFDFFFDF5014E0D7DB12E2E4DB03E158
:10406000011C01E168D267DB01E3DB2A090EDB2AD0
:10407000110EDB2ADBCFE9FF120EE8E3DB2AE6D7DD
:104080007DDA01E15ED257D2030EDB8E070EDB0430
:1040900010E195DB040E5ADB0A0EEECFDBFF0B0EB0
:1040A000EECFDBFF0C0EEECFDBFF0D0EEECFDBFF16
:1040B0006CD0070EDB5003082CE1030EDBAE0DD0F5
:1040C000B2DA020E76DAEFCF00F0016A026A036A12
:1040D00000AE39D00168026835D0F70EDBCF01F0B1
:1040E000F80EDBCF02F0020E015E000E025AF70E50
:1040F00001C0DBFFF80E02C0DBFF01C0E9FF02C018
:10410000EAFFEFCF00F00A0E00C0DBFF0B0EDB6A08
:1041100038D0070EDB50020809E1030EDBAE04D0F5
:1041200059DB02AE10D00ED055DB0DD0030EDBAE46
:1041300012D079DA020E3DDAF9DA026A036A01AEC8
:1041400002D002680368E2DA0C0E02C0DBFF0D0E3B
:1041500003C0DBFF1AD0F70EDBCF02F0F80EDBCF87
:1041600003F0020E025E000E035AF70E02C0DBFFE0
:10417000F80E03C0DBFF02C0E9FF03C0EAFFD6DA96
:10418000C5DA0C0EDB6A0D0EDB6A060EDB5005E1AC
:10419000010EF36E050EF3CFDBFF150EDB6A160E74
:1041A000DB6AD950370F006E000EDA20016E390E2F
:1041B00000C0DBFF3A0E01C0DBFF380EDB6A080EE1
:1041C000DB6A0A0EAEDADF50780A12E0200A10E04D
:1041D000280A0CE0200A0AE03F0A06E00D0A02E085
:1041E000200A08E1020E05D0080E03D0080EDF26D3
:1041F000100E97DA030EDBBE02D0DB92DB94DB50AD
:10420000800B24E08ADAD890030EEB50000A08E60F
:10421000000EEE5C000EEE58000EEE58000EEE584A
:1042200015E213DA206821682268236881EC48F0DF
:104230000A0E17C0DBFF0B0E18C0DBFF0C0E19C0F7
:10424000DBFF0D0E1AC0DBFF2D0E08D0030EDBA224
:1042500002D02B0E03D0DBA408D0200EF36E170E75
:10426000F3CFDBFF150EDB2A02D0170EDB6A050E3B
:10427000DB5003E1B7D901E189D0300E006E940E16
:10428000016E000E026E070EDBCF03F0046A056AB2
:10429000066A03C020F004C021F005C022F006C069
:1042A00023F0D3D945EC49F000501724F36E0150A8
:1042B0001820F46E02501920F86EF4CFF7FFF3CFF8
:1042C000F6FF0800090EF5CFDBFF580EDF5C0FE1AB
:1042D000610EF36E090E7BD90AE3200E006E090E03
:1042E000DBCFE7FF0050E75E090EE7CFDBFF070EED
:1042F000DBCF00F0016A026A036A0FDA00C020F027
:1043000001C021F002C022F003C023F0EECF1BF069
:10431000EECF1CF0EECF1DF0EFCF1EF045EC49F0D4
:104320001EC0EDFF1DC0EDFF1CC0EDFF1BC0EFFF69
:10433000390EDBCFE9FFDB063A0EDBCFEAFF01E205
:10434000DB06090EDBCFEFFF150EDB2A4BD995E11B
:10435000030EDBA61DD06F0EDF5C06E1C1D918E3AA
:10436000150EDB285BDA14D0780EDF5C09E0580EFE
:10437000DF5C06E0620EDF5C03E0420EDF5C08E11A
:10438000020EF36E160EF3CFDBFF02D0150EDB6AC2
:10439000030EDB50100B0EE0040EDBCF00F0050E19
:1043A000DB50D880005406E2060EDB5003E1040E19
:1043B000DB5034DA95D90AE2050EDBCFE7FF150EA4
:1043C000DB50E75E050EE7CFDBFF02D0050EDB6AB0
:1043D000040EDBCF00F0160E45D9D880005414E24D
:1043E000160EDBCFE6FF150EDBCFE6FF040EDBCFAC
:1043F000E6FF050EDB50E552E75CE552D880E75456
:10440000E552D880E7545FD9030EDB50010B0BE176
:10441000080EDB5008E0B2D801E08DD0080EDB506A
:10442000BED8080EDB6A170EDB5007E088D9170EDE
:10443000F1D903E1011C01E17ED0160EDB5016E03C
:104440007ED9300EE66E9FD802E1011C74E077D968
:10445000DFCFE6FF3FEC48F0E552E552E552F4CFFE
:1044600001F00001F31C02E1011C65E0050EDBCF49
:1044700000F0160EDB50D880005409E2050EDBCFA9
:10448000E7FF160EDB50E75E050EE7CFDBFF300ED1
:10449000E66E050ECBD94FE1390EDB2ADBCFE9FF03
:1044A0003A0E01E3DB2ADBCFEAFF090EEFCFDBFF99
:1044B000DB500EE044D9090EADD902E1011C3BE00E
:1044C000390EDB2ADBCFE9FF3A0EEDE3DB2AEBD72F
:1044D00055D831E1160EDBCFE6FF080EC3D8E55202
:1044E000E7245DD82ED0070EDB50030A1CE0010A3A
:1044F00014E0030A07E07BD9DBCFEEFF020EDBCF2F
:10450000EDFF1FD0F5D8056A03AE02D00468056838
:104510002CD8BCD805C0EEFF14D0EAD803BE04687E
:1045200024D8B4D80ED063D9DBCFEFFF0AD07BD923
:1045300005E1011C03E1F368F46810D0FCD801E345
:10454000DB2A79D940EF1EF0010EDBCF00F0020E1E
:10455000DBCF01F000C0F3FF01C0F4FF3B0EE15CD4
:1045600002E2E16AE552E16ECBD029D9020EA6EF54
:1045700023F061D90800F550DF6E1200200EE66EC0
:10458000080E16EF24F03FEC48F0E552E552E552F4
:10459000F3CF00F0F4CF01F00001F31C1200006E25
:1045A000016AD950010F4DD90050EE260150ED227D
:1045B0001200045E000E055AF70E04C0DBFFF80E71
:1045C00005C0DBFF04C0E9FF05C0EAFF1200DBCF36
:1045D000F4FFF350F45C1200DB50E76E040EE7CFFB
:1045E000DBFF12000A0EDBCF00F00B0EDBCF01F079
:1045F0000C0EDBCF02F00D0EDBCF03F000500110EC
:10460000021003101200130EEECFDBFF140EEDCFDD
:10461000DBFF130EDBCF00F0140EDBCF01F0000147
:10462000800E01141200F70EDBCF04F0F80EDBCF82
:1046300005F01200050EDB50E66ED950130F01D9BC
:10464000E552E750EE6EED6A12000A0EDBCF1BF06A
:104650000B0EDBCF1CF00C0EDBCF1DF00D0EDBCFF5
:104660001EF01200DBCFE6FF150EDBCFE6FF050ED6
:10467000DB50E552E724E552E7241200DB50CED8A8
:10468000010EF36E060EF3CFDBFF1200EE50EFCFFC
:10469000EAFFE96E02C0EEFF03C0EEFF04C0EEFFCA
:1046A0001200D9CFE6FFDACFE6FFE1CFD9FFE2CFA4
:1046B000DAFF1200DFCFE6FFE66AB1EC49F0E5521F
:1046C000E552F3501200E76E080EE7CFDBFF120051
:1046D000EECF00F0EECF01F0EFCF02F0036A120050
:1046E000050EDBCF00F0150EDB50D8800054120011
:1046F000010EDBCF02F0020EDBCF03F0046A1200E2
:10470000E552E5CFDAFFE7CFD9FF12000A0E00C06D
:10471000DBFF0B0E01C0DBFF1200D9500A0F21EFA7
:1047200024F0F36E070EF3CFDBFF1200EECF00F0A4
:10473000EFCF01F01200010EDB2A020E1200FC0E78
:10474000DBCFE6FFFD0EDBCFE6FF1200005E000EC2
:10475000015AF70E00C0DBFFF80E01C0DBFF00C0FE
:10476000E9FF01C0EAFF1200DA20EA6EEF2AEECF7D
:10477000F6FF000EEF22EECFF7FFEF22EECFF8FFAD
:104780001200040EDBCFE6FF130EDB50E552E75CB0
:104790009ADFDB5004DF060EDB501200090EDB50FF
:1047A0000A0DF350DF24D00FE76E090EE7CFDBFFD1
:1047B000B9EF22F0DB50F36E050EE7EF22F0F70EB3
:1047C000DBCF00F0F80EDBCF01F01200DFCFE6FF09
:1047D000C3EF22F028DF030EECDE68EF23F015ECC8
:1047E0001EF0E552E552E552E55200091200BDDE29
:1047F000EE50EFCFEAFFE96E010E1200130EDB5010
:10480000F36E040EE7EF22F0040EDB50F36E090E98
:10481000E7EF22F0DBCFE6FFC3EF22F0E76E050EF5
:10482000E7CFDBFF12008BDFE6EF23F0DBCFE6FF05
:1048300086DFEFEF23F0D950F90FE96EFF0EB4EFEA
:0C48400023F0E96E000EDA20EA6E120090
:04484C000300120053
:104850006CEF47F01200120007EC18F0ADEF39F0E2
:1048600012001E0EE66E010EE66EEFEC11F0E55240
:10487000E552AE0EE66EB6EC30F0E552BFEC38F025
:10488000D5EC17F0FFEF39F065840B01080E4D6F82
:10489000070E4E6F4D07000E4E5B4D514E11FAE163
:1048A00065941200D9CFE6FFE1CFD9FFFD0EDBCF33
:1048B0001DF0FE0EDBCF1EF0720E1D1801E11E5022
:1048C00033E0E8681D1802E17F0E1E182BE0740E1D
:1048D0001D1801E11E5024E0750E1D1801E11E5047
:1048E0001DE0730E1D1801E11E5016E0030E1D1889
:1048F00001E11E500FE0020E1D1801E11E5008E0FC
:10490000010E1D1801E11E5001E010D0AADF0FD0EA
:10491000A7DF0DD0A1DF0BD09DDF09D097DF07D037
:1049200097DF05D098DF03D0000001D000D0010E42
:1049300000D0E552E7CFD9FF1200D880000E0B015E
:104940004F55C20E5055010E5155000E525501E201
:1049500012004FCBD7FB50CBD8FB51CBD9FB52CB5E
:10496000DAFB1200DACFE4FFE2CFDAFFE9CFE4FFAF
:10497000EACFE4FFF6CFE4FFF7CFE4FFF8CFE4FFA0
:10498000F5CFE4FFF3CFE4FFF4CFE4FFFACFE4FF89
:10499000FBCFE4FF00EE15F0140EE80403E3EECFC6
:1049A000E4FFFBD700EE00F0150EE80403E3EECFC2
:1049B000E4FFFBD7E6529D50010B07E09E50010B30
:1049C00004E09D909E90CD9002D05FEC11F0E552F6
:1049D00000EE14F0150EE80403E3E5CFEDFFFBD77E
:1049E00000EE28F0140EE80403E3E5CFEDFFFBD75B
:1049F000E5CFFBFFE5CFFAFFE5CFF4FFE5CFF3FF0F
:104A0000E5CFF5FFE5CFF8FFE5CFF7FFE5CFF6FF00
:104A1000E5CFEAFFE5CFE9FFE5CFDAFF1100D8CF18
:104A2000E4FFE0CFE4FFE46EDACFE4FFE652E552C4
:104A3000E5CFDAFFE550E5CFE0FFE5CFD8FF100086
:104A400004D895EC12F05AD8FED76CEC47F00F0161
:104A5000496949CF48FFD08EF28EF29C550EA76E61
:104A6000AA0EA76E0E01FF91090ECC6F0A0ED36F2E
:104A7000170EFB6F050EE76F550EA76EAA0EA76EF9
:104A8000FF810BEC11F07AEC30F0F19E0FEC08F0A6
:104A90004AEF25F0D9CFE6FFE1CFD9FF020EE1269C
:104AA00075DB74DB73DB72DB8FDB4BEC3FF0C4DB5D
:104AB0009DDBB9EC48F0E9EC36F0949C8B8C828C51
:104AC000949E8B8E828E0801006BC7EC3BF00B012D
:104AD0003A0E306F2D6F336B2F0E256F226F320E13
:104AE000266F300E276F2A6B020EE15C02E2E16A4C
:104AF000E552E16EE552E7CFD9FF12001AD808015E
:104B0000005102E082EF26F0200E0E01E76E3E1902
:104B1000E8AE02D0E73402D0E7503E5D09E36550CD
:104B2000020B01E01200FCEC3AF052EC18F05FD9F5
:104B30001200DCEC36F0080100510FE081A407D030
:104B4000300EE66E78EC34F0E5528EEC38F069EC1D
:104B500038F0000901E191D00DD081A407D0300ECA
:104B6000E66E78EC34F0E55275EC38F030EC38F065
:104B7000000902E0D5DA80D03CEC38F000096EE0A4
:104B8000F2DA226E236AF3CF1DF0F4CF1EF09BEC15
:104B900049F044DB300E1D240B01456F34CB02F08D
:104BA00035CB03F00A0EEADA1DC002F01EC003F096
:104BB000300E0226000E032234CB04F035CB05F074
:104BC000640EDCDA1DC004F01EC005F00A0E1D6E76
:104BD0001E6A04C022F005C023F031EC44F01B50E3
:104BE000025C006E1C50035800C046FB34CB00F042
:104BF00035CB01F00A0EC2DA300E19240B01476FD3
:104C0000486BDCDA006E640E03DB1E50300F0B01C4
:104C1000496FD4DA016E0A0E026E236E01C01EF0D7
:104C2000FFEC49F01E50300F006EC8DA036E640EC0
:104C3000046E236E03C01EF0FFEC49F01E500A0DF7
:104C4000F350005C0B014A6FB9DA006E0A0EE0DA2D
:104C50001A50300F0B014B6F4C6B0FD04BEC38F0F0
:104C6000000905E0F9DAF5EC34F0C5DA06D05AECC3
:104C700038F0000902E058DAB9DA9DEC38F019088A
:104C800004E1EADA68EC37F032D09DEC38F018082D
:104C900027E1490EE66E0B0EE66E450EE66E0B0E34
:104CA000E66E0B01B60ED8803455030E355505E27D
:104CB000B60E006E030E016E04D034CB00F035CB7F
:104CC00001F0050ED89001320032E804FBE10050FB
:104CD000E66EA7EC37F0026E050EE15E02501200A0
:104CE0009DEC38F0170805E19EDAE8EC37F0FBEFB1
:104CF00028F09DEC38F0010804E14EDA4AEC37F078
:104D000075DA12000B01FE5113E1656A0F01366B73
:104D10000E013E6B3BDA65EC47F00B01010EFE6FB6
:104D2000B9EC48F001DA62DAB9EC38F0DDEF41F0C5
:104D300007EC41F0000927E016DA030ED8900132A3
:104D40000032E804FBE100C001F0006A0B01FB51F6
:104D500008010010FC6F01C0FDF8FE6BFF6B94DAD8
:104D600057EC3FF0E552E5528FDAE5EC3FF0E552C3
:104D7000E5521BC0F8F81CC0F9F81DC0FAF81EC0B7
:104D8000FBF8ECEF40F0FAEC40F0000925E06ADABD
:104D90002BEC41F000090CE1020EE66E0ADA51EC50
:104DA00041F0E552E552E552000902E01EEC41F007
:104DB000FAEC40F000090AE0FCD933EC41F0E5528E
:104DC000E552250EE66E8EEC47F0E55210EC41F010
:104DD000000902E01EEC41F0F2EC40F0000906E0B0
:104DE000C5EC38F0E5EC41F0CAEC38F01200D9CF50
:104DF000E6FFE1CFD9FF050EE126E66AD9EC3BF0EC
:104E0000E552000904E0C8D9E3EC3BF06BD0690E31
:104E10009FD92BE00A0E0B01FC1901E1FD5101E1C4
:104E200076D0320EFC1901E1FD5119E0500EFC194B
:104E300001E1FD5112E05A0EFC1901E1FD510AE0B9
:104E4000640EFC1901E060D1FD5101E05DD14BEC35
:104E50003FF05AD1BFEC38F057D166D943D0BDD915
:104E60006FEC3CF0E552E55206D1740E71D914E0B6
:104E7000060EE66E180EE66E0B0EC2D901E144D1A5
:104E80001CCB1FFB1DCB1EFB1BCB1CFB19CB1BFB29
:104E9000D3D9006E060E34D1720E5AD93BE00A0EF9
:104EA0000B01FC1901E1FD5132E0320EFC1901E168
:104EB000FD511BE0460EFC1901E1FD5112E0500EC0
:104EC000FC1901E1FD510AE0640EFC1901E01CD15E
:104ED000FD5101E019D1C6D9819016D1C9D981807F
:104EE00013D11ED9006E060EB9D09DD9FBCBE6FFBB
:104EF00034CBE6FF35CBE6FF38CBE6FF37CBE6FF1A
:104F000036CBE6FFABEC3CF0006E0A0EA7D0E5EC2A
:104F10003CF0FAD0730E1CD91CE0010E0B01FC19F9
:104F200001E1FD5112E0050EFC1901E1FD510AE01D
:104F30000A0EFC1901E0E8D0FD5101E0E5D0F1ECEA
:104F40003CF0E2D0020EFA6FDFD00801010E006FD4
:104F5000DBD0660EFDD801E184D00B01460ED8806F
:104F6000FC55000EFD552CE2AA0EFC5D000EFD590D
:104F700027E2E1D819C000F01AC001F019501A1048
:104F80001FE1D9D84BD9080E005E000E015A00C0AF
:104F9000E6FF01C0E6FF73D9E66AE0D8CCD83ED977
:104FA000026A036A1DC0E6FF1EC0E6FF02C0E6FFFC
:104FB00003C0E6FFF0EC0BF0046E070EE15E045058
:104FC000010E0B01FC1901E1FD5101E19BD00A0E1C
:104FD000FC1901E1FD5137E00F0EFC1901E1FD5113
:104FE0002AE0C80EFC1901E1FD511EE0D20EFC19A9
:104FF00001E1FD5115E0DC0EFC1901E1FD510BE072
:10500000E60EFC1901E080D0FD5101E07DD0A6D86C
:1050100090EC3DF030D0010EE66EA0D8E66A17D0D5
:105020009DD8CFEC3DF027D0E66A98D8E00EE66E2A
:10503000010EE66E0DD0090EE66EE66A20D98ED816
:10504000B6EC3EF018D0E66A89D8110EE66EE66A34
:10505000E66AE66AF0EC0BF0006E070EE15E0050C7
:1050600053D0750E75D80AE0AFD8F80EE66E0A0E6A
:10507000E66EF7EC3CF0E552E55246D0770E68D884
:1050800043E0140EE66EF80EE66E0A0EB9D83CE068
:105090000B010C6BF8CAE6FFF9CAE6FFFACAE6FF95
:1050A000FBCAE6FFFCCAE6FFFDCAE6FFFECAE6FF52
:1050B000FFCAE6FF92D8C7D808CBE6FF09CBE6FFC8
:1050C0000ACBE6FF0BCBE6FF0CCBE6FF0DCBE6FFF2
:1050D0000ECBE6FF0FCBE6FF10CBE6FF11CBE6FFD2
:1050E00012CBE6FF13CBE6FF14CBE6FF15CBE6FFB2
:1050F00016CBE6FF17CBE6FFF8EC47F0006E200E6C
:10510000E15E0050DFEC3CF0CEEC3BF0050EE15CE4
:1051100002E2E16AE552E16EE552E7CFD9FF120003
:1051200082D8B2D8A3EF3FF0000EE66E0B0EE66E0B
:105130008AD849EF35F0FCCB00F0FDCB01F00A0E28
:10514000226E236AFCCB1DF0FDCB1EF09BEF49F0D5
:10515000E66ED9EC3BF0E55200091200F80EE66E5F
:10516000080EE66E1200819083D80B01640EFB6F6F
:105170008180F3CF00F0F4CF01F01200226E236A99
:1051800034CB1DF035CB1EF09BEF49F0FA0EE66EE6
:1051900084EC49F0E5521200DB0EE66E920EE66EEC
:1051A000000EE66ED20EE66E920EE66E000EE66E13
:1051B0001200360EE66E0B0EE66E12000B01FB516E
:1051C000FE0BE842E20F1200F80EE66E0A0EE66EE3
:1051D00019EC48F0E552E552120000CBE6FF01CB96
:1051E000E6FF02CBE6FF03CBE6FF1200006E060EE1
:1051F000E15E00501200E552E552E552E552120020
:10520000E66E06EC3DF0E552E552E552000912006B
:10521000016E236E00C01EF0FFEF49F01DC000F0CC
:105220001EC001F012002B0EE66E0B0EE66E200E75
:10523000E66E0B0EE66E120027D878EC3FF0E552D2
:10524000E55290EF28F004CBE6FF05CBE6FF06CB56
:10525000E6FF07CBE6FF1200390EE66E0B0EE66E98
:10526000D9EF28F0A6DF93EC34F0E552E5521200B6
:10527000D1EC48F0F3CF34FBF4CF35FB12006EDFF6
:105280007DEC3EF0FBEF28F0180EE66E0B0EE66E9E
:0252900012000A
:0E529200D9CFE6FFE1CFD9FF050EE126736A02
:1052A000728E729C729A72987296729472927290C6
:1052B000739C94949396958C7288728AE66AD7D977
:1052C000E552E76E020EE7CFDBFF0000D950020F78
:1052D000E96EDACFEAFFEF50070B020801E00000A9
:1052E000FB0EDB50E76E030EE7CFDBFF030EDB5058
:1052F000330A16E0010A0EE0030A06E0010A01E0A3
:1053000015D0030EDB6A15D0010EF36E030EF3CF3A
:10531000DBFF0FD0020EF36E030EF3CFDBFF09D0DD
:10532000020EF36E030EF3CFDBFF03D0030EDB6A36
:1053300000D0FC0EDB50E76E040EE7CFDBFF040E5F
:10534000DB50390A2EE0010A26E00F0A1EE0010AAE
:1053500016E0030A0EE0010A06E0070A01E027D082
:10536000040EDB6A2AD0010EF36E040EF3CFDBFFCE
:1053700024D0020EF36E040EF3CFDBFF1ED0030E1B
:10538000F36E040EF3CFDBFF18D0040EF36E040EA1
:10539000F3CFDBFF12D0050EF36E040EF3CFDBFF6D
:1053A0000CD0060EF36E040EF3CFDBFF06D0020E18
:1053B000F36E040EF3CFDBFF00D0040EDBCFE6FF6D
:1053C000030EDBCFE6FFF5D9E552E552010EE66E9E
:1053D0004ED9E552DE6EDD6A0000110EE66E47D949
:1053E000E552DE6EDD6A0000E66A110EE66ECED88A
:1053F000E552E5520000110EE66E39D9E552DE6E37
:10540000DD6A0000140EE66E32D9E552E76E020E38
:10541000E7CFDBFFD950020FE96EDACFEAFFEF509A
:10542000180BE842E842E842006E016A026A036A29
:10543000F90EDBCFE9FFFA0EDBCFEAFF00C0EEFF8B
:1054400001C0EEFF02C0EEFF03C0EEFFF90EDBCF9E
:10545000E9FFFA0EDBCFEAFFEECF00F0EECF01F06E
:10546000EECF02F0EFCF03F0080E1F0B07E0D8904D
:105470000036013602360336E806F9E1D950020F4C
:10548000E96EDACFEAFFEF50070B006E016A026A9D
:10549000036AF90EDBCFE9FFFA0EDBCFEAFF00501B
:1054A000EE120150EE120250EE120350EE12F90EFF
:1054B000DBCFE9FFFA0EDBCFEAFFEECF00F0EECF55
:1054C00001F0EECF02F0EFCF03F0080E1F0B07E064
:1054D000D8900036013602360336E806F9E1D95095
:1054E000020FE96EDACFEAFFEF50180BE842E8420C
:1054F000E842006E016A026A036AF90EDBCFE9FF37
:10550000FA0EDBCFEAFF00C0EEFF01C0EEFF02C0E3
:10551000EEFF03C0EEFFF90EDBCFE9FFFA0EDBCFA3
:10552000EAFFEECF00F0EECF01F0EECF02F0EFCFCA
:1055300003F0080E1F0B07E0D89000360136023644
:105540000336E806F9E1D950020FE96EDACFEAFF37
:10555000EF50070B006E016A026A036AF90EDBCF97
:10556000E9FFFA0EDBCFEAFF0050EE120150EE1217
:105570000250EE120350EE12050EE15C02E2E16A07
:10558000E552E16EE552E7CFD9FF1200D9CFE6FF31
:10559000E1CFD9FFE652DF6AFE0EDB50140804E0CB
:1055A000FE0EDB50340806E1140EE66E60D8E552BC
:1055B000E00BDF6E8B9EA49EFE0EDB50756EA4AEDC
:1055C000FED7000000000000000000000000000006
:1055D00000000000000000000000000000000000CB
:1055E00000000000000000000000000000000000BB
:1055F00000000000000000000000000000000000AB
:10560000000000000000000000000000000000009A
:10561000000000000000000000000000000000008A
:10562000000000000000000000000000000000007A
:10563000000000000000000000000000000000006A
:105640000000A49EFE0EDB500A0805E1FD0EDB50B3
:105650007F0B756E04D0FD0EDB50DF10756EA4AEAF
:10566000FED78B8EE552E552E7CFD9FF1200D9CF96
:10567000E6FFE1CFD9FF8B9EA49EFE0EDB50800992
:10568000756EA4AEFED70000000000000000000010
:10569000000000000000000000000000000000000A
:1056A00000000000000000000000000000000000FA
:1056B00000000000000000000000000000000000EA
:1056C00000000000000000000000000000000000DA
:1056D00000000000000000000000000000000000CA
:1056E00000000000000000000000000000000000BA
:1056F00000000000000000000000000000000000AA
:10570000000000000000A49E756AA4AEFED78B8E38
:10571000755000D0E552E7CFD9FF12001FD9828C17
:10572000030E4AD9036E026A02C0E6FFE66E020E5D
:10573000C8D819D9FEE1B7D800C0EFFF050EF7D8D9
:10574000040EBFD810D9FEE1AED8EE5200C0EFFF74
:10575000070EEDD8060EB5D806D9FEE131D900C046
:10576000EFFF7F0E006E9FD80050EF269CD800D927
:1057700004E203D902E297D8EF2A7F0E006E93D895
:10578000EE520050EF268FD8EE52F2D805E2F5D84F
:1057900003E289D8EE52EF2A7F0E006E11D9005035
:1057A000EF260ED9E5D804E2E8D802E209D9EF2ABB
:1057B000E9D0D4D8E652140EFFD8DF6EFE0EDB50CF
:1057C000D9CFE9FFDACFEAFFE850030BF36EF346D7
:1057D000F346F346E70EEF14F310EF6EFD0EDB50C9
:1057E000006ED9CFE9FFDACFEAFFE850070BF36E7E
:1057F000F80EEF14F310EF6EDFCFE6FF140EE66E37
:10580000C5DEE552E552E552BDD0A8D8FD0EDBCF8E
:10581000E6FFFE0EDBCFE6FF81DFE552E552BDD8A5
:1058200000C01EF07FD8E66ECED8C2D801C01EF0F0
:10583000BAD805C01EF06ED8010EA8D800C01EF060
:1058400082D8020EC7D8030EC8D801C01EF06AD88D
:10585000E66E040E2FD8ACD802C01EF0A4D806C045
:105860001EF058D8050E92D801C01EF06CD8060E56
:10587000B1D8070EB2D802C01EF054D8E66E080E9A
:1058800019D896D803C01EF08ED807C01EF042D893
:10589000090E7CD802C01EF056D80A0E9BD80B0EFB
:1058A00009D8EF6A6FD0FD0EDBCFE9FFFE0EDBCF2C
:1058B000EAFF1200E76E87D8E750E926000EEA22D9
:1058C00012007AD8E552E7CF03F0E552E7CF02F0B5
:1058D00000010210006E03C001F0060E1200EECFB0
:1058E00000F0EECF01F0EFCF02F01200EECF01F0AA
:1058F000EECF02F0EFCF03F00A0E046E236E12001B
:10590000EECF05F0EECF06F0EFCF07F0640E086E95
:10591000236E1200FFEC49F01E500A0DF350005C9C
:10592000E66E1200FFEC49F01E50300F120044D812
:10593000026E036E026A02C0E6FFE66E1200E552D6
:10594000E750EF6E1200FFEC49F01A50300FE66E90
:105950001200020EE926000EEA221200D9CFE6FF5D
:10596000E1CFD9FF1200D89001320032E8041200D2
:10597000EF50006E016A013412000050FF08000E63
:1059800001541200E552E7CFD9FF120023D88BDF74
:10599000A6DF0A0E036E236E120085DFA0DF640E01
:1059A000036E236E1200BEDF006E7DDF80EF2CF0F1
:1059B000C6DF79DF76EF2CF0E66E59DEE552120095
:1059C00072DFA9EF2CF0FB0EDBCFE9FFFC0EDBCF83
:1059D000EAFF12006FDF9FEF2CF06CDF2C0EEF6EF2
:0459E000CDEF2CF0EB
:0C59E400000000000000000000000000B7
:1059F000000000000000E0000000C03E44804020A5
:105A00001804E21F00804020907880800000000091
:105A10000000000000000000000000000000000086
:105A2000000000000C38D0A09E81838C868180808D
:105A3000808040404041434140404043414D5320DD
:105A400020E0E010101010A0400000000000000056
:105A5000000000008040301804FF00001C3CBE9E87
:105A6000CC40406020A09050501808080C0404045A
:105A70000242764F45E041020101000000000000B3
:105A80000000000000406352CA060000FB263717E2
:105A90009D542C040000030302038282C2600000B4
:105AA0000000040C24242527E42404C4641C000002
:105AB00000000000000000000030797E3C9C5C3556
:105AC0001212090808040486828283C3C3C5E6E370
:105AD0003030109098C8487838FEBD0C0601023668
:105AE000D48C08808080C0602020F0783C1C0A059F
:105AF0000482721F01C1614141414140402024E3C1
:105B00000000038060104C7FED74300886C3404075
:105B1000786404040704010207030F070100000072
:105B20008040300E03C0301E09040C180406181003
:105B30007C4740808087888898D0F4E4E2C38287DD
:105B40000000000000000000000000000000000055
:105B50000000070D080898D9D9FBFEDEEE7C7C78A2
:105B6000586838000000000000607078787D3F3F82
:105B70001E0C0D090F060000000000000000C0F020
:105B8000F8FCFCFEFEFFFFFF7F7F7F7FFFFFFFFF34
:105B9000FEFEFCF8F0E08000F8FFFFFFFFFFFFFFD4
:105BA0007F03000000000000000107FFFFFFFFFF70
:105BB000FFFFFFF8FFFFFFFFFFFFFFFF00000000F8
:105BC00000000000000000FFFFFFFFFFFFFFFFFFDE
:105BD0003FFFFFFFFFFFFFFFFC8000000000000011
:105BE0000000C0FFFFFFFFFFFFFFFF0F00030F1FBD
:105BF0003F7F7FFFFFFFFFFEFCFCFCFEFEFFFFFF81
:105C00007F7F3F1F0F030000000080C0E0E0F0F83E
:105C1000F8FCFEFEFFFFFFFFFFFFFF00000000009B
:105C20000000000000000F1F0F0F0707030301FF14
:105C3000FFFFFFFFFFFFFF0000000000000000006B
:105C40000000000000000000000000FFFFFFFFFF59
:105C5000FFFFFF0000000000000000000000000047
:105C600000000000000000FFFFFFFFFFFFFFFF003C
:105C70000000000000000000000030FEFEFEFEFEFE
:105C8000FEFEFEFFFFFFFFFFFFFFFFFEFEFEFEFE2C
:105C9000FEFEFC0000F0F8FCFCFEFEFEFFFFFFFF36
:105CA000FFFFFFFFFFFFFFFEFEFCFCF8E00000002F
:105CB000000307030301010000000000000001C70A
:105CC000FFFFFFFFFFFFFFFFFF3F0000000000009E
:105CD000000000000080C0E0F0FCFEFFFFFFFFFFBF
:105CE0007F3F1F0701000000000080C0E0F0F8FCCB
:105CF000FEFFFFFFFF7F3F1F0F07030000000000B4
:105D00000000000000FFFFFFFFFFFFFFFFFFFFFF9E
:105D1000FEFEFEFEFEFEFEFEFEFEFEFEFEFEFE1091
:105D200000F0F8FCFCFEFEFE7F7F7F7F7F7FFFFFA1
:105D3000FFFFFFFEFEFCF8F0E0000000000103039F
:105D40000101000000000000000080E1FFFFFFFFF4
:105D5000FFFFFFFF7F000000000000007E7E7E7ED0
:105D60007E7E7F7FFFFFFFFFFFFFFFFFFFF3F1E07E
:105D7000C0800000008080000000000000000000E3
:105D80000000000183FFFFFFFFFFFFFFFFFFFE009A
:105D9000003F7F7FFFFEFEFEFEFCFCFCFCFEFEFFE4
:105DA000FFFFFFFF7F7F3F1F0F0701000000000084
:105DB000000000000000C0F0FCFEFEFFFFFFFFFF40
:105DC000FFFFFFFEFE000000000000000080E0F882
:105DD000FEFFFFFFFF3F1F0703FFFFFFFFFFFFFF68
:105DE000FF00000000C0F0FCFFFFFFFF7F1F0F035C
:105DF0000000000000FFFFFFFFFFFFFFFF000000AB
:105E00007FFFFFFFFFFFFFFFFEFEFEFEFEFEFEFE2A
:105E1000FEFFFFFFFFFFFFFFFFFEFEFE0000000092
:105E200000000000000000000000000000FFFFFF75
:105E3000FFFFFFFFFF0000000000FCFEFFFFFFFF71
:105E4000FFFFFFFFFFFFFFFFFFFFFFFFFFFFFFFE63
:105E50003C0000000000FFFFFFFFFFFFFFFF80800E
:105E60008080808000000000000000000000000032
:105E700000003F3F3F3F3F3F3F3F3F3F3F3F7F7F30
:105E8000FFFFFFFFFFFEFCFCF8E0800000000000C9
:105E900000000000000000000000000000C3FFFF41
:105EA000FFFFFFFFFFFF7F00007F7FFFFFFEFEFE83
:105EB000FCFCFCFCFCFEFEFFFFFFFF7F7F3F1F1F83
:105EC0000703000000000080E0F0F8F8FCFEFEFE92
:105ED000FFFF7F7F7F7F7F7F7F7FFFFEFE000000D1
:105EE00000F0FEFFFFFFFFFFFF1F030180808080A7
:105EF000808080808000000000000000F0FFFFFF35
:105F0000FFFFFFFFFF7F7F3F3F3F3F3F3F3F7FFF61
:105F1000FFFFFFFFFEFCF0C000FFFFFFFFFFFFFFE2
:105F2000FFE0000000000000000080FFFFFFFFFF17
:105F3000FFFFFF7F0000070F3F3F7FFFFFFFFFFED8
:105F4000FCFCFCFCFEFEFFFFFF7F3F3F1F0F03003A
:105F50007CFEFFFFFFFFFFFFFFFFFFFFFFFFFFFFD5
:105F6000FFFFFFFFFFFFFFFFFFFFFE00000000003D
:105F70000000000000000000000080E0F8FFFFFFCC
:105F8000FFFFFFFF3F0701000000000000000000CE
:105F9000000000C0F8FEFFFFFFFFFFFF7F1F0300B0
:105FA0000000000000000000000000C0F0FCFFFF47
:105FB000FFFFFFFFFF3F0F01000000000000000097
:105FC00000000000E0F8FEFFFFFFFFFFFF7F1F075C
:105FD00000000000000000000000000000C0E0F829
:105FE000FCFCFEFEFFFF7F7F3F3F3F7F7FFFFFFF09
:105FF000FEFEFEFCF8F08000003FFFFFFFFFFFFF0A
:10600000FFF1E0C080800080C0E0FFFFFFFFFFFFE6
:10601000FF7F0F00000080C1C3E7FFFFFFFFFFFF0E
:10602000FFFFFFFFFFFFFFFFFFF7F3E1C08000006E
:10603000FCFFFFFFFFFFFFFF8F07030100000001D0
:10604000010307FFFFFFFFFFFFFFFFFC070F3F3FBD
:106050007FFFFFFFFFFEFEFCFCFCFCFCFCFEFFFFE5
:10606000FF7F7F3F3F1F070100C0E0F8F8FCFEFE06
:10607000FFFFFF7F7F7F7F7FFFFFFFFEFEFCFCF8BF
:10608000E0C00000FEFFFFFFFFFFFFFF87010000F1
:106090000000000000010FFFFFFFFFFFFFFFFE00F9
:1060A000071F7F7FFFFFFFFFFFFEFCF8F8F8F8F8FF
:1060B000FCFCFEFFFFFFFFFFFFFFFF0000000000F2
:1060C00000010101030303030303030181C1F8FF7E
:1060D000FFFFFFFFFF7F0F00003E7EFEFEFEFEFC87
:1060E000FCFCFCFCFCFEFEFFFFFF7F3F3F1F0F0799
:0460F00001000000AB
:0C60F40026DBA50EF6EF32F022DBDB0EFF
:1061000075DA230E73DAD90E71DA220E6FDAA10E68
:106110006DDAC80E6BDADA0E69DA120E67DAA80EDB
:1061200065DA3F0E63DAD50E61DAA00E5FDA810E12
:106130005DDA600E5BDAD30E59DAE66A17D8E552FB
:10614000A60E54DAAD0E52DA8B0E50DAE66A25D876
:10615000E552AF0E4BDA140EE66E84EC49F0E552D0
:10616000A40E44DA400E42DAC7EF33F071DAC9DA2E
:106170008A9A12D36DDAC5DA8A8A0ED369DAE652C0
:1061800095688D808D828A8A8D948D908D808350C4
:10619000DF6E8D84DF50E55257D211DBB00EDF6E1B
:1061A000B80EDF5C16E2E8DAF2DA010EDB6ADB50E9
:1061B000006E016AD890015004E6840E005C000E67
:1061C000015805E2FE0EDBCFE6FF8EDAF0D7DF2ABC
:1061D000E7D7020EE15C02E2E16AE552E16E34D2F9
:1061E00037DA060EE126FED904E6080E005C000E42
:1061F000015802E2B00E37D0F5D904E6100E005C6B
:10620000000E015802E2B10E2ED0ECD904E6180EB1
:10621000005C000E015802E2B20E25D0E3D904E67C
:10622000200E005C000E015802E2B30E1CD0DAD939
:1062300004E6280E005C000E015802E2B40E13D0F2
:10624000D1D904E6300E005C000E015802E2B50E12
:106250000AD0C8D904E6380E005C000E015802E2EC
:10626000B60E01D0B70EC7D9D89001320032E8047B
:10627000FBE1010E27DA010EF0D9010E00C0DBFFB1
:10628000F36EDB5004E0D890F336E806FCE1F350FF
:10629000E76E040ED1D93CDA3BDADBCFE7FF040E20
:1062A000DB50E712050EC8D9050EDBCFE6FF62DF33
:1062B000E552060EE15C02E2E16AE552E16EC4D10C
:1062C000C7D9070EE1268ED904E6080E005C000E41
:1062D000015802E2B00E37D085D904E6100E005CFA
:1062E000000E015802E2B10E2ED07CD904E6180E41
:1062F000005C000E015802E2B20E25D073D904E60C
:10630000200E005C000E015802E2B30E1CD06AD9C8
:1063100004E6280E005C000E015802E2B40E13D011
:1063200061D904E6300E005C000E015802E2B50EA1
:106330000AD058D904E6380E005C000E015802E27B
:10634000B60E01D0B70E57D9D89001320032E8040A
:10635000FBE1050EB7D9050E80D9050E00C0DBFFA5
:10636000010EF36E050EDB5004E0D890F336E8061C
:10637000FCE1F350E76E040E5FD9D0D9CFD9040EFB
:10638000DBCFE6FF060EDB50E552E714006E070E8A
:10639000E15C02E2E16AE552E16E005055D158D964
:1063A000E652FE0EDBCF00F0FD0EDB50D88000542D
:1063B0000AE2FD0EDB28DF6EFE0EDB50D880DF54D4
:1063C0000CE35DD9F9D7FE0EDB50DF6EFD0EDB501E
:1063D000D880DF5402E353D9F9D7E55235D1EFD94C
:1063E000FE0EDB50DF6EFD0EDB50DF5C0EE2C4D92B
:1063F000FC0EC5D9100EFAD8010EDB6A6CD903E287
:10640000E66A72D9FBD7DF2AEED7020EE15C02E220
:10641000E16AE552E16E18D11BD9200E006EFE0E26
:10642000DBCFE7FF0050E75EFE0EE7CFDBFFFD0EA0
:10643000A6D9020E006EFC0EDBCFE7FF0050E72668
:10644000FC0EE7CFDBFFDB500F0BD0D8FC0EDB38A8
:106450000F0B0F0B100FCAD883D903AE02D00468FC
:106460000568A0D8C5D803AE02D0046805689AD8DC
:10647000F62A88D903AE02D00468056893D8020EC4
:10648000F62680D903AE02D0046805688BD8030EC7
:10649000F62678D903AE02D00468056883D8040EC6
:1064A000F626000EF722F8227DD9E66A63DEE55271
:1064B000CBD0CED8E652FA0EDB50DF6EFB0EDB50AF
:1064C000B00FE76EFB0EE7CFDBFFEAD80FE0DFCFC0
:1064D000E6FFFB0EDBCFE6FFE3D826D92BD9EE2A69
:1064E000000EEE22EE22060EDF26EFD7E552ACD0EC
:1064F000AFD8E652FB0EDB50DF6EFC0EDB50B00F68
:10650000E76EFC0EE7CFDBFFF4D80FE0DFCFE6FF4E
:10651000FC0EDBCFE6FFEDD807D9FD0EDB2AFE0E21
:1065200001E3DB2A060EDF26EFD7E5528DD047D9EF
:10653000006EF90EDBCFE7FF0050E726F90EE7CF3C
:10654000DBFFF80EDB50B00FDF6EFA0EDB50B00F42
:10655000DF5C21E211D9F90EDB500F0B47D8F90EA1
:10656000DB380F0B0F0B100941D8010EDB6AB3D8D3
:1065700010E2E0D8EFCFF6FFEE2AEFCFF7FF000EE4
:10658000EE22EFCFF8FFEE220800F550E66EACD811
:10659000EED7DF2ADAD7020EE15C02E2E16AE552C9
:1065A000E16E52D0050E216E226A236A03C01CF0F0
:1065B00004C01DF005C01EF04FEC44F019C003F0FC
:1065C0001AC004F01BC005F000501924F36E0150EE
:1065D0001A20F46E02501B20F86EF4CFF7FFF3CFB1
:1065E000F6FF1200E5D8D89001501200E66EEBD00D
:1065F000D9D8B0EF33F0DF6E020EE76EFD0EDBCFC1
:1066000000F0FE0EDBCF01F0E7500026000E012265
:10661000010E00C0DBFFDB500F0BE76E020EE7CF71
:10662000DBFF010EDB380F0B1009E76E030EE7CF1F
:10663000DBFFBED8030E1200E7CFDBFF9DD8020EB2
:106640009ED8030EBFEF33F0E552E7CFD9FF12001B
:10665000D9CFE6FFE1CFD9FF1200F3CFDBFFDB504C
:10666000026E036AFB0EDBCF1DF0FC0EDBCF1EF0CB
:1066700002501D5C006E03501E58016E1200FB0E8E
:10668000DB50D880DF54E66EE66AFC0EDBCFE6FF17
:10669000E66AA6DDE552E552E552E552DF2A120030
:1066A000FC0EDBCFF6FFFD0EDBCFF7FFFE0EDBCFE0
:1066B000F8FF0800F5501200020EE66EC3EC49F038
:1066C000E552120000C0DBFFDBCFF3FFF338E842F6
:1066D000F80BF36E1200FB0EDB50F36E010EDBCFF6
:1066E000F4FFF350F45C120045DDE552010EDB2AA5
:1066F0001200FD0EDBCFE9FFFE0EDBCFEAFFEF500D
:106700001200956AFE0EDB508C6E8D808D82120019
:1067100035DDE76E050EE7CFDBFF12002FDDE76EFC
:10672000060EE7CFDBFF1200E66E76DEE552E5529D
:10673000E5521200D950FC0FE96EFF0EDA20EA6E26
:10674000120096928D9296908D9096948D84939A45
:106750008A9A8C92B1DF8C82AFDFAE0EF6EF32F008
:10676000320E006E860E016E000E026EFE0EDBCF44
:1067700003F0046A056A1200DFCFE6FF24D0DBCF06
:10678000E6FF21D0000EF722F822F8EF32F0020ED9
:106790002DDF100EF6EF32F08D948D928D828D8468
:1067A000956852D70800F550E66EE4DCE552120019
:1067B000FB0EDBCF00F0FC0EDBCF01F0120048DF58
:0C67C000020EE1261200D2DCE5521200AD
:0467CC001A0EE66E4D
:1067D0002C0EE66E73D8E552E55200005F0EE66EB1
:1067E000380EE66E6BD8E552E552000012000A0E34
:1067F000E66E2C0EE66E62D8E552E5520000E66ABF
:10680000380EE66E5BD8E552E55200001200D9CF93
:10681000E6FFE1CFD9FF0A0EE66E2C0EE66E4ED8EB
:10682000E552E5520000E66A380EE66E47D8E552BA
:10683000E5520000FE0EDBCFE6FF240EE66E3ED8EA
:10684000E552E552F00EE66E270EE66E37D8E552B9
:10685000E552100EE66E2E0EE66E30D8E552E55289
:10686000E552E7CFD9FF1200D9CFE6FFE1CFD9FF3C
:10687000FE0EDBCFE6FF2A0E65DAFD0EDBCFE6FF6C
:106880001D0E60DAFC0EDBCFE6FF210E5BDAFB0E9D
:10689000DBCFE6FF220E56DAFA0EDBCFE6FF230E41
:1068A00051DA200EE66E2E0E4DDAE552E7CFD9FF13
:1068B0001200300EE66E1CD8E5521200D9CFE6FF6A
:1068C000E1CFD9FF8B9E828C000000000000A49EC7
:1068D000FE0EDB50756EA4AEFED7A49EFD0EDB50FF
:1068E000756EA4AEFED78B8EE552E7CFD9FF1200AE
:1068F000D9CFE6FFE1CFD9FF8B9E828C000000004C
:106900000000A49EFE0EDB508009756EA4AEFED77B
:10691000A49E756AA4AEFED78B8E755000D0E5524A
:10692000E7CFD9FF1200D9CFE6FFE1CFD9FF8B9E89
:10693000828C000000000000A49EF20E756EA4AED2
:10694000FED7A49E756AA4AEFED7A49E756AA4AEB7
:10695000FED7FD0EDBCFE9FFFE0EDBCFEAFF75CFE2
:10696000EFFFFD0EDBCFE9FFFE0EDBCFEAFFEF7E90
:10697000A49E756AA4AEFED7A49E756AA4AEFED787
:10698000FD0EDBCFE9FFFE0EDBCFEAFFEE5275CF47
:10699000EFFFFD0EDBCFE9FFFE0EDBCFEAFFEE528D
:1069A000EF7EA49E756AA4AEFED7A49E756AA4AEBF
:1069B000FED7FD0EDBCFE9FFFE0EDBCFEAFF020EB6
:1069C000E926000EEA2275CFEFFFFD0EDBCFE9FFCF
:1069D000FE0EDBCFEAFF020EE926000EEA22EF7E72
:1069E0008B8EE552E7CFD9FF1200D9CFE6FFE1CF7A
:1069F000D9FFFD0EDBCFE6FFFE0EDBCFE6FF93DF18
:106A0000E552E55279D9640E036E236E00C01EF084
:106A1000A6D9C6D989D901C01EF076D905C01EF005
:106A200096D9010EA8D900C01EF09FD9020EBFD979
:106A3000030EAED901C01EF092D9040E56D974D9F6
:106A400002C01EF061D906C01EF081D9050E93D98F
:106A500001C01EF08AD9060EAAD9070E99D902C024
:106A60001EF07DD9080E41D95FD903C01EF04CD964
:106A700007C01EF06CD9090E7ED902C01EF075D970
:106A80000A0E95D90B0E31D9EF6AE552E7CFD9FF3F
:106A90001200D9CFE6FFE1CFD9FF020EE126828CAA
